{
  "_format": "hh-sol-artifact-1",
  "contractName": "ReputationRegistry",
  "sourceName": "contracts/ReputationRegistry.sol",
  "abi": [
    {
      "inputs": [
        {
          "internalType": "address",
          "name": "initialOwner",
          "type": "address"
        },
        {
          "internalType": "address",
          "name": "initialScorer",
          "type": "address"
        }
      ],
      "stateMutability": "nonpayable",
      "type": "constructor"
    },
    {
      "inputs": [
        {
          "internalType": "address",
          "name": "owner",
          "type": "address"
        }
      ],
      "name": "OwnableInvalidOwner",
      "type": "error"
    },
    {
      "inputs": [
        {
          "internalType": "address",
          "name": "account",
          "type": "address"
        }
      ],
      "name": "OwnableUnauthorizedAccount",
      "type": "error"
    },
    {
      "inputs": [
        {
          "internalType": "uint256",
          "name": "signalId",
          "type": "uint256"
        }
      ],
      "name": "SignalAlreadyRecorded",
      "type": "error"
    },
    {
      "inputs": [],
      "name": "Unauthorized",
      "type": "error"
    },
    {
      "anonymous": false,
      "inputs": [
        {
          "indexed": true,
          "internalType": "address",
          "name": "previousOwner",
          "type": "address"
        },
        {
          "indexed": true,
          "internalType": "address",
          "name": "newOwner",
          "type": "address"
        }
      ],
      "name": "OwnershipTransferred",
      "type": "event"
    },
    {
      "anonymous": false,
      "inputs": [
        {
          "indexed": true,
          "internalType": "address",
          "name": "agent",
          "type": "address"
        },
        {
          "indexed": false,
          "internalType": "uint256",
          "name": "reputationScore",
          "type": "uint256"
        },
        {
          "indexed": false,
          "internalType": "uint256",
          "name": "totalSignals",
          "type": "uint256"
        }
      ],
      "name": "ReputationUpdated",
      "type": "event"
    },
    {
      "anonymous": false,
      "inputs": [
        {
          "indexed": true,
          "internalType": "address",
          "name": "scorer",
          "type": "address"
        }
      ],
      "name": "ScorerUpdated",
      "type": "event"
    },
    {
      "inputs": [
        {
          "internalType": "address",
          "name": "agent",
          "type": "address"
        }
      ],
      "name": "getReputation",
      "outputs": [
        {
          "components": [
            {
              "internalType": "uint256",
              "name": "totalSignals",
              "type": "uint256"
            },
            {
              "internalType": "uint256",
              "name": "settledSignals",
              "type": "uint256"
            },
            {
              "internalType": "uint256",
              "name": "accurateSignals",
              "type": "uint256"
            },
            {
              "internalType": "int256",
              "name": "cumulativePnlBps",
              "type": "int256"
            },
            {
              "internalType": "uint256",
              "name": "reputationScore",
              "type": "uint256"
            }
          ],
          "internalType": "struct ReputationRegistry.Reputation",
          "name": "",
          "type": "tuple"
        }
      ],
      "stateMutability": "view",
      "type": "function"
    },
    {
      "inputs": [
        {
          "internalType": "address",
          "name": "agent",
          "type": "address"
        }
      ],
      "name": "getScore",
      "outputs": [
        {
          "internalType": "uint256",
          "name": "",
          "type": "uint256"
        }
      ],
      "stateMutability": "view",
      "type": "function"
    },
    {
      "inputs": [
        {
          "internalType": "uint256",
          "name": "signalId",
          "type": "uint256"
        }
      ],
      "name": "getSettlement",
      "outputs": [
        {
          "components": [
            {
              "internalType": "address",
              "name": "agent",
              "type": "address"
            },
            {
              "internalType": "bool",
              "name": "accurate",
              "type": "bool"
            },
            {
              "internalType": "int256",
              "name": "pnlBps",
              "type": "int256"
            },
            {
              "internalType": "uint256",
              "name": "signalId",
              "type": "uint256"
            },
            {
              "internalType": "uint256",
              "name": "recordedAt",
              "type": "uint256"
            },
            {
              "internalType": "uint256",
              "name": "reputationScore",
              "type": "uint256"
            }
          ],
          "internalType": "struct ReputationRegistry.SettlementRecord",
          "name": "",
          "type": "tuple"
        }
      ],
      "stateMutability": "view",
      "type": "function"
    },
    {
      "inputs": [],
      "name": "owner",
      "outputs": [
        {
          "internalType": "address",
          "name": "",
          "type": "address"
        }
      ],
      "stateMutability": "view",
      "type": "function"
    },
    {
      "inputs": [
        {
          "internalType": "address",
          "name": "agent",
          "type": "address"
        },
        {
          "internalType": "bool",
          "name": "accurate",
          "type": "bool"
        },
        {
          "internalType": "int256",
          "name": "pnlBps",
          "type": "int256"
        },
        {
          "internalType": "uint256",
          "name": "signalId",
          "type": "uint256"
        }
      ],
      "name": "recordSettlement",
      "outputs": [],
      "stateMutability": "nonpayable",
      "type": "function"
    },
    {
      "inputs": [],
      "name": "renounceOwnership",
      "outputs": [],
      "stateMutability": "nonpayable",
      "type": "function"
    },
    {
      "inputs": [],
      "name": "scorer",
      "outputs": [
        {
          "internalType": "address",
          "name": "",
          "type": "address"
        }
      ],
      "stateMutability": "view",
      "type": "function"
    },
    {
      "inputs": [
        {
          "internalType": "address",
          "name": "newScorer",
          "type": "address"
        }
      ],
      "name": "setScorer",
      "outputs": [],
      "stateMutability": "nonpayable",
      "type": "function"
    },
    {
      "inputs": [
        {
          "internalType": "uint256",
          "name": "",
          "type": "uint256"
        }
      ],
      "name": "signalRecorded",
      "outputs": [
        {
          "internalType": "bool",
          "name": "",
          "type": "bool"
        }
      ],
      "stateMutability": "view",
      "type": "function"
    },
    {
      "inputs": [
        {
          "internalType": "address",
          "name": "newOwner",
          "type": "address"
        }
      ],
      "name": "transferOwnership",
      "outputs": [],
      "stateMutability": "nonpayable",
      "type": "function"
    }
  ],
  "bytecode": "0x608060405234801561000f575f80fd5b5060405161094d38038061094d83398101604081905261002e9161011d565b816001600160a01b03811661005c57604051631e4fbdf760e01b81525f600482015260240160405180910390fd5b610065816100b3565b50600180546001600160a01b0319166001600160a01b0383169081179091556040517f1b164f348a36fbb474886ff49f6d52b55d77238c568c168ea7f6acd159132dcd905f90a2505061014e565b5f80546001600160a01b038381166001600160a01b0319831681178455604051919092169283917f8be0079c531659141344cd1fd0a4f28419497f9722a3daafe3b4186f6b6457e09190a35050565b80516001600160a01b0381168114610118575f80fd5b919050565b5f806040838503121561012e575f80fd5b61013783610102565b915061014560208401610102565b90509250929050565b6107f28061015b5f395ff3fe608060405234801561000f575f80fd5b506004361061009b575f3560e01c806385c758f71161006357806385c758f71461016f5780638da5cb5b1461019a5780639c89a0e2146101aa578063d47875d0146101fe578063f2fde38b14610237575f80fd5b806302cebe071461009f57806303191ffc146100b45780634c582380146100c7578063715018a6146101355780638374ba641461013d575b5f80fd5b6100b26100ad3660046106c3565b61024a565b005b6100b26100c2366004610708565b610436565b6100da6100d5366004610721565b610487565b60405161012c919081516001600160a01b0316815260208083015115159082015260408083015190820152606080830151908201526080808301519082015260a0918201519181019190915260c00190565b60405180910390f35b6100b261052d565b61015f61014b366004610721565b60046020525f908152604090205460ff1681565b604051901515815260200161012c565b600154610182906001600160a01b031681565b6040516001600160a01b03909116815260200161012c565b5f546001600160a01b0316610182565b6101bd6101b8366004610708565b610540565b60405161012c91905f60a082019050825182526020830151602083015260408301516040830152606083015160608301526080830151608083015292915050565b61022961020c366004610708565b6001600160a01b03165f9081526002602052604090206004015490565b60405190815260200161012c565b6100b2610245366004610708565b6105c1565b6001546001600160a01b03163314610274576040516282b42960e81b815260040160405180910390fd5b5f8181526004602052604090205460ff16156102ab57604051633e00fbaf60e21b8152600481018290526024015b60405180910390fd5b5f818152600460209081526040808320805460ff191660019081179091556001600160a01b0388168452600290925282208054909283916102ed90849061074c565b9091555050600181810180545f9061030690849061074c565b9091555050831561032b576001816002015f828254610325919061074c565b90915550505b82816003015f82825461033e919061075f565b92505081905550610357816002015482600101546105fe565b60048083018281556040805160c0810182526001600160a01b03808b168083528a151560208085019182528486018c8152606086018c8152426080880190815260a088019b8c525f8e81526003948590528990209751885495511515600160a01b026001600160a81b031990961697169690961793909317865551600186015590516002850155915191830191909155945193019290925554835491517f5b88a2e3fc1a53234357ab78c104df11c33ccfa79886793654565ad70b8afb6e92610427928252602082015260400190565b60405180910390a25050505050565b61043e61062d565b600180546001600160a01b0319166001600160a01b0383169081179091556040517f1b164f348a36fbb474886ff49f6d52b55d77238c568c168ea7f6acd159132dcd905f90a250565b6104c56040518060c001604052805f6001600160a01b031681526020015f151581526020015f81526020015f81526020015f81526020015f81525090565b505f90815260036020818152604092839020835160c08101855281546001600160a01b0381168252600160a01b900460ff161515928101929092526001810154938201939093526002830154606082015290820154608082015260049091015460a082015290565b61053561062d565b61053e5f610659565b565b61056d6040518060a001604052805f81526020015f81526020015f81526020015f81526020015f81525090565b506001600160a01b03165f90815260026020818152604092839020835160a0810185528154815260018201549281019290925291820154928101929092526003810154606083015260040154608082015290565b6105c961062d565b6001600160a01b0381166105f257604051631e4fbdf760e01b81525f60048201526024016102a2565b6105fb81610659565b50565b5f815f0361060d57505f610627565b8161061a84612710610786565b610624919061079d565b90505b92915050565b5f546001600160a01b0316331461053e5760405163118cdaa760e01b81523360048201526024016102a2565b5f80546001600160a01b038381166001600160a01b0319831681178455604051919092169283917f8be0079c531659141344cd1fd0a4f28419497f9722a3daafe3b4186f6b6457e09190a35050565b80356001600160a01b03811681146106be575f80fd5b919050565b5f805f80608085870312156106d6575f80fd5b6106df856106a8565b9350602085013580151581146106f3575f80fd5b93969395505050506040820135916060013590565b5f60208284031215610718575f80fd5b610624826106a8565b5f60208284031215610731575f80fd5b5035919050565b634e487b7160e01b5f52601160045260245ffd5b8082018082111561062757610627610738565b8082018281125f83128015821682158216171561077e5761077e610738565b505092915050565b808202811582820484141761062757610627610738565b5f826107b757634e487b7160e01b5f52601260045260245ffd5b50049056fea2646970667358221220047e2decab26a307fa2d180b5ce9ae8a9871d7489fc10de05333c3e1e609e25864736f6c63430008180033",
  "linkReferences": {},
  "deployedLinkReferences": {}
}