{
  "_format": "hh-sol-artifact-1",
  "contractName": "SignalRegistry",
  "sourceName": "contracts/SignalRegistry.sol",
  "abi": [
    {
      "inputs": [
        {
          "internalType": "address",
          "name": "initialOwner",
          "type": "address"
        },
        {
          "internalType": "address",
          "name": "initialSettler",
          "type": "address"
        },
        {
          "internalType": "uint256",
          "name": "initialMinStake",
          "type": "uint256"
        }
      ],
      "stateMutability": "nonpayable",
      "type": "constructor"
    },
    {
      "inputs": [
        {
          "internalType": "uint256",
          "name": "expiration",
          "type": "uint256"
        },
        {
          "internalType": "uint256",
          "name": "now_",
          "type": "uint256"
        }
      ],
      "name": "ExpirationInPast",
      "type": "error"
    },
    {
      "inputs": [
        {
          "internalType": "bytes32",
          "name": "signalHash",
          "type": "bytes32"
        }
      ],
      "name": "HashAlreadyCommitted",
      "type": "error"
    },
    {
      "inputs": [
        {
          "internalType": "uint256",
          "name": "sent",
          "type": "uint256"
        },
        {
          "internalType": "uint256",
          "name": "required",
          "type": "uint256"
        }
      ],
      "name": "InsufficientStake",
      "type": "error"
    },
    {
      "inputs": [
        {
          "internalType": "address",
          "name": "owner",
          "type": "address"
        }
      ],
      "name": "OwnableInvalidOwner",
      "type": "error"
    },
    {
      "inputs": [
        {
          "internalType": "address",
          "name": "account",
          "type": "address"
        }
      ],
      "name": "OwnableUnauthorizedAccount",
      "type": "error"
    },
    {
      "inputs": [],
      "name": "ReentrancyGuardReentrantCall",
      "type": "error"
    },
    {
      "inputs": [
        {
          "internalType": "uint256",
          "name": "signalId",
          "type": "uint256"
        }
      ],
      "name": "SignalNotExpired",
      "type": "error"
    },
    {
      "inputs": [
        {
          "internalType": "uint256",
          "name": "signalId",
          "type": "uint256"
        }
      ],
      "name": "SignalNotFound",
      "type": "error"
    },
    {
      "inputs": [
        {
          "internalType": "uint256",
          "name": "signalId",
          "type": "uint256"
        },
        {
          "internalType": "enum SignalRegistry.SignalStatus",
          "name": "status",
          "type": "uint8"
        }
      ],
      "name": "SignalNotPending",
      "type": "error"
    },
    {
      "inputs": [],
      "name": "Unauthorized",
      "type": "error"
    },
    {
      "anonymous": false,
      "inputs": [
        {
          "indexed": true,
          "internalType": "address",
          "name": "to",
          "type": "address"
        },
        {
          "indexed": false,
          "internalType": "uint256",
          "name": "amount",
          "type": "uint256"
        }
      ],
      "name": "FundsWithdrawn",
      "type": "event"
    },
    {
      "anonymous": false,
      "inputs": [
        {
          "indexed": false,
          "internalType": "uint256",
          "name": "newMinStake",
          "type": "uint256"
        }
      ],
      "name": "MinStakeUpdated",
      "type": "event"
    },
    {
      "anonymous": false,
      "inputs": [
        {
          "indexed": true,
          "internalType": "address",
          "name": "previousOwner",
          "type": "address"
        },
        {
          "indexed": true,
          "internalType": "address",
          "name": "newOwner",
          "type": "address"
        }
      ],
      "name": "OwnershipTransferred",
      "type": "event"
    },
    {
      "anonymous": false,
      "inputs": [
        {
          "indexed": true,
          "internalType": "address",
          "name": "newSettler",
          "type": "address"
        }
      ],
      "name": "SettlerUpdated",
      "type": "event"
    },
    {
      "anonymous": false,
      "inputs": [
        {
          "indexed": true,
          "internalType": "uint256",
          "name": "signalId",
          "type": "uint256"
        },
        {
          "indexed": true,
          "internalType": "address",
          "name": "agent",
          "type": "address"
        },
        {
          "indexed": false,
          "internalType": "bytes32",
          "name": "signalHash",
          "type": "bytes32"
        },
        {
          "indexed": false,
          "internalType": "uint256",
          "name": "expiration",
          "type": "uint256"
        },
        {
          "indexed": false,
          "internalType": "uint256",
          "name": "stakeAmount",
          "type": "uint256"
        }
      ],
      "name": "SignalCommitted",
      "type": "event"
    },
    {
      "anonymous": false,
      "inputs": [
        {
          "indexed": true,
          "internalType": "uint256",
          "name": "signalId",
          "type": "uint256"
        }
      ],
      "name": "SignalExpired",
      "type": "event"
    },
    {
      "anonymous": false,
      "inputs": [
        {
          "indexed": true,
          "internalType": "uint256",
          "name": "signalId",
          "type": "uint256"
        },
        {
          "indexed": true,
          "internalType": "address",
          "name": "agent",
          "type": "address"
        },
        {
          "indexed": false,
          "internalType": "bool",
          "name": "accurate",
          "type": "bool"
        },
        {
          "indexed": false,
          "internalType": "int256",
          "name": "pnlBps",
          "type": "int256"
        }
      ],
      "name": "SignalSettled",
      "type": "event"
    },
    {
      "inputs": [
        {
          "internalType": "address",
          "name": "",
          "type": "address"
        },
        {
          "internalType": "uint256",
          "name": "",
          "type": "uint256"
        }
      ],
      "name": "agentSignals",
      "outputs": [
        {
          "internalType": "uint256",
          "name": "",
          "type": "uint256"
        }
      ],
      "stateMutability": "view",
      "type": "function"
    },
    {
      "inputs": [
        {
          "internalType": "bytes32",
          "name": "signalHash",
          "type": "bytes32"
        },
        {
          "internalType": "uint256",
          "name": "expiration",
          "type": "uint256"
        }
      ],
      "name": "commitSignal",
      "outputs": [
        {
          "internalType": "uint256",
          "name": "signalId",
          "type": "uint256"
        }
      ],
      "stateMutability": "payable",
      "type": "function"
    },
    {
      "inputs": [
        {
          "internalType": "address",
          "name": "agent",
          "type": "address"
        }
      ],
      "name": "getAgentSignalCount",
      "outputs": [
        {
          "internalType": "uint256",
          "name": "",
          "type": "uint256"
        }
      ],
      "stateMutability": "view",
      "type": "function"
    },
    {
      "inputs": [
        {
          "internalType": "address",
          "name": "agent",
          "type": "address"
        }
      ],
      "name": "getAgentSignalIds",
      "outputs": [
        {
          "internalType": "uint256[]",
          "name": "",
          "type": "uint256[]"
        }
      ],
      "stateMutability": "view",
      "type": "function"
    },
    {
      "inputs": [
        {
          "internalType": "uint256",
          "name": "signalId",
          "type": "uint256"
        }
      ],
      "name": "getSignal",
      "outputs": [
        {
          "components": [
            {
              "internalType": "bytes32",
              "name": "signalHash",
              "type": "bytes32"
            },
            {
              "internalType": "address",
              "name": "agent",
              "type": "address"
            },
            {
              "internalType": "uint256",
              "name": "expiration",
              "type": "uint256"
            },
            {
              "internalType": "uint256",
              "name": "committedAt",
              "type": "uint256"
            },
            {
              "internalType": "uint256",
              "name": "stakeAmount",
              "type": "uint256"
            },
            {
              "internalType": "enum SignalRegistry.SignalStatus",
              "name": "status",
              "type": "uint8"
            },
            {
              "internalType": "bool",
              "name": "accurate",
              "type": "bool"
            },
            {
              "internalType": "int256",
              "name": "pnlBps",
              "type": "int256"
            }
          ],
          "internalType": "struct SignalRegistry.Signal",
          "name": "",
          "type": "tuple"
        }
      ],
      "stateMutability": "view",
      "type": "function"
    },
    {
      "inputs": [
        {
          "internalType": "bytes32",
          "name": "",
          "type": "bytes32"
        }
      ],
      "name": "hashCommitted",
      "outputs": [
        {
          "internalType": "bool",
          "name": "",
          "type": "bool"
        }
      ],
      "stateMutability": "view",
      "type": "function"
    },
    {
      "inputs": [
        {
          "internalType": "uint256",
          "name": "signalId",
          "type": "uint256"
        }
      ],
      "name": "markExpired",
      "outputs": [],
      "stateMutability": "nonpayable",
      "type": "function"
    },
    {
      "inputs": [],
      "name": "minStake",
      "outputs": [
        {
          "internalType": "uint256",
          "name": "",
          "type": "uint256"
        }
      ],
      "stateMutability": "view",
      "type": "function"
    },
    {
      "inputs": [],
      "name": "nextSignalId",
      "outputs": [
        {
          "internalType": "uint256",
          "name": "",
          "type": "uint256"
        }
      ],
      "stateMutability": "view",
      "type": "function"
    },
    {
      "inputs": [],
      "name": "owner",
      "outputs": [
        {
          "internalType": "address",
          "name": "",
          "type": "address"
        }
      ],
      "stateMutability": "view",
      "type": "function"
    },
    {
      "inputs": [],
      "name": "renounceOwnership",
      "outputs": [],
      "stateMutability": "nonpayable",
      "type": "function"
    },
    {
      "inputs": [
        {
          "internalType": "uint256",
          "name": "newMinStake",
          "type": "uint256"
        }
      ],
      "name": "setMinStake",
      "outputs": [],
      "stateMutability": "nonpayable",
      "type": "function"
    },
    {
      "inputs": [
        {
          "internalType": "address",
          "name": "newSettler",
          "type": "address"
        }
      ],
      "name": "setSettler",
      "outputs": [],
      "stateMutability": "nonpayable",
      "type": "function"
    },
    {
      "inputs": [
        {
          "internalType": "uint256",
          "name": "signalId",
          "type": "uint256"
        },
        {
          "internalType": "bool",
          "name": "accurate",
          "type": "bool"
        },
        {
          "internalType": "int256",
          "name": "pnlBps",
          "type": "int256"
        }
      ],
      "name": "settleSignal",
      "outputs": [],
      "stateMutability": "nonpayable",
      "type": "function"
    },
    {
      "inputs": [],
      "name": "settler",
      "outputs": [
        {
          "internalType": "address",
          "name": "",
          "type": "address"
        }
      ],
      "stateMutability": "view",
      "type": "function"
    },
    {
      "inputs": [
        {
          "internalType": "uint256",
          "name": "",
          "type": "uint256"
        }
      ],
      "name": "signals",
      "outputs": [
        {
          "internalType": "bytes32",
          "name": "signalHash",
          "type": "bytes32"
        },
        {
          "internalType": "address",
          "name": "agent",
          "type": "address"
        },
        {
          "internalType": "uint256",
          "name": "expiration",
          "type": "uint256"
        },
        {
          "internalType": "uint256",
          "name": "committedAt",
          "type": "uint256"
        },
        {
          "internalType": "uint256",
          "name": "stakeAmount",
          "type": "uint256"
        },
        {
          "internalType": "enum SignalRegistry.SignalStatus",
          "name": "status",
          "type": "uint8"
        },
        {
          "internalType": "bool",
          "name": "accurate",
          "type": "bool"
        },
        {
          "internalType": "int256",
          "name": "pnlBps",
          "type": "int256"
        }
      ],
      "stateMutability": "view",
      "type": "function"
    },
    {
      "inputs": [
        {
          "internalType": "address",
          "name": "newOwner",
          "type": "address"
        }
      ],
      "name": "transferOwnership",
      "outputs": [],
      "stateMutability": "nonpayable",
      "type": "function"
    },
    {
      "inputs": [
        {
          "internalType": "address payable",
          "name": "to",
          "type": "address"
        },
        {
          "internalType": "uint256",
          "name": "amount",
          "type": "uint256"
        }
      ],
      "name": "withdrawFunds",
      "outputs": [],
      "stateMutability": "nonpayable",
      "type": "function"
    },
    {
      "stateMutability": "payable",
      "type": "receive"
    }
  ],
  "bytecode": "0x608060405234801561001057600080fd5b5060405161114d38038061114d83398101604081905261002f91610122565b826001600160a01b03811661005e57604051631e4fbdf760e01b81526000600482015260240160405180910390fd5b610067816100b6565b5060017f9b779b17422d0df92223018b32b4d1fa46e071723d6817e2486d003becc55f0055600580546001600160a01b0319166001600160a01b0393909316929092179091556006555061015e565b600080546001600160a01b038381166001600160a01b0319831681178455604051919092169283917f8be0079c531659141344cd1fd0a4f28419497f9722a3daafe3b4186f6b6457e09190a35050565b80516001600160a01b038116811461011d57600080fd5b919050565b60008060006060848603121561013757600080fd5b61014084610106565b925061014e60208501610106565b9150604084015190509250925092565b610fe08061016d6000396000f3fe60806040526004361061010d5760003560e01c80638da5cb5b11610095578063c107532911610064578063c107532914610377578063cb1488a014610397578063d8760006146103b7578063f2fde38b146103ca578063f791d651146103ea57600080fd5b80638da5cb5b146102d9578063a124a3c41461030b578063ab221a7614610341578063b0c3b8ef1461036157600080fd5b8063702ee490116100dc578063702ee49014610217578063715018a61461025757806377fd00c51461026c578063828e58e21461028c5780638c80fd90146102b957600080fd5b806307f19eba1461011957806327fac0ac1461013b578063375b3c0a1461017157806347c740cd1461019557600080fd5b3661011457005b600080fd5b34801561012557600080fd5b50610139610134366004610d37565b61040a565b005b34801561014757600080fd5b5061015b610156366004610d37565b61045c565b6040516101689190610d5b565b60405180910390f35b34801561017d57600080fd5b5061018760065481565b604051908152602001610168565b3480156101a157600080fd5b506102036101b0366004610d9f565b6002602081905260009182526040909120805460018201549282015460038301546004840154600585015460069095015493956001600160a01b03169492939192909160ff808316926101009004169088565b604051610168989796959493929190610df0565b34801561022357600080fd5b50610247610232366004610d9f565b60046020526000908152604090205460ff1681565b6040519015158152602001610168565b34801561026357600080fd5b506101396104c8565b34801561027857600080fd5b50610139610287366004610d9f565b6104dc565b34801561029857600080fd5b506102ac6102a7366004610d9f565b6105ce565b6040516101689190610e3f565b3480156102c557600080fd5b506101396102d4366004610d9f565b6106bb565b3480156102e557600080fd5b506000546001600160a01b03165b6040516001600160a01b039091168152602001610168565b34801561031757600080fd5b50610187610326366004610d37565b6001600160a01b031660009081526003602052604090205490565b34801561034d57600080fd5b506005546102f3906001600160a01b031681565b34801561036d57600080fd5b5061018760015481565b34801561038357600080fd5b50610139610392366004610ea9565b6106fe565b3480156103a357600080fd5b506101876103b2366004610ea9565b610802565b6101876103c5366004610ed5565b610833565b3480156103d657600080fd5b506101396103e5366004610d37565b610a5c565b3480156103f657600080fd5b50610139610405366004610ef7565b610a9a565b610412610c59565b600580546001600160a01b0319166001600160a01b0383169081179091556040517f1f53e003aaf46af23aeb50e85f438d6f0c33618ce44e3545f1ec030c79b1772990600090a250565b6001600160a01b0381166000908152600360209081526040918290208054835181840281018401909452808452606093928301828280156104bc57602002820191906000526020600020905b8154815260200190600101908083116104a8575b50505050509050919050565b6104d0610c59565b6104da6000610c86565b565b6000818152600260205260408120600381015490910361051757604051633e2baf4f60e01b8152600481018390526024015b60405180910390fd5b6000600582015460ff16600281111561053257610532610db8565b1461055d576005810154604051630cf4cfc160e41b815261050e91849160ff90911690600401610f34565b600281015461056e90610e10610f5e565b42116105905760405163fd924df560e01b81526004810183905260240161050e565b60058101805460ff1916600217905560405182907f7ade09f4b00892aa74c88a4941fee437794dc5793522cd335732b73863d8aa2d90600090a25050565b6040805161010081018252600080825260208201819052918101829052606081018290526080810182905260a0810182905260c0810182905260e08101919091526000828152600260208181526040928390208351610100810185528154815260018201546001600160a01b03169281019290925280830154938201939093526003830154606082015260048301546080820152600583015490929160a084019160ff169081111561068257610682610db8565b600281111561069357610693610db8565b81526005820154610100900460ff161515602082015260069091015460409091015292915050565b6106c3610c59565b60068190556040518181527f47ab46f2c8d4258304a2f5551c1cbdb6981be49631365d1ba7191288a73f39ef9060200160405180910390a150565b610706610c59565b61070e610cd6565b6000826001600160a01b03168260405160006040518083038185875af1925050503d806000811461075b576040519150601f19603f3d011682016040523d82523d6000602084013e610760565b606091505b50509050806107a35760405162461bcd60e51b815260206004820152600f60248201526e151c985b9cd9995c8819985a5b1959608a1b604482015260640161050e565b826001600160a01b03167feaff4b37086828766ad3268786972c0cd24259d4c87a80f9d3963a3c3d999b0d836040516107de91815260200190565b60405180910390a2506107fe6001600080516020610f8b83398151915255565b5050565b6003602052816000526040600020818154811061081e57600080fd5b90600052602060002001600091509150505481565b600061083d610cd6565b60065434101561086d576006546040516322df051360e11b8152346004820152602481019190915260440161050e565b60008381526004602052604090205460ff16156108a0576040516302eae85d60e51b81526004810184905260240161050e565b4282116108c957604051630515ce5560e41b81526004810183905242602482015260440161050e565b600180549060006108d983610f71565b909155506000848152600460208181526040808420805460ff1990811660019081179092558251610100810184528a8152338186019081528185018b81524260608401908152346080850190815260a085018b815260c086018c905260e086018c90528c8c526002998a905297909a2084518155925183870180546001600160a01b0319166001600160a01b039092169190911790559051828801555160038201559651958701959095559151600586018054979850949690949392169184908111156109a8576109a8610db8565b021790555060c082015160058201805461ff0019166101009215159290920291909117905560e09091015160069091015533600081815260036020908152604080832080546001810182559084529282902090920184905581518681529081018590523481830152905183917f18ad77192e984e9002e2c7493086f328249f71294d2cd0bd9bdbca3903b423ad919081900360600190a3610a566001600080516020610f8b83398151915255565b92915050565b610a64610c59565b6001600160a01b038116610a8e57604051631e4fbdf760e01b81526000600482015260240161050e565b610a9781610c86565b50565b6005546001600160a01b03163314610ac4576040516282b42960e81b815260040160405180910390fd5b610acc610cd6565b60008381526002602052604081206003810154909103610b0257604051633e2baf4f60e01b81526004810185905260240161050e565b6000600582015460ff166002811115610b1d57610b1d610db8565b14610b48576005810154604051630cf4cfc160e41b815261050e91869160ff90911690600401610f34565b6005810180546001851580156101000261ffff199093169290921717909155600682018390558390610b7e575060008160040154115b15610bee57600181015460048201546040516000926001600160a01b031691908381818185875af1925050503d8060008114610bd6576040519150601f19603f3d011682016040523d82523d6000602084013e610bdb565b606091505b5050905080610bec57600060048301555b505b6001810154604080518515158152602081018590526001600160a01b039092169186917f688ea562d5386dba6a90d9a0e761cc97a19017986971734442a951a609481812910160405180910390a350610c546001600080516020610f8b83398151915255565b505050565b6000546001600160a01b031633146104da5760405163118cdaa760e01b815233600482015260240161050e565b600080546001600160a01b038381166001600160a01b0319831681178455604051919092169283917f8be0079c531659141344cd1fd0a4f28419497f9722a3daafe3b4186f6b6457e09190a35050565b610cde610cf2565b6002600080516020610f8b83398151915255565b600080516020610f8b833981519152546002036104da57604051633ee5aeb560e01b815260040160405180910390fd5b6001600160a01b0381168114610a9757600080fd5b600060208284031215610d4957600080fd5b8135610d5481610d22565b9392505050565b6020808252825182820181905260009190848201906040850190845b81811015610d9357835183529284019291840191600101610d77565b50909695505050505050565b600060208284031215610db157600080fd5b5035919050565b634e487b7160e01b600052602160045260246000fd5b60038110610dec57634e487b7160e01b600052602160045260246000fd5b9052565b8881526001600160a01b03881660208201526040810187905260608101869052608081018590526101008101610e2960a0830186610dce565b92151560c082015260e001529695505050505050565b815181526020808301516001600160a01b03169082015260408083015190820152606080830151908201526080808301519082015260a080830151610100830191610e8c90840182610dce565b5060c0830151151560c083015260e083015160e083015292915050565b60008060408385031215610ebc57600080fd5b8235610ec781610d22565b946020939093013593505050565b60008060408385031215610ee857600080fd5b50508035926020909101359150565b600080600060608486031215610f0c57600080fd5b8335925060208401358015158114610f2357600080fd5b929592945050506040919091013590565b82815260408101610d546020830184610dce565b634e487b7160e01b600052601160045260246000fd5b80820180821115610a5657610a56610f48565b600060018201610f8357610f83610f48565b506001019056fe9b779b17422d0df92223018b32b4d1fa46e071723d6817e2486d003becc55f00a2646970667358221220ccf14736e45b8b7916aacd058ff3df6349042c2852db676560ddb415735de4c864736f6c63430008180033",
  "linkReferences": {},
  "deployedLinkReferences": {}
}