{
  "_format": "hh-sol-artifact-1",
  "contractName": "ClientAgentVault",
  "sourceName": "contracts/ClientAgentVault.sol",
  "abi": [
    {
      "inputs": [
        {
          "internalType": "address",
          "name": "initialOwner",
          "type": "address"
        },
        {
          "internalType": "address",
          "name": "initialAgent",
          "type": "address"
        },
        {
          "internalType": "address",
          "name": "initialOperator",
          "type": "address"
        }
      ],
      "stateMutability": "nonpayable",
      "type": "constructor"
    },
    {
      "inputs": [
        {
          "internalType": "uint256",
          "name": "attempted",
          "type": "uint256"
        },
        {
          "internalType": "uint256",
          "name": "remaining",
          "type": "uint256"
        }
      ],
      "name": "BudgetExceeded",
      "type": "error"
    },
    {
      "inputs": [
        {
          "internalType": "address",
          "name": "target",
          "type": "address"
        },
        {
          "internalType": "bytes",
          "name": "returnData",
          "type": "bytes"
        }
      ],
      "name": "CallFailed",
      "type": "error"
    },
    {
      "inputs": [],
      "name": "InvalidRule",
      "type": "error"
    },
    {
      "inputs": [
        {
          "internalType": "address",
          "name": "owner",
          "type": "address"
        }
      ],
      "name": "OwnableInvalidOwner",
      "type": "error"
    },
    {
      "inputs": [
        {
          "internalType": "address",
          "name": "account",
          "type": "address"
        }
      ],
      "name": "OwnableUnauthorizedAccount",
      "type": "error"
    },
    {
      "inputs": [],
      "name": "ReentrancyGuardReentrantCall",
      "type": "error"
    },
    {
      "inputs": [
        {
          "internalType": "address",
          "name": "target",
          "type": "address"
        }
      ],
      "name": "TargetNotWhitelisted",
      "type": "error"
    },
    {
      "inputs": [],
      "name": "Unauthorized",
      "type": "error"
    },
    {
      "anonymous": false,
      "inputs": [
        {
          "indexed": true,
          "internalType": "address",
          "name": "newAgent",
          "type": "address"
        }
      ],
      "name": "AgentUpdated",
      "type": "event"
    },
    {
      "anonymous": false,
      "inputs": [
        {
          "indexed": false,
          "internalType": "uint256",
          "name": "callCount",
          "type": "uint256"
        }
      ],
      "name": "BatchExecuted",
      "type": "event"
    },
    {
      "anonymous": false,
      "inputs": [
        {
          "indexed": true,
          "internalType": "address",
          "name": "target",
          "type": "address"
        },
        {
          "indexed": false,
          "internalType": "uint256",
          "name": "value",
          "type": "uint256"
        },
        {
          "indexed": false,
          "internalType": "bytes",
          "name": "data",
          "type": "bytes"
        },
        {
          "indexed": false,
          "internalType": "bytes",
          "name": "returnData",
          "type": "bytes"
        }
      ],
      "name": "CallExecuted",
      "type": "event"
    },
    {
      "anonymous": false,
      "inputs": [
        {
          "indexed": true,
          "internalType": "address",
          "name": "from",
          "type": "address"
        },
        {
          "indexed": false,
          "internalType": "uint256",
          "name": "amount",
          "type": "uint256"
        }
      ],
      "name": "Deposited",
      "type": "event"
    },
    {
      "anonymous": false,
      "inputs": [
        {
          "indexed": true,
          "internalType": "address",
          "name": "to",
          "type": "address"
        },
        {
          "indexed": false,
          "internalType": "uint256",
          "name": "amount",
          "type": "uint256"
        }
      ],
      "name": "FundsWithdrawn",
      "type": "event"
    },
    {
      "anonymous": false,
      "inputs": [
        {
          "indexed": true,
          "internalType": "address",
          "name": "newOperator",
          "type": "address"
        }
      ],
      "name": "OperatorUpdated",
      "type": "event"
    },
    {
      "anonymous": false,
      "inputs": [
        {
          "indexed": true,
          "internalType": "address",
          "name": "previousOwner",
          "type": "address"
        },
        {
          "indexed": true,
          "internalType": "address",
          "name": "newOwner",
          "type": "address"
        }
      ],
      "name": "OwnershipTransferred",
      "type": "event"
    },
    {
      "anonymous": false,
      "inputs": [
        {
          "indexed": false,
          "internalType": "uint256",
          "name": "ruleCount",
          "type": "uint256"
        }
      ],
      "name": "RulesConfigured",
      "type": "event"
    },
    {
      "inputs": [],
      "name": "agent",
      "outputs": [
        {
          "internalType": "address",
          "name": "",
          "type": "address"
        }
      ],
      "stateMutability": "view",
      "type": "function"
    },
    {
      "inputs": [
        {
          "internalType": "uint256[]",
          "name": "timeWindows",
          "type": "uint256[]"
        },
        {
          "internalType": "uint256[]",
          "name": "budgets",
          "type": "uint256[]"
        },
        {
          "internalType": "uint256[]",
          "name": "windowStartTimes",
          "type": "uint256[]"
        },
        {
          "internalType": "address[][]",
          "name": "targetContractArrays",
          "type": "address[][]"
        }
      ],
      "name": "configureSpendingRules",
      "outputs": [],
      "stateMutability": "nonpayable",
      "type": "function"
    },
    {
      "inputs": [
        {
          "internalType": "address",
          "name": "target",
          "type": "address"
        },
        {
          "internalType": "uint256",
          "name": "value",
          "type": "uint256"
        },
        {
          "internalType": "bytes",
          "name": "data",
          "type": "bytes"
        }
      ],
      "name": "execute",
      "outputs": [
        {
          "internalType": "bytes",
          "name": "returnData",
          "type": "bytes"
        }
      ],
      "stateMutability": "nonpayable",
      "type": "function"
    },
    {
      "inputs": [
        {
          "components": [
            {
              "internalType": "address",
              "name": "target",
              "type": "address"
            },
            {
              "internalType": "uint256",
              "name": "value",
              "type": "uint256"
            },
            {
              "internalType": "bytes",
              "name": "data",
              "type": "bytes"
            }
          ],
          "internalType": "struct ClientAgentVault.CallRequest[]",
          "name": "calls",
          "type": "tuple[]"
        }
      ],
      "name": "executeBatch",
      "outputs": [],
      "stateMutability": "nonpayable",
      "type": "function"
    },
    {
      "inputs": [],
      "name": "getBalance",
      "outputs": [
        {
          "internalType": "uint256",
          "name": "",
          "type": "uint256"
        }
      ],
      "stateMutability": "view",
      "type": "function"
    },
    {
      "inputs": [
        {
          "internalType": "uint256",
          "name": "ruleIndex",
          "type": "uint256"
        }
      ],
      "name": "getRemainingBudget",
      "outputs": [
        {
          "internalType": "uint256",
          "name": "",
          "type": "uint256"
        }
      ],
      "stateMutability": "view",
      "type": "function"
    },
    {
      "inputs": [],
      "name": "getRuleCount",
      "outputs": [
        {
          "internalType": "uint256",
          "name": "",
          "type": "uint256"
        }
      ],
      "stateMutability": "view",
      "type": "function"
    },
    {
      "inputs": [],
      "name": "operator",
      "outputs": [
        {
          "internalType": "address",
          "name": "",
          "type": "address"
        }
      ],
      "stateMutability": "view",
      "type": "function"
    },
    {
      "inputs": [],
      "name": "owner",
      "outputs": [
        {
          "internalType": "address",
          "name": "",
          "type": "address"
        }
      ],
      "stateMutability": "view",
      "type": "function"
    },
    {
      "inputs": [],
      "name": "renounceOwnership",
      "outputs": [],
      "stateMutability": "nonpayable",
      "type": "function"
    },
    {
      "inputs": [
        {
          "internalType": "address",
          "name": "newAgent",
          "type": "address"
        }
      ],
      "name": "setAgent",
      "outputs": [],
      "stateMutability": "nonpayable",
      "type": "function"
    },
    {
      "inputs": [
        {
          "internalType": "address",
          "name": "newOperator",
          "type": "address"
        }
      ],
      "name": "setOperator",
      "outputs": [],
      "stateMutability": "nonpayable",
      "type": "function"
    },
    {
      "inputs": [
        {
          "internalType": "uint256",
          "name": "",
          "type": "uint256"
        }
      ],
      "name": "spendingRules",
      "outputs": [
        {
          "internalType": "uint256",
          "name": "timeWindow",
          "type": "uint256"
        },
        {
          "internalType": "uint256",
          "name": "budget",
          "type": "uint256"
        },
        {
          "internalType": "uint256",
          "name": "windowStartTime",
          "type": "uint256"
        },
        {
          "internalType": "uint256",
          "name": "spentInWindow",
          "type": "uint256"
        }
      ],
      "stateMutability": "view",
      "type": "function"
    },
    {
      "inputs": [],
      "name": "totalDeposited",
      "outputs": [
        {
          "internalType": "uint256",
          "name": "",
          "type": "uint256"
        }
      ],
      "stateMutability": "view",
      "type": "function"
    },
    {
      "inputs": [],
      "name": "totalSpent",
      "outputs": [
        {
          "internalType": "uint256",
          "name": "",
          "type": "uint256"
        }
      ],
      "stateMutability": "view",
      "type": "function"
    },
    {
      "inputs": [
        {
          "internalType": "address",
          "name": "newOwner",
          "type": "address"
        }
      ],
      "name": "transferOwnership",
      "outputs": [],
      "stateMutability": "nonpayable",
      "type": "function"
    },
    {
      "inputs": [
        {
          "internalType": "address payable",
          "name": "to",
          "type": "address"
        },
        {
          "internalType": "uint256",
          "name": "amount",
          "type": "uint256"
        }
      ],
      "name": "withdraw",
      "outputs": [],
      "stateMutability": "nonpayable",
      "type": "function"
    },
    {
      "stateMutability": "payable",
      "type": "receive"
    }
  ],
  "bytecode": "0x60806040523480156200001157600080fd5b50604051620016b4380380620016b4833981016040819052620000349162000134565b826001600160a01b0381166200006457604051631e4fbdf760e01b81526000600482015260240160405180910390fd5b6200006f81620000c7565b5060017f9b779b17422d0df92223018b32b4d1fa46e071723d6817e2486d003becc55f0055600180546001600160a01b039384166001600160a01b03199182161790915560028054929093169116179055506200017e565b600080546001600160a01b038381166001600160a01b0319831681178455604051919092169283917f8be0079c531659141344cd1fd0a4f28419497f9722a3daafe3b4186f6b6457e09190a35050565b80516001600160a01b03811681146200012f57600080fd5b919050565b6000806000606084860312156200014a57600080fd5b620001558462000117565b9250620001656020850162000117565b9150620001756040850162000117565b90509250925092565b611526806200018e6000396000f3fe6080604052600436106101025760003560e01c8063b5b9a51911610095578063f2fde38b11610064578063f2fde38b1461030b578063f3fef3a31461032b578063f5ff5c761461034b578063fb346eab1461036b578063ff50abdc1461038157600080fd5b8063b5b9a5191461025e578063b61d27f61461029e578063bcf685ed146102cb578063efaa79b1146102eb57600080fd5b8063715018a6116100d1578063715018a6146101eb578063718f8794146102005780638da5cb5b14610220578063b3ab15fb1461023e57600080fd5b806312065fe01461015a57806334fcd5be1461017c578063570ca7351461019e5780635c3ca910146101d657600080fd5b3661015557346004600082825461011991906110af565b909155505060405134815233907f2da466a7b24304f47e87fa2e1e5a81b9831ce54fec19055ce277ca2f39ba42c49060200160405180910390a2005b600080fd5b34801561016657600080fd5b50475b6040519081526020015b60405180910390f35b34801561018857600080fd5b5061019c610197366004611114565b610397565b005b3480156101aa57600080fd5b506002546101be906001600160a01b031681565b6040516001600160a01b039091168152602001610173565b3480156101e257600080fd5b50600354610169565b3480156101f757600080fd5b5061019c6106fa565b34801561020c57600080fd5b5061019c61021b366004611156565b61070e565b34801561022c57600080fd5b506000546001600160a01b03166101be565b34801561024a57600080fd5b5061019c61025936600461122f565b61098a565b34801561026a57600080fd5b5061027e61027936600461124c565b6109dc565b604080519485526020850193909352918301526060820152608001610173565b3480156102aa57600080fd5b506102be6102b9366004611265565b610a16565b6040516101739190611334565b3480156102d757600080fd5b5061019c6102e636600461122f565b610b5b565b3480156102f757600080fd5b5061016961030636600461124c565b610bad565b34801561031757600080fd5b5061019c61032636600461122f565b610c28565b34801561033757600080fd5b5061019c610346366004611347565b610c66565b34801561035757600080fd5b506001546101be906001600160a01b031681565b34801561037757600080fd5b5061016960055481565b34801561038d57600080fd5b5061016960045481565b6001546001600160a01b031633146103c1576040516282b42960e81b815260040160405180910390fd5b6103c9610d66565b60005b8181101561043e576104368383838181106103e9576103e9611373565b90506020028101906103fb9190611389565b61040990602081019061122f565b84848481811061041b5761041b611373565b905060200281019061042d9190611389565b60200135610d82565b6001016103cc565b5060005b818110156106ab5760008084848481811061045f5761045f611373565b90506020028101906104719190611389565b61047f90602081019061122f565b6001600160a01b031685858581811061049a5761049a611373565b90506020028101906104ac9190611389565b602001358686868181106104c2576104c2611373565b90506020028101906104d49190611389565b6104e29060408101906113a9565b6040516104f09291906113f0565b60006040518083038185875af1925050503d806000811461052d576040519150601f19603f3d011682016040523d82523d6000602084013e610532565b606091505b5091509150816105935784848481811061054e5761054e611373565b90506020028101906105609190611389565b61056e90602081019061122f565b81604051636c544f3360e01b815260040161058a929190611400565b60405180910390fd5b8484848181106105a5576105a5611373565b90506020028101906105b79190611389565b60200135600560008282546105cc91906110af565b9091555085905084848181106105e4576105e4611373565b90506020028101906105f69190611389565b61060490602081019061122f565b6001600160a01b03167ff14109828d5d815638dc9502c935e53577ad503b62f45ab30bc6ff401e954acd86868681811061064057610640611373565b90506020028101906106529190611389565b6020013587878781811061066857610668611373565b905060200281019061067a9190611389565b6106889060408101906113a9565b856040516106999493929190611424565b60405180910390a25050600101610442565b506040518181527fe9cc9bbe7de1cbb097a6357ca3182909488efe8d793e25665befc064a02d10a79060200160405180910390a16106f660016000805160206114d183398151915255565b5050565b610702610efb565b61070c6000610f28565b565b6002546001600160a01b0316331480159061073457506000546001600160a01b03163314155b15610751576040516282b42960e81b815260040160405180910390fd5b868514801561075f57508483145b801561076a57508281145b6107ae5760405162461bcd60e51b8152602060048201526015602482015274082e4e4c2f240d8cadccee8d040dad2e6dac2e8c6d605b1b604482015260640161058a565b6107ba60036000610fa8565b60005b8781101561094c578888828181106107d7576107d7611373565b905060200201356000148061080457508686828181106107f9576107f9611373565b905060200201356000145b15610822576040516391c7d22b60e01b815260040160405180910390fd5b60036040518060a001604052808b8b8581811061084157610841611373565b90506020020135815260200189898581811061085f5761085f611373565b90506020020135815260200187878581811061087d5761087d611373565b905060200201358152602001600081526020018585858181106108a2576108a2611373565b90506020028101906108b49190611473565b80806020026020016040519081016040528093929190818152602001838360200280828437600092018290525093909452505083546001818101865594825260209182902084516005909202019081558184015194810194909455604083015160028501556060830151600385015560808301518051939493610941935060048501929190910190610fc9565b5050506001016107bd565b506040518781527f991f8cde6942af8f254dc31551b21ff8620c4291cb7e6aaf802643ecdfd9a3739060200160405180910390a15050505050505050565b610992610efb565b600280546001600160a01b0319166001600160a01b0383169081179091556040517fb3b3f5f64ab192e4b5fefde1f51ce9733bbdcf831951543b325aebd49cc27ec490600090a250565b600381815481106109ec57600080fd5b60009182526020909120600590910201805460018201546002830154600390930154919350919084565b6001546060906001600160a01b03163314610a43576040516282b42960e81b815260040160405180910390fd5b610a4b610d66565b610a558585610d82565b6000856001600160a01b0316858585604051610a729291906113f0565b60006040518083038185875af1925050503d8060008114610aaf576040519150601f19603f3d011682016040523d82523d6000602084013e610ab4565b606091505b509250905080610adb578582604051636c544f3360e01b815260040161058a929190611400565b8460056000828254610aed91906110af565b92505081905550856001600160a01b03167ff14109828d5d815638dc9502c935e53577ad503b62f45ab30bc6ff401e954acd86868686604051610b339493929190611424565b60405180910390a250610b5360016000805160206114d183398151915255565b949350505050565b610b63610efb565b600180546001600160a01b0319166001600160a01b0383169081179091556040517fe9f337c154e801e0f86b6bc993df9a2cd349bb210385592c7a52e38ea726334f90600090a250565b60008060038381548110610bc357610bc3611373565b9060005260206000209060050201905080600001548160020154610be791906110af565b4210610bf7576001015492915050565b8060030154816001015411610c0d576000610c21565b80600301548160010154610c2191906114bd565b9392505050565b610c30610efb565b6001600160a01b038116610c5a57604051631e4fbdf760e01b81526000600482015260240161058a565b610c6381610f28565b50565b610c6e610efb565b610c76610d66565b6000826001600160a01b03168260405160006040518083038185875af1925050503d8060008114610cc3576040519150601f19603f3d011682016040523d82523d6000602084013e610cc8565b606091505b5050905080610d0b5760405162461bcd60e51b815260206004820152600f60248201526e151c985b9cd9995c8819985a5b1959608a1b604482015260640161058a565b826001600160a01b03167feaff4b37086828766ad3268786972c0cd24259d4c87a80f9d3963a3c3d999b0d83604051610d4691815260200190565b60405180910390a2506106f660016000805160206114d183398151915255565b610d6e610f78565b60026000805160206114d183398151915255565b80600003610d8e575050565b60005b600354811015610ece57600060038281548110610db057610db0611373565b906000526020600020906005020190506000805b6004830154811015610e1a57856001600160a01b0316836004018281548110610def57610def611373565b6000918252602090912001546001600160a01b031603610e125760019150610e1a565b600101610dc4565b5080610e27575050610ec6565b81546002830154610e3891906110af565b4210610e4c57426002830155600060038301555b60008260030154836001015411610e64576000610e78565b82600301548360010154610e7891906114bd565b905080851115610ea55760405163029a8b5f60e41b8152600481018690526024810182905260440161058a565b84836003016000828254610eb991906110af565b9091555050505050505050565b600101610d91565b50600354156106f6576040516347ccabe760e01b81526001600160a01b038316600482015260240161058a565b6000546001600160a01b0316331461070c5760405163118cdaa760e01b815233600482015260240161058a565b600080546001600160a01b038381166001600160a01b0319831681178455604051919092169283917f8be0079c531659141344cd1fd0a4f28419497f9722a3daafe3b4186f6b6457e09190a35050565b6000805160206114d18339815191525460020361070c57604051633ee5aeb560e01b815260040160405180910390fd5b5080546000825560050290600052602060002090810190610c63919061102e565b82805482825590600052602060002090810192821561101e579160200282015b8281111561101e57825182546001600160a01b0319166001600160a01b03909116178255602090920191600190910190610fe9565b5061102a929150611066565b5090565b8082111561102a57600080825560018201819055600282018190556003820181905561105d600483018261107b565b5060050161102e565b5b8082111561102a5760008155600101611067565b5080546000825590600052602060002090810190610c639190611066565b634e487b7160e01b600052601160045260246000fd5b808201808211156110c2576110c2611099565b92915050565b60008083601f8401126110da57600080fd5b50813567ffffffffffffffff8111156110f257600080fd5b6020830191508360208260051b850101111561110d57600080fd5b9250929050565b6000806020838503121561112757600080fd5b823567ffffffffffffffff81111561113e57600080fd5b61114a858286016110c8565b90969095509350505050565b6000806000806000806000806080898b03121561117257600080fd5b883567ffffffffffffffff8082111561118a57600080fd5b6111968c838d016110c8565b909a50985060208b01359150808211156111af57600080fd5b6111bb8c838d016110c8565b909850965060408b01359150808211156111d457600080fd5b6111e08c838d016110c8565b909650945060608b01359150808211156111f957600080fd5b506112068b828c016110c8565b999c989b5096995094979396929594505050565b6001600160a01b0381168114610c6357600080fd5b60006020828403121561124157600080fd5b8135610c218161121a565b60006020828403121561125e57600080fd5b5035919050565b6000806000806060858703121561127b57600080fd5b84356112868161121a565b935060208501359250604085013567ffffffffffffffff808211156112aa57600080fd5b818701915087601f8301126112be57600080fd5b8135818111156112cd57600080fd5b8860208285010111156112df57600080fd5b95989497505060200194505050565b6000815180845260005b81811015611314576020818501810151868301820152016112f8565b506000602082860101526020601f19601f83011685010191505092915050565b602081526000610c2160208301846112ee565b6000806040838503121561135a57600080fd5b82356113658161121a565b946020939093013593505050565b634e487b7160e01b600052603260045260246000fd5b60008235605e1983360301811261139f57600080fd5b9190910192915050565b6000808335601e198436030181126113c057600080fd5b83018035915067ffffffffffffffff8211156113db57600080fd5b60200191503681900382131561110d57600080fd5b8183823760009101908152919050565b6001600160a01b0383168152604060208201819052600090610b53908301846112ee565b84815260606020820152826060820152828460808301376000608084830101526000601f19601f8501168201608083820301604084015261146860808201856112ee565b979650505050505050565b6000808335601e1984360301811261148a57600080fd5b83018035915067ffffffffffffffff8211156114a557600080fd5b6020019150600581901b360382131561110d57600080fd5b818103818111156110c2576110c261109956fe9b779b17422d0df92223018b32b4d1fa46e071723d6817e2486d003becc55f00a2646970667358221220195f0366449b1c36d0b230203f15058c0115f87eff7a0f73a52e015223d6450964736f6c63430008180033",
  "linkReferences": {},
  "deployedLinkReferences": {}
}