{
  "_format": "hh-sol-artifact-1",
  "contractName": "ClientAgentVault",
  "sourceName": "contracts/ClientAgentVault.sol",
  "abi": [
    {
      "inputs": [
        {
          "internalType": "address",
          "name": "initialOwner",
          "type": "address"
        },
        {
          "internalType": "address",
          "name": "initialAgent",
          "type": "address"
        },
        {
          "internalType": "address",
          "name": "initialOperator",
          "type": "address"
        }
      ],
      "stateMutability": "nonpayable",
      "type": "constructor"
    },
    {
      "inputs": [
        {
          "internalType": "uint256",
          "name": "attempted",
          "type": "uint256"
        },
        {
          "internalType": "uint256",
          "name": "remaining",
          "type": "uint256"
        }
      ],
      "name": "BudgetExceeded",
      "type": "error"
    },
    {
      "inputs": [
        {
          "internalType": "address",
          "name": "target",
          "type": "address"
        },
        {
          "internalType": "bytes",
          "name": "returnData",
          "type": "bytes"
        }
      ],
      "name": "CallFailed",
      "type": "error"
    },
    {
      "inputs": [],
      "name": "InvalidRule",
      "type": "error"
    },
    {
      "inputs": [
        {
          "internalType": "address",
          "name": "owner",
          "type": "address"
        }
      ],
      "name": "OwnableInvalidOwner",
      "type": "error"
    },
    {
      "inputs": [
        {
          "internalType": "address",
          "name": "account",
          "type": "address"
        }
      ],
      "name": "OwnableUnauthorizedAccount",
      "type": "error"
    },
    {
      "inputs": [],
      "name": "ReentrancyGuardReentrantCall",
      "type": "error"
    },
    {
      "inputs": [
        {
          "internalType": "address",
          "name": "target",
          "type": "address"
        }
      ],
      "name": "TargetNotWhitelisted",
      "type": "error"
    },
    {
      "inputs": [],
      "name": "Unauthorized",
      "type": "error"
    },
    {
      "anonymous": false,
      "inputs": [
        {
          "indexed": true,
          "internalType": "address",
          "name": "newAgent",
          "type": "address"
        }
      ],
      "name": "AgentUpdated",
      "type": "event"
    },
    {
      "anonymous": false,
      "inputs": [
        {
          "indexed": false,
          "internalType": "uint256",
          "name": "callCount",
          "type": "uint256"
        }
      ],
      "name": "BatchExecuted",
      "type": "event"
    },
    {
      "anonymous": false,
      "inputs": [
        {
          "indexed": true,
          "internalType": "address",
          "name": "target",
          "type": "address"
        },
        {
          "indexed": false,
          "internalType": "uint256",
          "name": "value",
          "type": "uint256"
        },
        {
          "indexed": false,
          "internalType": "bytes",
          "name": "data",
          "type": "bytes"
        },
        {
          "indexed": false,
          "internalType": "bytes",
          "name": "returnData",
          "type": "bytes"
        }
      ],
      "name": "CallExecuted",
      "type": "event"
    },
    {
      "anonymous": false,
      "inputs": [
        {
          "indexed": true,
          "internalType": "address",
          "name": "from",
          "type": "address"
        },
        {
          "indexed": false,
          "internalType": "uint256",
          "name": "amount",
          "type": "uint256"
        }
      ],
      "name": "Deposited",
      "type": "event"
    },
    {
      "anonymous": false,
      "inputs": [
        {
          "indexed": true,
          "internalType": "address",
          "name": "to",
          "type": "address"
        },
        {
          "indexed": false,
          "internalType": "uint256",
          "name": "amount",
          "type": "uint256"
        }
      ],
      "name": "FundsWithdrawn",
      "type": "event"
    },
    {
      "anonymous": false,
      "inputs": [
        {
          "indexed": true,
          "internalType": "address",
          "name": "newOperator",
          "type": "address"
        }
      ],
      "name": "OperatorUpdated",
      "type": "event"
    },
    {
      "anonymous": false,
      "inputs": [
        {
          "indexed": true,
          "internalType": "address",
          "name": "previousOwner",
          "type": "address"
        },
        {
          "indexed": true,
          "internalType": "address",
          "name": "newOwner",
          "type": "address"
        }
      ],
      "name": "OwnershipTransferred",
      "type": "event"
    },
    {
      "anonymous": false,
      "inputs": [
        {
          "indexed": false,
          "internalType": "uint256",
          "name": "ruleCount",
          "type": "uint256"
        }
      ],
      "name": "RulesConfigured",
      "type": "event"
    },
    {
      "inputs": [],
      "name": "agent",
      "outputs": [
        {
          "internalType": "address",
          "name": "",
          "type": "address"
        }
      ],
      "stateMutability": "view",
      "type": "function"
    },
    {
      "inputs": [
        {
          "internalType": "uint256[]",
          "name": "timeWindows",
          "type": "uint256[]"
        },
        {
          "internalType": "uint256[]",
          "name": "budgets",
          "type": "uint256[]"
        },
        {
          "internalType": "uint256[]",
          "name": "windowStartTimes",
          "type": "uint256[]"
        },
        {
          "internalType": "address[][]",
          "name": "targetContractArrays",
          "type": "address[][]"
        }
      ],
      "name": "configureSpendingRules",
      "outputs": [],
      "stateMutability": "nonpayable",
      "type": "function"
    },
    {
      "inputs": [
        {
          "internalType": "address",
          "name": "target",
          "type": "address"
        },
        {
          "internalType": "uint256",
          "name": "value",
          "type": "uint256"
        },
        {
          "internalType": "bytes",
          "name": "data",
          "type": "bytes"
        }
      ],
      "name": "execute",
      "outputs": [
        {
          "internalType": "bytes",
          "name": "returnData",
          "type": "bytes"
        }
      ],
      "stateMutability": "nonpayable",
      "type": "function"
    },
    {
      "inputs": [
        {
          "components": [
            {
              "internalType": "address",
              "name": "target",
              "type": "address"
            },
            {
              "internalType": "uint256",
              "name": "value",
              "type": "uint256"
            },
            {
              "internalType": "bytes",
              "name": "data",
              "type": "bytes"
            }
          ],
          "internalType": "struct ClientAgentVault.CallRequest[]",
          "name": "calls",
          "type": "tuple[]"
        }
      ],
      "name": "executeBatch",
      "outputs": [],
      "stateMutability": "nonpayable",
      "type": "function"
    },
    {
      "inputs": [],
      "name": "getBalance",
      "outputs": [
        {
          "internalType": "uint256",
          "name": "",
          "type": "uint256"
        }
      ],
      "stateMutability": "view",
      "type": "function"
    },
    {
      "inputs": [
        {
          "internalType": "uint256",
          "name": "ruleIndex",
          "type": "uint256"
        }
      ],
      "name": "getRemainingBudget",
      "outputs": [
        {
          "internalType": "uint256",
          "name": "",
          "type": "uint256"
        }
      ],
      "stateMutability": "view",
      "type": "function"
    },
    {
      "inputs": [],
      "name": "getRuleCount",
      "outputs": [
        {
          "internalType": "uint256",
          "name": "",
          "type": "uint256"
        }
      ],
      "stateMutability": "view",
      "type": "function"
    },
    {
      "inputs": [],
      "name": "operator",
      "outputs": [
        {
          "internalType": "address",
          "name": "",
          "type": "address"
        }
      ],
      "stateMutability": "view",
      "type": "function"
    },
    {
      "inputs": [],
      "name": "owner",
      "outputs": [
        {
          "internalType": "address",
          "name": "",
          "type": "address"
        }
      ],
      "stateMutability": "view",
      "type": "function"
    },
    {
      "inputs": [],
      "name": "renounceOwnership",
      "outputs": [],
      "stateMutability": "nonpayable",
      "type": "function"
    },
    {
      "inputs": [
        {
          "internalType": "address",
          "name": "newAgent",
          "type": "address"
        }
      ],
      "name": "setAgent",
      "outputs": [],
      "stateMutability": "nonpayable",
      "type": "function"
    },
    {
      "inputs": [
        {
          "internalType": "address",
          "name": "newOperator",
          "type": "address"
        }
      ],
      "name": "setOperator",
      "outputs": [],
      "stateMutability": "nonpayable",
      "type": "function"
    },
    {
      "inputs": [
        {
          "internalType": "uint256",
          "name": "",
          "type": "uint256"
        }
      ],
      "name": "spendingRules",
      "outputs": [
        {
          "internalType": "uint256",
          "name": "timeWindow",
          "type": "uint256"
        },
        {
          "internalType": "uint256",
          "name": "budget",
          "type": "uint256"
        },
        {
          "internalType": "uint256",
          "name": "windowStartTime",
          "type": "uint256"
        },
        {
          "internalType": "uint256",
          "name": "spentInWindow",
          "type": "uint256"
        }
      ],
      "stateMutability": "view",
      "type": "function"
    },
    {
      "inputs": [],
      "name": "totalDeposited",
      "outputs": [
        {
          "internalType": "uint256",
          "name": "",
          "type": "uint256"
        }
      ],
      "stateMutability": "view",
      "type": "function"
    },
    {
      "inputs": [],
      "name": "totalSpent",
      "outputs": [
        {
          "internalType": "uint256",
          "name": "",
          "type": "uint256"
        }
      ],
      "stateMutability": "view",
      "type": "function"
    },
    {
      "inputs": [
        {
          "internalType": "address",
          "name": "newOwner",
          "type": "address"
        }
      ],
      "name": "transferOwnership",
      "outputs": [],
      "stateMutability": "nonpayable",
      "type": "function"
    },
    {
      "inputs": [
        {
          "internalType": "address payable",
          "name": "to",
          "type": "address"
        },
        {
          "internalType": "uint256",
          "name": "amount",
          "type": "uint256"
        }
      ],
      "name": "withdraw",
      "outputs": [],
      "stateMutability": "nonpayable",
      "type": "function"
    },
    {
      "stateMutability": "payable",
      "type": "receive"
    }
  ],
  "bytecode": "0x608060405234801562000010575f80fd5b506040516200162038038062001620833981016040819052620000339162000130565b826001600160a01b0381166200006257604051631e4fbdf760e01b81525f600482015260240160405180910390fd5b6200006d81620000c5565b5060017f9b779b17422d0df92223018b32b4d1fa46e071723d6817e2486d003becc55f0055600180546001600160a01b039384166001600160a01b031991821617909155600280549290931691161790555062000177565b5f80546001600160a01b038381166001600160a01b0319831681178455604051919092169283917f8be0079c531659141344cd1fd0a4f28419497f9722a3daafe3b4186f6b6457e09190a35050565b80516001600160a01b03811681146200012b575f80fd5b919050565b5f805f6060848603121562000143575f80fd5b6200014e8462000114565b92506200015e6020850162000114565b91506200016e6040850162000114565b90509250925092565b61149b80620001855f395ff3fe6080604052600436106100fd575f3560e01c8063b5b9a51911610092578063f2fde38b11610062578063f2fde38b146102f7578063f3fef3a314610316578063f5ff5c7614610335578063fb346eab14610354578063ff50abdc14610369575f80fd5b8063b5b9a5191461024e578063b61d27f61461028d578063bcf685ed146102b9578063efaa79b1146102d8575f80fd5b8063715018a6116100cd578063715018a6146101e0578063718f8794146101f45780638da5cb5b14610213578063b3ab15fb1461022f575f80fd5b806312065fe01461015357806334fcd5be14610174578063570ca735146101955780635c3ca910146101cc575f80fd5b3661014f573460045f8282546101139190611056565b909155505060405134815233907f2da466a7b24304f47e87fa2e1e5a81b9831ce54fec19055ce277ca2f39ba42c49060200160405180910390a2005b5f80fd5b34801561015e575f80fd5b50475b6040519081526020015b60405180910390f35b34801561017f575f80fd5b5061019361018e3660046110b7565b61037e565b005b3480156101a0575f80fd5b506002546101b4906001600160a01b031681565b6040516001600160a01b03909116815260200161016b565b3480156101d7575f80fd5b50600354610161565b3480156101eb575f80fd5b506101936106d9565b3480156101ff575f80fd5b5061019361020e3660046110f6565b6106ec565b34801561021e575f80fd5b505f546001600160a01b03166101b4565b34801561023a575f80fd5b506101936102493660046111c5565b610961565b348015610259575f80fd5b5061026d6102683660046111e0565b6109b2565b60408051948552602085019390935291830152606082015260800161016b565b348015610298575f80fd5b506102ac6102a73660046111f7565b6109ea565b60405161016b91906112bc565b3480156102c4575f80fd5b506101936102d33660046111c5565b610b29565b3480156102e3575f80fd5b506101616102f23660046111e0565b610b7a565b348015610302575f80fd5b506101936103113660046111c5565b610bf0565b348015610321575f80fd5b506101936103303660046112ce565b610c2d565b348015610340575f80fd5b506001546101b4906001600160a01b031681565b34801561035f575f80fd5b5061016160055481565b348015610374575f80fd5b5061016160045481565b6001546001600160a01b031633146103a8576040516282b42960e81b815260040160405180910390fd5b6103b0610d28565b5f5b818110156104245761041c8383838181106103cf576103cf6112f8565b90506020028101906103e1919061130c565b6103ef9060208101906111c5565b848484818110610401576104016112f8565b9050602002810190610413919061130c565b60200135610d43565b6001016103b2565b505f5b8181101561068b575f80848484818110610443576104436112f8565b9050602002810190610455919061130c565b6104639060208101906111c5565b6001600160a01b031685858581811061047e5761047e6112f8565b9050602002810190610490919061130c565b602001358686868181106104a6576104a66112f8565b90506020028101906104b8919061130c565b6104c690604081019061132a565b6040516104d492919061136d565b5f6040518083038185875af1925050503d805f811461050e576040519150601f19603f3d011682016040523d82523d5f602084013e610513565b606091505b5091509150816105745784848481811061052f5761052f6112f8565b9050602002810190610541919061130c565b61054f9060208101906111c5565b81604051636c544f3360e01b815260040161056b92919061137c565b60405180910390fd5b848484818110610586576105866112f8565b9050602002810190610598919061130c565b6020013560055f8282546105ac9190611056565b9091555085905084848181106105c4576105c46112f8565b90506020028101906105d6919061130c565b6105e49060208101906111c5565b6001600160a01b03167ff14109828d5d815638dc9502c935e53577ad503b62f45ab30bc6ff401e954acd868686818110610620576106206112f8565b9050602002810190610632919061130c565b60200135878787818110610648576106486112f8565b905060200281019061065a919061130c565b61066890604081019061132a565b85604051610679949392919061139f565b60405180910390a25050600101610427565b506040518181527fe9cc9bbe7de1cbb097a6357ca3182909488efe8d793e25665befc064a02d10a79060200160405180910390a16106d560015f8051602061144683398151915255565b5050565b6106e1610eb1565b6106ea5f610edd565b565b6002546001600160a01b0316331480159061071157505f546001600160a01b03163314155b1561072e576040516282b42960e81b815260040160405180910390fd5b868514801561073c57508483145b801561074757508281145b61078b5760405162461bcd60e51b8152602060048201526015602482015274082e4e4c2f240d8cadccee8d040dad2e6dac2e8c6d605b1b604482015260640161056b565b61079660035f610f5b565b5f5b87811015610923578888828181106107b2576107b26112f8565b905060200201355f14806107dd57508686828181106107d3576107d36112f8565b905060200201355f145b156107fb576040516391c7d22b60e01b815260040160405180910390fd5b60036040518060a001604052808b8b8581811061081a5761081a6112f8565b905060200201358152602001898985818110610838576108386112f8565b905060200201358152602001878785818110610856576108566112f8565b9050602002013581526020015f815260200185858581811061087a5761087a6112f8565b905060200281019061088c91906113ec565b808060200260200160405190810160405280939291908181526020018383602002808284375f92018290525093909452505083546001818101865594825260209182902084516005909202019081558184015194810194909455604083015160028501556060830151600385015560808301518051939493610918935060048501929190910190610f79565b505050600101610798565b506040518781527f991f8cde6942af8f254dc31551b21ff8620c4291cb7e6aaf802643ecdfd9a3739060200160405180910390a15050505050505050565b610969610eb1565b600280546001600160a01b0319166001600160a01b0383169081179091556040517fb3b3f5f64ab192e4b5fefde1f51ce9733bbdcf831951543b325aebd49cc27ec4905f90a250565b600381815481106109c1575f80fd5b5f9182526020909120600590910201805460018201546002830154600390930154919350919084565b6001546060906001600160a01b03163314610a17576040516282b42960e81b815260040160405180910390fd5b610a1f610d28565b610a298585610d43565b5f856001600160a01b0316858585604051610a4592919061136d565b5f6040518083038185875af1925050503d805f8114610a7f576040519150601f19603f3d011682016040523d82523d5f602084013e610a84565b606091505b509250905080610aab578582604051636c544f3360e01b815260040161056b92919061137c565b8460055f828254610abc9190611056565b92505081905550856001600160a01b03167ff14109828d5d815638dc9502c935e53577ad503b62f45ab30bc6ff401e954acd86868686604051610b02949392919061139f565b60405180910390a250610b2160015f8051602061144683398151915255565b949350505050565b610b31610eb1565b600180546001600160a01b0319166001600160a01b0383169081179091556040517fe9f337c154e801e0f86b6bc993df9a2cd349bb210385592c7a52e38ea726334f905f90a250565b5f8060038381548110610b8f57610b8f6112f8565b905f5260205f2090600502019050805f01548160020154610bb09190611056565b4210610bc0576001015492915050565b8060030154816001015411610bd5575f610be9565b80600301548160010154610be99190611432565b9392505050565b610bf8610eb1565b6001600160a01b038116610c2157604051631e4fbdf760e01b81525f600482015260240161056b565b610c2a81610edd565b50565b610c35610eb1565b610c3d610d28565b5f826001600160a01b0316826040515f6040518083038185875af1925050503d805f8114610c86576040519150601f19603f3d011682016040523d82523d5f602084013e610c8b565b606091505b5050905080610cce5760405162461bcd60e51b815260206004820152600f60248201526e151c985b9cd9995c8819985a5b1959608a1b604482015260640161056b565b826001600160a01b03167feaff4b37086828766ad3268786972c0cd24259d4c87a80f9d3963a3c3d999b0d83604051610d0991815260200190565b60405180910390a2506106d560015f8051602061144683398151915255565b610d30610f2c565b60025f8051602061144683398151915255565b805f03610d4e575050565b5f5b600354811015610e84575f60038281548110610d6e57610d6e6112f8565b905f5260205f20906005020190505f805b6004830154811015610dd457856001600160a01b0316836004018281548110610daa57610daa6112f8565b5f918252602090912001546001600160a01b031603610dcc5760019150610dd4565b600101610d7f565b5080610de1575050610e7c565b81546002830154610df29190611056565b4210610e05574260028301555f60038301555b5f8260030154836001015411610e1b575f610e2f565b82600301548360010154610e2f9190611432565b905080851115610e5c5760405163029a8b5f60e41b8152600481018690526024810182905260440161056b565b84836003015f828254610e6f9190611056565b9091555050505050505050565b600101610d50565b50600354156106d5576040516347ccabe760e01b81526001600160a01b038316600482015260240161056b565b5f546001600160a01b031633146106ea5760405163118cdaa760e01b815233600482015260240161056b565b5f80546001600160a01b038381166001600160a01b0319831681178455604051919092169283917f8be0079c531659141344cd1fd0a4f28419497f9722a3daafe3b4186f6b6457e09190a35050565b5f80516020611446833981519152546002036106ea57604051633ee5aeb560e01b815260040160405180910390fd5b5080545f8255600502905f5260205f2090810190610c2a9190610fdc565b828054828255905f5260205f20908101928215610fcc579160200282015b82811115610fcc57825182546001600160a01b0319166001600160a01b03909116178255602090920191600190910190610f97565b50610fd8929150611013565b5090565b80821115610fd8575f80825560018201819055600282018190556003820181905561100a6004830182611027565b50600501610fdc565b5b80821115610fd8575f8155600101611014565b5080545f8255905f5260205f2090810190610c2a9190611013565b634e487b7160e01b5f52601160045260245ffd5b8082018082111561106957611069611042565b92915050565b5f8083601f84011261107f575f80fd5b50813567ffffffffffffffff811115611096575f80fd5b6020830191508360208260051b85010111156110b0575f80fd5b9250929050565b5f80602083850312156110c8575f80fd5b823567ffffffffffffffff8111156110de575f80fd5b6110ea8582860161106f565b90969095509350505050565b5f805f805f805f806080898b03121561110d575f80fd5b883567ffffffffffffffff80821115611124575f80fd5b6111308c838d0161106f565b909a50985060208b0135915080821115611148575f80fd5b6111548c838d0161106f565b909850965060408b013591508082111561116c575f80fd5b6111788c838d0161106f565b909650945060608b0135915080821115611190575f80fd5b5061119d8b828c0161106f565b999c989b5096995094979396929594505050565b6001600160a01b0381168114610c2a575f80fd5b5f602082840312156111d5575f80fd5b8135610be9816111b1565b5f602082840312156111f0575f80fd5b5035919050565b5f805f806060858703121561120a575f80fd5b8435611215816111b1565b935060208501359250604085013567ffffffffffffffff80821115611238575f80fd5b818701915087601f83011261124b575f80fd5b813581811115611259575f80fd5b88602082850101111561126a575f80fd5b95989497505060200194505050565b5f81518084525f5b8181101561129d57602081850181015186830182015201611281565b505f602082860101526020601f19601f83011685010191505092915050565b602081525f610be96020830184611279565b5f80604083850312156112df575f80fd5b82356112ea816111b1565b946020939093013593505050565b634e487b7160e01b5f52603260045260245ffd5b5f8235605e19833603018112611320575f80fd5b9190910192915050565b5f808335601e1984360301811261133f575f80fd5b83018035915067ffffffffffffffff821115611359575f80fd5b6020019150368190038213156110b0575f80fd5b818382375f9101908152919050565b6001600160a01b03831681526040602082018190525f90610b2190830184611279565b84815260606020820152826060820152828460808301375f608084830101525f601f19601f850116820160808382030160408401526113e16080820185611279565b979650505050505050565b5f808335601e19843603018112611401575f80fd5b83018035915067ffffffffffffffff82111561141b575f80fd5b6020019150600581901b36038213156110b0575f80fd5b818103818111156110695761106961104256fe9b779b17422d0df92223018b32b4d1fa46e071723d6817e2486d003becc55f00a2646970667358221220ca24e49646862b321ccc758f93dff92cf1fd435ecde99f6a87f4450810e102f964736f6c63430008180033",
  "linkReferences": {},
  "deployedLinkReferences": {}
}