{"contracts/ClientAgentVault.sol":{"ClientAgentVault":{"abi":[{"inputs":[{"internalType":"address","name":"initialOwner","type":"address"},{"internalType":"address","name":"initialAgent","type":"address"},{"internalType":"address","name":"initialOperator","type":"address"}],"stateMutability":"nonpayable","type":"constructor"},{"inputs":[{"internalType":"uint256","name":"attempted","type":"uint256"},{"internalType":"uint256","name":"remaining","type":"uint256"}],"name":"BudgetExceeded","type":"error"},{"inputs":[{"internalType":"address","name":"target","type":"address"},{"internalType":"bytes","name":"returnData","type":"bytes"}],"name":"CallFailed","type":"error"},{"inputs":[],"name":"InvalidRule","type":"error"},{"inputs":[{"internalType":"address","name":"owner","type":"address"}],"name":"OwnableInvalidOwner","type":"error"},{"inputs":[{"internalType":"address","name":"account","type":"address"}],"name":"OwnableUnauthorizedAccount","type":"error"},{"inputs":[],"name":"ReentrancyGuardReentrantCall","type":"error"},{"inputs":[{"internalType":"address","name":"target","type":"address"}],"name":"TargetNotWhitelisted","type":"error"},{"inputs":[],"name":"Unauthorized","type":"error"},{"anonymous":false,"inputs":[{"indexed":true,"internalType":"address","name":"newAgent","type":"address"}],"name":"AgentUpdated","type":"event"},{"anonymous":false,"inputs":[{"indexed":false,"internalType":"uint256","name":"callCount","type":"uint256"}],"name":"BatchExecuted","type":"event"},{"anonymous":false,"inputs":[{"indexed":true,"internalType":"address","name":"target","type":"address"},{"indexed":false,"internalType":"uint256","name":"value","type":"uint256"},{"indexed":false,"internalType":"bytes","name":"data","type":"bytes"},{"indexed":false,"internalType":"bytes","name":"returnData","type":"bytes"}],"name":"CallExecuted","type":"event"},{"anonymous":false,"inputs":[{"indexed":true,"internalType":"address","name":"from","type":"address"},{"indexed":false,"internalType":"uint256","name":"amount","type":"uint256"}],"name":"Deposited","type":"event"},{"anonymous":false,"inputs":[{"indexed":true,"internalType":"address","name":"to","type":"address"},{"indexed":false,"internalType":"uint256","name":"amount","type":"uint256"}],"name":"FundsWithdrawn","type":"event"},{"anonymous":false,"inputs":[{"indexed":true,"internalType":"address","name":"newOperator","type":"address"}],"name":"OperatorUpdated","type":"event"},{"anonymous":false,"inputs":[{"indexed":true,"internalType":"address","name":"previousOwner","type":"address"},{"indexed":true,"internalType":"address","name":"newOwner","type":"address"}],"name":"OwnershipTransferred","type":"event"},{"anonymous":false,"inputs":[{"indexed":false,"internalType":"uint256","name":"ruleCount","type":"uint256"}],"name":"RulesConfigured","type":"event"},{"inputs":[],"name":"agent","outputs":[{"internalType":"address","name":"","type":"address"}],"stateMutability":"view","type":"function"},{"inputs":[{"internalType":"uint256[]","name":"timeWindows","type":"uint256[]"},{"internalType":"uint256[]","name":"budgets","type":"uint256[]"},{"internalType":"uint256[]","name":"windowStartTimes","type":"uint256[]"},{"internalType":"address[][]","name":"targetContractArrays","type":"address[][]"}],"name":"configureSpendingRules","outputs":[],"stateMutability":"nonpayable","type":"function"},{"inputs":[{"internalType":"address","name":"target","type":"address"},{"internalType":"uint256","name":"value","type":"uint256"},{"internalType":"bytes","name":"data","type":"bytes"}],"name":"execute","outputs":[{"internalType":"bytes","name":"returnData","type":"bytes"}],"stateMutability":"nonpayable","type":"function"},{"inputs":[{"components":[{"internalType":"address","name":"target","type":"address"},{"internalType":"uint256","name":"value","type":"uint256"},{"internalType":"bytes","name":"data","type":"bytes"}],"internalType":"struct ClientAgentVault.CallRequest[]","name":"calls","type":"tuple[]"}],"name":"executeBatch","outputs":[],"stateMutability":"nonpayable","type":"function"},{"inputs":[],"name":"getBalance","outputs":[{"internalType":"uint256","name":"","type":"uint256"}],"stateMutability":"view","type":"function"},{"inputs":[{"internalType":"uint256","name":"ruleIndex","type":"uint256"}],"name":"getRemainingBudget","outputs":[{"internalType":"uint256","name":"","type":"uint256"}],"stateMutability":"view","type":"function"},{"inputs":[],"name":"getRuleCount","outputs":[{"internalType":"uint256","name":"","type":"uint256"}],"stateMutability":"view","type":"function"},{"inputs":[],"name":"operator","outputs":[{"internalType":"address","name":"","type":"address"}],"stateMutability":"view","type":"function"},{"inputs":[],"name":"owner","outputs":[{"internalType":"address","name":"","type":"address"}],"stateMutability":"view","type":"function"},{"inputs":[],"name":"renounceOwnership","outputs":[],"stateMutability":"nonpayable","type":"function"},{"inputs":[{"internalType":"address","name":"newAgent","type":"address"}],"name":"setAgent","outputs":[],"stateMutability":"nonpayable","type":"function"},{"inputs":[{"internalType":"address","name":"newOperator","type":"address"}],"name":"setOperator","outputs":[],"stateMutability":"nonpayable","type":"function"},{"inputs":[{"internalType":"uint256","name":"","type":"uint256"}],"name":"spendingRules","outputs":[{"internalType":"uint256","name":"timeWindow","type":"uint256"},{"internalType":"uint256","name":"budget","type":"uint256"},{"internalType":"uint256","name":"windowStartTime","type":"uint256"},{"internalType":"uint256","name":"spentInWindow","type":"uint256"}],"stateMutability":"view","type":"function"},{"inputs":[],"name":"totalDeposited","outputs":[{"internalType":"uint256","name":"","type":"uint256"}],"stateMutability":"view","type":"function"},{"inputs":[],"name":"totalSpent","outputs":[{"internalType":"uint256","name":"","type":"uint256"}],"stateMutability":"view","type":"function"},{"inputs":[{"internalType":"address","name":"newOwner","type":"address"}],"name":"transferOwnership","outputs":[],"stateMutability":"nonpayable","type":"function"},{"inputs":[{"internalType":"address payable","name":"to","type":"address"},{"internalType":"uint256","name":"amount","type":"uint256"}],"name":"withdraw","outputs":[],"stateMutability":"nonpayable","type":"function"},{"stateMutability":"payable","type":"receive"}],"evm":{"bytecode":{"linkReferences":{},"object":"60806040523480156200001157600080fd5b50604051620016b4380380620016b4833981016040819052620000349162000134565b826001600160a01b0381166200006457604051631e4fbdf760e01b81526000600482015260240160405180910390fd5b6200006f81620000c7565b5060017f9b779b17422d0df92223018b32b4d1fa46e071723d6817e2486d003becc55f0055600180546001600160a01b039384166001600160a01b03199182161790915560028054929093169116179055506200017e565b600080546001600160a01b038381166001600160a01b0319831681178455604051919092169283917f8be0079c531659141344cd1fd0a4f28419497f9722a3daafe3b4186f6b6457e09190a35050565b80516001600160a01b03811681146200012f57600080fd5b919050565b6000806000606084860312156200014a57600080fd5b620001558462000117565b9250620001656020850162000117565b9150620001756040850162000117565b90509250925092565b611526806200018e6000396000f3fe6080604052600436106101025760003560e01c8063b5b9a51911610095578063f2fde38b11610064578063f2fde38b1461030b578063f3fef3a31461032b578063f5ff5c761461034b578063fb346eab1461036b578063ff50abdc1461038157600080fd5b8063b5b9a5191461025e578063b61d27f61461029e578063bcf685ed146102cb578063efaa79b1146102eb57600080fd5b8063715018a6116100d1578063715018a6146101eb578063718f8794146102005780638da5cb5b14610220578063b3ab15fb1461023e57600080fd5b806312065fe01461015a57806334fcd5be1461017c578063570ca7351461019e5780635c3ca910146101d657600080fd5b3661015557346004600082825461011991906110af565b909155505060405134815233907f2da466a7b24304f47e87fa2e1e5a81b9831ce54fec19055ce277ca2f39ba42c49060200160405180910390a2005b600080fd5b34801561016657600080fd5b50475b6040519081526020015b60405180910390f35b34801561018857600080fd5b5061019c610197366004611114565b610397565b005b3480156101aa57600080fd5b506002546101be906001600160a01b031681565b6040516001600160a01b039091168152602001610173565b3480156101e257600080fd5b50600354610169565b3480156101f757600080fd5b5061019c6106fa565b34801561020c57600080fd5b5061019c61021b366004611156565b61070e565b34801561022c57600080fd5b506000546001600160a01b03166101be565b34801561024a57600080fd5b5061019c61025936600461122f565b61098a565b34801561026a57600080fd5b5061027e61027936600461124c565b6109dc565b604080519485526020850193909352918301526060820152608001610173565b3480156102aa57600080fd5b506102be6102b9366004611265565b610a16565b6040516101739190611334565b3480156102d757600080fd5b5061019c6102e636600461122f565b610b5b565b3480156102f757600080fd5b5061016961030636600461124c565b610bad565b34801561031757600080fd5b5061019c61032636600461122f565b610c28565b34801561033757600080fd5b5061019c610346366004611347565b610c66565b34801561035757600080fd5b506001546101be906001600160a01b031681565b34801561037757600080fd5b5061016960055481565b34801561038d57600080fd5b5061016960045481565b6001546001600160a01b031633146103c1576040516282b42960e81b815260040160405180910390fd5b6103c9610d66565b60005b8181101561043e576104368383838181106103e9576103e9611373565b90506020028101906103fb9190611389565b61040990602081019061122f565b84848481811061041b5761041b611373565b905060200281019061042d9190611389565b60200135610d82565b6001016103cc565b5060005b818110156106ab5760008084848481811061045f5761045f611373565b90506020028101906104719190611389565b61047f90602081019061122f565b6001600160a01b031685858581811061049a5761049a611373565b90506020028101906104ac9190611389565b602001358686868181106104c2576104c2611373565b90506020028101906104d49190611389565b6104e29060408101906113a9565b6040516104f09291906113f0565b60006040518083038185875af1925050503d806000811461052d576040519150601f19603f3d011682016040523d82523d6000602084013e610532565b606091505b5091509150816105935784848481811061054e5761054e611373565b90506020028101906105609190611389565b61056e90602081019061122f565b81604051636c544f3360e01b815260040161058a929190611400565b60405180910390fd5b8484848181106105a5576105a5611373565b90506020028101906105b79190611389565b60200135600560008282546105cc91906110af565b9091555085905084848181106105e4576105e4611373565b90506020028101906105f69190611389565b61060490602081019061122f565b6001600160a01b03167ff14109828d5d815638dc9502c935e53577ad503b62f45ab30bc6ff401e954acd86868681811061064057610640611373565b90506020028101906106529190611389565b6020013587878781811061066857610668611373565b905060200281019061067a9190611389565b6106889060408101906113a9565b856040516106999493929190611424565b60405180910390a25050600101610442565b506040518181527fe9cc9bbe7de1cbb097a6357ca3182909488efe8d793e25665befc064a02d10a79060200160405180910390a16106f660016000805160206114d183398151915255565b5050565b610702610efb565b61070c6000610f28565b565b6002546001600160a01b0316331480159061073457506000546001600160a01b03163314155b15610751576040516282b42960e81b815260040160405180910390fd5b868514801561075f57508483145b801561076a57508281145b6107ae5760405162461bcd60e51b8152602060048201526015602482015274082e4e4c2f240d8cadccee8d040dad2e6dac2e8c6d605b1b604482015260640161058a565b6107ba60036000610fa8565b60005b8781101561094c578888828181106107d7576107d7611373565b905060200201356000148061080457508686828181106107f9576107f9611373565b905060200201356000145b15610822576040516391c7d22b60e01b815260040160405180910390fd5b60036040518060a001604052808b8b8581811061084157610841611373565b90506020020135815260200189898581811061085f5761085f611373565b90506020020135815260200187878581811061087d5761087d611373565b905060200201358152602001600081526020018585858181106108a2576108a2611373565b90506020028101906108b49190611473565b80806020026020016040519081016040528093929190818152602001838360200280828437600092018290525093909452505083546001818101865594825260209182902084516005909202019081558184015194810194909455604083015160028501556060830151600385015560808301518051939493610941935060048501929190910190610fc9565b5050506001016107bd565b506040518781527f991f8cde6942af8f254dc31551b21ff8620c4291cb7e6aaf802643ecdfd9a3739060200160405180910390a15050505050505050565b610992610efb565b600280546001600160a01b0319166001600160a01b0383169081179091556040517fb3b3f5f64ab192e4b5fefde1f51ce9733bbdcf831951543b325aebd49cc27ec490600090a250565b600381815481106109ec57600080fd5b60009182526020909120600590910201805460018201546002830154600390930154919350919084565b6001546060906001600160a01b03163314610a43576040516282b42960e81b815260040160405180910390fd5b610a4b610d66565b610a558585610d82565b6000856001600160a01b0316858585604051610a729291906113f0565b60006040518083038185875af1925050503d8060008114610aaf576040519150601f19603f3d011682016040523d82523d6000602084013e610ab4565b606091505b509250905080610adb578582604051636c544f3360e01b815260040161058a929190611400565b8460056000828254610aed91906110af565b92505081905550856001600160a01b03167ff14109828d5d815638dc9502c935e53577ad503b62f45ab30bc6ff401e954acd86868686604051610b339493929190611424565b60405180910390a250610b5360016000805160206114d183398151915255565b949350505050565b610b63610efb565b600180546001600160a01b0319166001600160a01b0383169081179091556040517fe9f337c154e801e0f86b6bc993df9a2cd349bb210385592c7a52e38ea726334f90600090a250565b60008060038381548110610bc357610bc3611373565b9060005260206000209060050201905080600001548160020154610be791906110af565b4210610bf7576001015492915050565b8060030154816001015411610c0d576000610c21565b80600301548160010154610c2191906114bd565b9392505050565b610c30610efb565b6001600160a01b038116610c5a57604051631e4fbdf760e01b81526000600482015260240161058a565b610c6381610f28565b50565b610c6e610efb565b610c76610d66565b6000826001600160a01b03168260405160006040518083038185875af1925050503d8060008114610cc3576040519150601f19603f3d011682016040523d82523d6000602084013e610cc8565b606091505b5050905080610d0b5760405162461bcd60e51b815260206004820152600f60248201526e151c985b9cd9995c8819985a5b1959608a1b604482015260640161058a565b826001600160a01b03167feaff4b37086828766ad3268786972c0cd24259d4c87a80f9d3963a3c3d999b0d83604051610d4691815260200190565b60405180910390a2506106f660016000805160206114d183398151915255565b610d6e610f78565b60026000805160206114d183398151915255565b80600003610d8e575050565b60005b600354811015610ece57600060038281548110610db057610db0611373565b906000526020600020906005020190506000805b6004830154811015610e1a57856001600160a01b0316836004018281548110610def57610def611373565b6000918252602090912001546001600160a01b031603610e125760019150610e1a565b600101610dc4565b5080610e27575050610ec6565b81546002830154610e3891906110af565b4210610e4c57426002830155600060038301555b60008260030154836001015411610e64576000610e78565b82600301548360010154610e7891906114bd565b905080851115610ea55760405163029a8b5f60e41b8152600481018690526024810182905260440161058a565b84836003016000828254610eb991906110af565b9091555050505050505050565b600101610d91565b50600354156106f6576040516347ccabe760e01b81526001600160a01b038316600482015260240161058a565b6000546001600160a01b0316331461070c5760405163118cdaa760e01b815233600482015260240161058a565b600080546001600160a01b038381166001600160a01b0319831681178455604051919092169283917f8be0079c531659141344cd1fd0a4f28419497f9722a3daafe3b4186f6b6457e09190a35050565b6000805160206114d18339815191525460020361070c57604051633ee5aeb560e01b815260040160405180910390fd5b5080546000825560050290600052602060002090810190610c63919061102e565b82805482825590600052602060002090810192821561101e579160200282015b8281111561101e57825182546001600160a01b0319166001600160a01b03909116178255602090920191600190910190610fe9565b5061102a929150611066565b5090565b8082111561102a57600080825560018201819055600282018190556003820181905561105d600483018261107b565b5060050161102e565b5b8082111561102a5760008155600101611067565b5080546000825590600052602060002090810190610c639190611066565b634e487b7160e01b600052601160045260246000fd5b808201808211156110c2576110c2611099565b92915050565b60008083601f8401126110da57600080fd5b50813567ffffffffffffffff8111156110f257600080fd5b6020830191508360208260051b850101111561110d57600080fd5b9250929050565b6000806020838503121561112757600080fd5b823567ffffffffffffffff81111561113e57600080fd5b61114a858286016110c8565b90969095509350505050565b6000806000806000806000806080898b03121561117257600080fd5b883567ffffffffffffffff8082111561118a57600080fd5b6111968c838d016110c8565b909a50985060208b01359150808211156111af57600080fd5b6111bb8c838d016110c8565b909850965060408b01359150808211156111d457600080fd5b6111e08c838d016110c8565b909650945060608b01359150808211156111f957600080fd5b506112068b828c016110c8565b999c989b5096995094979396929594505050565b6001600160a01b0381168114610c6357600080fd5b60006020828403121561124157600080fd5b8135610c218161121a565b60006020828403121561125e57600080fd5b5035919050565b6000806000806060858703121561127b57600080fd5b84356112868161121a565b935060208501359250604085013567ffffffffffffffff808211156112aa57600080fd5b818701915087601f8301126112be57600080fd5b8135818111156112cd57600080fd5b8860208285010111156112df57600080fd5b95989497505060200194505050565b6000815180845260005b81811015611314576020818501810151868301820152016112f8565b506000602082860101526020601f19601f83011685010191505092915050565b602081526000610c2160208301846112ee565b6000806040838503121561135a57600080fd5b82356113658161121a565b946020939093013593505050565b634e487b7160e01b600052603260045260246000fd5b60008235605e1983360301811261139f57600080fd5b9190910192915050565b6000808335601e198436030181126113c057600080fd5b83018035915067ffffffffffffffff8211156113db57600080fd5b60200191503681900382131561110d57600080fd5b8183823760009101908152919050565b6001600160a01b0383168152604060208201819052600090610b53908301846112ee565b84815260606020820152826060820152828460808301376000608084830101526000601f19601f8501168201608083820301604084015261146860808201856112ee565b979650505050505050565b6000808335601e1984360301811261148a57600080fd5b83018035915067ffffffffffffffff8211156114a557600080fd5b6020019150600581901b360382131561110d57600080fd5b818103818111156110c2576110c261109956fe9b779b17422d0df92223018b32b4d1fa46e071723d6817e2486d003becc55f00a2646970667358221220195f0366449b1c36d0b230203f15058c0115f87eff7a0f73a52e015223d6450964736f6c63430008180033","opcodes":"PUSH1 0x80 PUSH1 0x40 MSTORE CALLVALUE DUP1 ISZERO PUSH3 0x11 JUMPI PUSH1 0x0 DUP1 REVERT JUMPDEST POP PUSH1 0x40 MLOAD PUSH3 0x16B4 CODESIZE SUB DUP1 PUSH3 0x16B4 DUP4 CODECOPY DUP2 ADD PUSH1 0x40 DUP2 SWAP1 MSTORE PUSH3 0x34 SWAP2 PUSH3 0x134 JUMP JUMPDEST DUP3 PUSH1 0x1 PUSH1 0x1 PUSH1 0xA0 SHL SUB DUP2 AND PUSH3 0x64 JUMPI PUSH1 0x40 MLOAD PUSH4 0x1E4FBDF7 PUSH1 0xE0 SHL DUP2 MSTORE PUSH1 0x0 PUSH1 0x4 DUP3 ADD MSTORE PUSH1 0x24 ADD PUSH1 0x40 MLOAD DUP1 SWAP2 SUB SWAP1 REVERT JUMPDEST PUSH3 0x6F DUP2 PUSH3 0xC7 JUMP JUMPDEST POP PUSH1 0x1 PUSH32 0x9B779B17422D0DF92223018B32B4D1FA46E071723D6817E2486D003BECC55F00 SSTORE PUSH1 0x1 DUP1 SLOAD PUSH1 0x1 PUSH1 0x1 PUSH1 0xA0 SHL SUB SWAP4 DUP5 AND PUSH1 0x1 PUSH1 0x1 PUSH1 0xA0 SHL SUB NOT SWAP2 DUP3 AND OR SWAP1 SWAP2 SSTORE PUSH1 0x2 DUP1 SLOAD SWAP3 SWAP1 SWAP4 AND SWAP2 AND OR SWAP1 SSTORE POP PUSH3 0x17E JUMP JUMPDEST PUSH1 0x0 DUP1 SLOAD PUSH1 0x1 PUSH1 0x1 PUSH1 0xA0 SHL SUB DUP4 DUP2 AND PUSH1 0x1 PUSH1 0x1 PUSH1 0xA0 SHL SUB NOT DUP4 AND DUP2 OR DUP5 SSTORE PUSH1 0x40 MLOAD SWAP2 SWAP1 SWAP3 AND SWAP3 DUP4 SWAP2 PUSH32 0x8BE0079C531659141344CD1FD0A4F28419497F9722A3DAAFE3B4186F6B6457E0 SWAP2 SWAP1 LOG3 POP POP JUMP JUMPDEST DUP1 MLOAD PUSH1 0x1 PUSH1 0x1 PUSH1 0xA0 SHL SUB DUP2 AND DUP2 EQ PUSH3 0x12F JUMPI PUSH1 0x0 DUP1 REVERT JUMPDEST SWAP2 SWAP1 POP JUMP JUMPDEST PUSH1 0x0 DUP1 PUSH1 0x0 PUSH1 0x60 DUP5 DUP7 SUB SLT ISZERO PUSH3 0x14A JUMPI PUSH1 0x0 DUP1 REVERT JUMPDEST PUSH3 0x155 DUP5 PUSH3 0x117 JUMP JUMPDEST SWAP3 POP PUSH3 0x165 PUSH1 0x20 DUP6 ADD PUSH3 0x117 JUMP JUMPDEST SWAP2 POP PUSH3 0x175 PUSH1 0x40 DUP6 ADD PUSH3 0x117 JUMP JUMPDEST SWAP1 POP SWAP3 POP SWAP3 POP SWAP3 JUMP JUMPDEST PUSH2 0x1526 DUP1 PUSH3 0x18E PUSH1 0x0 CODECOPY PUSH1 0x0 RETURN INVALID PUSH1 0x80 PUSH1 0x40 MSTORE PUSH1 0x4 CALLDATASIZE LT PUSH2 0x102 JUMPI PUSH1 0x0 CALLDATALOAD PUSH1 0xE0 SHR DUP1 PUSH4 0xB5B9A519 GT PUSH2 0x95 JUMPI DUP1 PUSH4 0xF2FDE38B GT PUSH2 0x64 JUMPI DUP1 PUSH4 0xF2FDE38B EQ PUSH2 0x30B JUMPI DUP1 PUSH4 0xF3FEF3A3 EQ PUSH2 0x32B JUMPI DUP1 PUSH4 0xF5FF5C76 EQ PUSH2 0x34B JUMPI DUP1 PUSH4 0xFB346EAB EQ PUSH2 0x36B JUMPI DUP1 PUSH4 0xFF50ABDC EQ PUSH2 0x381 JUMPI PUSH1 0x0 DUP1 REVERT JUMPDEST DUP1 PUSH4 0xB5B9A519 EQ PUSH2 0x25E JUMPI DUP1 PUSH4 0xB61D27F6 EQ PUSH2 0x29E JUMPI DUP1 PUSH4 0xBCF685ED EQ PUSH2 0x2CB JUMPI DUP1 PUSH4 0xEFAA79B1 EQ PUSH2 0x2EB JUMPI PUSH1 0x0 DUP1 REVERT JUMPDEST DUP1 PUSH4 0x715018A6 GT PUSH2 0xD1 JUMPI DUP1 PUSH4 0x715018A6 EQ PUSH2 0x1EB JUMPI DUP1 PUSH4 0x718F8794 EQ PUSH2 0x200 JUMPI DUP1 PUSH4 0x8DA5CB5B EQ PUSH2 0x220 JUMPI DUP1 PUSH4 0xB3AB15FB EQ PUSH2 0x23E JUMPI PUSH1 0x0 DUP1 REVERT JUMPDEST DUP1 PUSH4 0x12065FE0 EQ PUSH2 0x15A JUMPI DUP1 PUSH4 0x34FCD5BE EQ PUSH2 0x17C JUMPI DUP1 PUSH4 0x570CA735 EQ PUSH2 0x19E JUMPI DUP1 PUSH4 0x5C3CA910 EQ PUSH2 0x1D6 JUMPI PUSH1 0x0 DUP1 REVERT JUMPDEST CALLDATASIZE PUSH2 0x155 JUMPI CALLVALUE PUSH1 0x4 PUSH1 0x0 DUP3 DUP3 SLOAD PUSH2 0x119 SWAP2 SWAP1 PUSH2 0x10AF JUMP JUMPDEST SWAP1 SWAP2 SSTORE POP POP PUSH1 0x40 MLOAD CALLVALUE DUP2 MSTORE CALLER SWAP1 PUSH32 0x2DA466A7B24304F47E87FA2E1E5A81B9831CE54FEC19055CE277CA2F39BA42C4 SWAP1 PUSH1 0x20 ADD PUSH1 0x40 MLOAD DUP1 SWAP2 SUB SWAP1 LOG2 STOP JUMPDEST PUSH1 0x0 DUP1 REVERT JUMPDEST CALLVALUE DUP1 ISZERO PUSH2 0x166 JUMPI PUSH1 0x0 DUP1 REVERT JUMPDEST POP SELFBALANCE JUMPDEST PUSH1 0x40 MLOAD SWAP1 DUP2 MSTORE PUSH1 0x20 ADD JUMPDEST PUSH1 0x40 MLOAD DUP1 SWAP2 SUB SWAP1 RETURN JUMPDEST CALLVALUE DUP1 ISZERO PUSH2 0x188 JUMPI PUSH1 0x0 DUP1 REVERT JUMPDEST POP PUSH2 0x19C PUSH2 0x197 CALLDATASIZE PUSH1 0x4 PUSH2 0x1114 JUMP JUMPDEST PUSH2 0x397 JUMP JUMPDEST STOP JUMPDEST CALLVALUE DUP1 ISZERO PUSH2 0x1AA JUMPI PUSH1 0x0 DUP1 REVERT JUMPDEST POP PUSH1 0x2 SLOAD PUSH2 0x1BE SWAP1 PUSH1 0x1 PUSH1 0x1 PUSH1 0xA0 SHL SUB AND DUP2 JUMP JUMPDEST PUSH1 0x40 MLOAD PUSH1 0x1 PUSH1 0x1 PUSH1 0xA0 SHL SUB SWAP1 SWAP2 AND DUP2 MSTORE PUSH1 0x20 ADD PUSH2 0x173 JUMP JUMPDEST CALLVALUE DUP1 ISZERO PUSH2 0x1E2 JUMPI PUSH1 0x0 DUP1 REVERT JUMPDEST POP PUSH1 0x3 SLOAD PUSH2 0x169 JUMP JUMPDEST CALLVALUE DUP1 ISZERO PUSH2 0x1F7 JUMPI PUSH1 0x0 DUP1 REVERT JUMPDEST POP PUSH2 0x19C PUSH2 0x6FA JUMP JUMPDEST CALLVALUE DUP1 ISZERO PUSH2 0x20C JUMPI PUSH1 0x0 DUP1 REVERT JUMPDEST POP PUSH2 0x19C PUSH2 0x21B CALLDATASIZE PUSH1 0x4 PUSH2 0x1156 JUMP JUMPDEST PUSH2 0x70E JUMP JUMPDEST CALLVALUE DUP1 ISZERO PUSH2 0x22C JUMPI PUSH1 0x0 DUP1 REVERT JUMPDEST POP PUSH1 0x0 SLOAD PUSH1 0x1 PUSH1 0x1 PUSH1 0xA0 SHL SUB AND PUSH2 0x1BE JUMP JUMPDEST CALLVALUE DUP1 ISZERO PUSH2 0x24A JUMPI PUSH1 0x0 DUP1 REVERT JUMPDEST POP PUSH2 0x19C PUSH2 0x259 CALLDATASIZE PUSH1 0x4 PUSH2 0x122F JUMP JUMPDEST PUSH2 0x98A JUMP JUMPDEST CALLVALUE DUP1 ISZERO PUSH2 0x26A JUMPI PUSH1 0x0 DUP1 REVERT JUMPDEST POP PUSH2 0x27E PUSH2 0x279 CALLDATASIZE PUSH1 0x4 PUSH2 0x124C JUMP JUMPDEST PUSH2 0x9DC JUMP JUMPDEST PUSH1 0x40 DUP1 MLOAD SWAP5 DUP6 MSTORE PUSH1 0x20 DUP6 ADD SWAP4 SWAP1 SWAP4 MSTORE SWAP2 DUP4 ADD MSTORE PUSH1 0x60 DUP3 ADD MSTORE PUSH1 0x80 ADD PUSH2 0x173 JUMP JUMPDEST CALLVALUE DUP1 ISZERO PUSH2 0x2AA JUMPI PUSH1 0x0 DUP1 REVERT JUMPDEST POP PUSH2 0x2BE PUSH2 0x2B9 CALLDATASIZE PUSH1 0x4 PUSH2 0x1265 JUMP JUMPDEST PUSH2 0xA16 JUMP JUMPDEST PUSH1 0x40 MLOAD PUSH2 0x173 SWAP2 SWAP1 PUSH2 0x1334 JUMP JUMPDEST CALLVALUE DUP1 ISZERO PUSH2 0x2D7 JUMPI PUSH1 0x0 DUP1 REVERT JUMPDEST POP PUSH2 0x19C PUSH2 0x2E6 CALLDATASIZE PUSH1 0x4 PUSH2 0x122F JUMP JUMPDEST PUSH2 0xB5B JUMP JUMPDEST CALLVALUE DUP1 ISZERO PUSH2 0x2F7 JUMPI PUSH1 0x0 DUP1 REVERT JUMPDEST POP PUSH2 0x169 PUSH2 0x306 CALLDATASIZE PUSH1 0x4 PUSH2 0x124C JUMP JUMPDEST PUSH2 0xBAD JUMP JUMPDEST CALLVALUE DUP1 ISZERO PUSH2 0x317 JUMPI PUSH1 0x0 DUP1 REVERT JUMPDEST POP PUSH2 0x19C PUSH2 0x326 CALLDATASIZE PUSH1 0x4 PUSH2 0x122F JUMP JUMPDEST PUSH2 0xC28 JUMP JUMPDEST CALLVALUE DUP1 ISZERO PUSH2 0x337 JUMPI PUSH1 0x0 DUP1 REVERT JUMPDEST POP PUSH2 0x19C PUSH2 0x346 CALLDATASIZE PUSH1 0x4 PUSH2 0x1347 JUMP JUMPDEST PUSH2 0xC66 JUMP JUMPDEST CALLVALUE DUP1 ISZERO PUSH2 0x357 JUMPI PUSH1 0x0 DUP1 REVERT JUMPDEST POP PUSH1 0x1 SLOAD PUSH2 0x1BE SWAP1 PUSH1 0x1 PUSH1 0x1 PUSH1 0xA0 SHL SUB AND DUP2 JUMP JUMPDEST CALLVALUE DUP1 ISZERO PUSH2 0x377 JUMPI PUSH1 0x0 DUP1 REVERT JUMPDEST POP PUSH2 0x169 PUSH1 0x5 SLOAD DUP2 JUMP JUMPDEST CALLVALUE DUP1 ISZERO PUSH2 0x38D JUMPI PUSH1 0x0 DUP1 REVERT JUMPDEST POP PUSH2 0x169 PUSH1 0x4 SLOAD DUP2 JUMP JUMPDEST PUSH1 0x1 SLOAD PUSH1 0x1 PUSH1 0x1 PUSH1 0xA0 SHL SUB AND CALLER EQ PUSH2 0x3C1 JUMPI PUSH1 0x40 MLOAD PUSH3 0x82B429 PUSH1 0xE8 SHL DUP2 MSTORE PUSH1 0x4 ADD PUSH1 0x40 MLOAD DUP1 SWAP2 SUB SWAP1 REVERT JUMPDEST PUSH2 0x3C9 PUSH2 0xD66 JUMP JUMPDEST PUSH1 0x0 JUMPDEST DUP2 DUP2 LT ISZERO PUSH2 0x43E JUMPI PUSH2 0x436 DUP4 DUP4 DUP4 DUP2 DUP2 LT PUSH2 0x3E9 JUMPI PUSH2 0x3E9 PUSH2 0x1373 JUMP JUMPDEST SWAP1 POP PUSH1 0x20 MUL DUP2 ADD SWAP1 PUSH2 0x3FB SWAP2 SWAP1 PUSH2 0x1389 JUMP JUMPDEST PUSH2 0x409 SWAP1 PUSH1 0x20 DUP2 ADD SWAP1 PUSH2 0x122F JUMP JUMPDEST DUP5 DUP5 DUP5 DUP2 DUP2 LT PUSH2 0x41B JUMPI PUSH2 0x41B PUSH2 0x1373 JUMP JUMPDEST SWAP1 POP PUSH1 0x20 MUL DUP2 ADD SWAP1 PUSH2 0x42D SWAP2 SWAP1 PUSH2 0x1389 JUMP JUMPDEST PUSH1 0x20 ADD CALLDATALOAD PUSH2 0xD82 JUMP JUMPDEST PUSH1 0x1 ADD PUSH2 0x3CC JUMP JUMPDEST POP PUSH1 0x0 JUMPDEST DUP2 DUP2 LT ISZERO PUSH2 0x6AB JUMPI PUSH1 0x0 DUP1 DUP5 DUP5 DUP5 DUP2 DUP2 LT PUSH2 0x45F JUMPI PUSH2 0x45F PUSH2 0x1373 JUMP JUMPDEST SWAP1 POP PUSH1 0x20 MUL DUP2 ADD SWAP1 PUSH2 0x471 SWAP2 SWAP1 PUSH2 0x1389 JUMP JUMPDEST PUSH2 0x47F SWAP1 PUSH1 0x20 DUP2 ADD SWAP1 PUSH2 0x122F JUMP JUMPDEST PUSH1 0x1 PUSH1 0x1 PUSH1 0xA0 SHL SUB AND DUP6 DUP6 DUP6 DUP2 DUP2 LT PUSH2 0x49A JUMPI PUSH2 0x49A PUSH2 0x1373 JUMP JUMPDEST SWAP1 POP PUSH1 0x20 MUL DUP2 ADD SWAP1 PUSH2 0x4AC SWAP2 SWAP1 PUSH2 0x1389 JUMP JUMPDEST PUSH1 0x20 ADD CALLDATALOAD DUP7 DUP7 DUP7 DUP2 DUP2 LT PUSH2 0x4C2 JUMPI PUSH2 0x4C2 PUSH2 0x1373 JUMP JUMPDEST SWAP1 POP PUSH1 0x20 MUL DUP2 ADD SWAP1 PUSH2 0x4D4 SWAP2 SWAP1 PUSH2 0x1389 JUMP JUMPDEST PUSH2 0x4E2 SWAP1 PUSH1 0x40 DUP2 ADD SWAP1 PUSH2 0x13A9 JUMP JUMPDEST PUSH1 0x40 MLOAD PUSH2 0x4F0 SWAP3 SWAP2 SWAP1 PUSH2 0x13F0 JUMP JUMPDEST PUSH1 0x0 PUSH1 0x40 MLOAD DUP1 DUP4 SUB DUP2 DUP6 DUP8 GAS CALL SWAP3 POP POP POP RETURNDATASIZE DUP1 PUSH1 0x0 DUP2 EQ PUSH2 0x52D JUMPI PUSH1 0x40 MLOAD SWAP2 POP PUSH1 0x1F NOT PUSH1 0x3F RETURNDATASIZE ADD AND DUP3 ADD PUSH1 0x40 MSTORE RETURNDATASIZE DUP3 MSTORE RETURNDATASIZE PUSH1 0x0 PUSH1 0x20 DUP5 ADD RETURNDATACOPY PUSH2 0x532 JUMP JUMPDEST PUSH1 0x60 SWAP2 POP JUMPDEST POP SWAP2 POP SWAP2 POP DUP2 PUSH2 0x593 JUMPI DUP5 DUP5 DUP5 DUP2 DUP2 LT PUSH2 0x54E JUMPI PUSH2 0x54E PUSH2 0x1373 JUMP JUMPDEST SWAP1 POP PUSH1 0x20 MUL DUP2 ADD SWAP1 PUSH2 0x560 SWAP2 SWAP1 PUSH2 0x1389 JUMP JUMPDEST PUSH2 0x56E SWAP1 PUSH1 0x20 DUP2 ADD SWAP1 PUSH2 0x122F JUMP JUMPDEST DUP2 PUSH1 0x40 MLOAD PUSH4 0x6C544F33 PUSH1 0xE0 SHL DUP2 MSTORE PUSH1 0x4 ADD PUSH2 0x58A SWAP3 SWAP2 SWAP1 PUSH2 0x1400 JUMP JUMPDEST PUSH1 0x40 MLOAD DUP1 SWAP2 SUB SWAP1 REVERT JUMPDEST DUP5 DUP5 DUP5 DUP2 DUP2 LT PUSH2 0x5A5 JUMPI PUSH2 0x5A5 PUSH2 0x1373 JUMP JUMPDEST SWAP1 POP PUSH1 0x20 MUL DUP2 ADD SWAP1 PUSH2 0x5B7 SWAP2 SWAP1 PUSH2 0x1389 JUMP JUMPDEST PUSH1 0x20 ADD CALLDATALOAD PUSH1 0x5 PUSH1 0x0 DUP3 DUP3 SLOAD PUSH2 0x5CC SWAP2 SWAP1 PUSH2 0x10AF JUMP JUMPDEST SWAP1 SWAP2 SSTORE POP DUP6 SWAP1 POP DUP5 DUP5 DUP2 DUP2 LT PUSH2 0x5E4 JUMPI PUSH2 0x5E4 PUSH2 0x1373 JUMP JUMPDEST SWAP1 POP PUSH1 0x20 MUL DUP2 ADD SWAP1 PUSH2 0x5F6 SWAP2 SWAP1 PUSH2 0x1389 JUMP JUMPDEST PUSH2 0x604 SWAP1 PUSH1 0x20 DUP2 ADD SWAP1 PUSH2 0x122F JUMP JUMPDEST PUSH1 0x1 PUSH1 0x1 PUSH1 0xA0 SHL SUB AND PUSH32 0xF14109828D5D815638DC9502C935E53577AD503B62F45AB30BC6FF401E954ACD DUP7 DUP7 DUP7 DUP2 DUP2 LT PUSH2 0x640 JUMPI PUSH2 0x640 PUSH2 0x1373 JUMP JUMPDEST SWAP1 POP PUSH1 0x20 MUL DUP2 ADD SWAP1 PUSH2 0x652 SWAP2 SWAP1 PUSH2 0x1389 JUMP JUMPDEST PUSH1 0x20 ADD CALLDATALOAD DUP8 DUP8 DUP8 DUP2 DUP2 LT PUSH2 0x668 JUMPI PUSH2 0x668 PUSH2 0x1373 JUMP JUMPDEST SWAP1 POP PUSH1 0x20 MUL DUP2 ADD SWAP1 PUSH2 0x67A SWAP2 SWAP1 PUSH2 0x1389 JUMP JUMPDEST PUSH2 0x688 SWAP1 PUSH1 0x40 DUP2 ADD SWAP1 PUSH2 0x13A9 JUMP JUMPDEST DUP6 PUSH1 0x40 MLOAD PUSH2 0x699 SWAP5 SWAP4 SWAP3 SWAP2 SWAP1 PUSH2 0x1424 JUMP JUMPDEST PUSH1 0x40 MLOAD DUP1 SWAP2 SUB SWAP1 LOG2 POP POP PUSH1 0x1 ADD PUSH2 0x442 JUMP JUMPDEST POP PUSH1 0x40 MLOAD DUP2 DUP2 MSTORE PUSH32 0xE9CC9BBE7DE1CBB097A6357CA3182909488EFE8D793E25665BEFC064A02D10A7 SWAP1 PUSH1 0x20 ADD PUSH1 0x40 MLOAD DUP1 SWAP2 SUB SWAP1 LOG1 PUSH2 0x6F6 PUSH1 0x1 PUSH1 0x0 DUP1 MLOAD PUSH1 0x20 PUSH2 0x14D1 DUP4 CODECOPY DUP2 MLOAD SWAP2 MSTORE SSTORE JUMP JUMPDEST POP POP JUMP JUMPDEST PUSH2 0x702 PUSH2 0xEFB JUMP JUMPDEST PUSH2 0x70C PUSH1 0x0 PUSH2 0xF28 JUMP JUMPDEST JUMP JUMPDEST PUSH1 0x2 SLOAD PUSH1 0x1 PUSH1 0x1 PUSH1 0xA0 SHL SUB AND CALLER EQ DUP1 ISZERO SWAP1 PUSH2 0x734 JUMPI POP PUSH1 0x0 SLOAD PUSH1 0x1 PUSH1 0x1 PUSH1 0xA0 SHL SUB AND CALLER EQ ISZERO JUMPDEST ISZERO PUSH2 0x751 JUMPI PUSH1 0x40 MLOAD PUSH3 0x82B429 PUSH1 0xE8 SHL DUP2 MSTORE PUSH1 0x4 ADD PUSH1 0x40 MLOAD DUP1 SWAP2 SUB SWAP1 REVERT JUMPDEST DUP7 DUP6 EQ DUP1 ISZERO PUSH2 0x75F JUMPI POP DUP5 DUP4 EQ JUMPDEST DUP1 ISZERO PUSH2 0x76A JUMPI POP DUP3 DUP2 EQ JUMPDEST PUSH2 0x7AE JUMPI PUSH1 0x40 MLOAD PUSH3 0x461BCD PUSH1 0xE5 SHL DUP2 MSTORE PUSH1 0x20 PUSH1 0x4 DUP3 ADD MSTORE PUSH1 0x15 PUSH1 0x24 DUP3 ADD MSTORE PUSH21 0x82E4E4C2F240D8CADCCEE8D040DAD2E6DAC2E8C6D PUSH1 0x5B SHL PUSH1 0x44 DUP3 ADD MSTORE PUSH1 0x64 ADD PUSH2 0x58A JUMP JUMPDEST PUSH2 0x7BA PUSH1 0x3 PUSH1 0x0 PUSH2 0xFA8 JUMP JUMPDEST PUSH1 0x0 JUMPDEST DUP8 DUP2 LT ISZERO PUSH2 0x94C JUMPI DUP9 DUP9 DUP3 DUP2 DUP2 LT PUSH2 0x7D7 JUMPI PUSH2 0x7D7 PUSH2 0x1373 JUMP JUMPDEST SWAP1 POP PUSH1 0x20 MUL ADD CALLDATALOAD PUSH1 0x0 EQ DUP1 PUSH2 0x804 JUMPI POP DUP7 DUP7 DUP3 DUP2 DUP2 LT PUSH2 0x7F9 JUMPI PUSH2 0x7F9 PUSH2 0x1373 JUMP JUMPDEST SWAP1 POP PUSH1 0x20 MUL ADD CALLDATALOAD PUSH1 0x0 EQ JUMPDEST ISZERO PUSH2 0x822 JUMPI PUSH1 0x40 MLOAD PUSH4 0x91C7D22B PUSH1 0xE0 SHL DUP2 MSTORE PUSH1 0x4 ADD PUSH1 0x40 MLOAD DUP1 SWAP2 SUB SWAP1 REVERT JUMPDEST PUSH1 0x3 PUSH1 0x40 MLOAD DUP1 PUSH1 0xA0 ADD PUSH1 0x40 MSTORE DUP1 DUP12 DUP12 DUP6 DUP2 DUP2 LT PUSH2 0x841 JUMPI PUSH2 0x841 PUSH2 0x1373 JUMP JUMPDEST SWAP1 POP PUSH1 0x20 MUL ADD CALLDATALOAD DUP2 MSTORE PUSH1 0x20 ADD DUP10 DUP10 DUP6 DUP2 DUP2 LT PUSH2 0x85F JUMPI PUSH2 0x85F PUSH2 0x1373 JUMP JUMPDEST SWAP1 POP PUSH1 0x20 MUL ADD CALLDATALOAD DUP2 MSTORE PUSH1 0x20 ADD DUP8 DUP8 DUP6 DUP2 DUP2 LT PUSH2 0x87D JUMPI PUSH2 0x87D PUSH2 0x1373 JUMP JUMPDEST SWAP1 POP PUSH1 0x20 MUL ADD CALLDATALOAD DUP2 MSTORE PUSH1 0x20 ADD PUSH1 0x0 DUP2 MSTORE PUSH1 0x20 ADD DUP6 DUP6 DUP6 DUP2 DUP2 LT PUSH2 0x8A2 JUMPI PUSH2 0x8A2 PUSH2 0x1373 JUMP JUMPDEST SWAP1 POP PUSH1 0x20 MUL DUP2 ADD SWAP1 PUSH2 0x8B4 SWAP2 SWAP1 PUSH2 0x1473 JUMP JUMPDEST DUP1 DUP1 PUSH1 0x20 MUL PUSH1 0x20 ADD PUSH1 0x40 MLOAD SWAP1 DUP2 ADD PUSH1 0x40 MSTORE DUP1 SWAP4 SWAP3 SWAP2 SWAP1 DUP2 DUP2 MSTORE PUSH1 0x20 ADD DUP4 DUP4 PUSH1 0x20 MUL DUP1 DUP3 DUP5 CALLDATACOPY PUSH1 0x0 SWAP3 ADD DUP3 SWAP1 MSTORE POP SWAP4 SWAP1 SWAP5 MSTORE POP POP DUP4 SLOAD PUSH1 0x1 DUP2 DUP2 ADD DUP7 SSTORE SWAP5 DUP3 MSTORE PUSH1 0x20 SWAP2 DUP3 SWAP1 KECCAK256 DUP5 MLOAD PUSH1 0x5 SWAP1 SWAP3 MUL ADD SWAP1 DUP2 SSTORE DUP2 DUP5 ADD MLOAD SWAP5 DUP2 ADD SWAP5 SWAP1 SWAP5 SSTORE PUSH1 0x40 DUP4 ADD MLOAD PUSH1 0x2 DUP6 ADD SSTORE PUSH1 0x60 DUP4 ADD MLOAD PUSH1 0x3 DUP6 ADD SSTORE PUSH1 0x80 DUP4 ADD MLOAD DUP1 MLOAD SWAP4 SWAP5 SWAP4 PUSH2 0x941 SWAP4 POP PUSH1 0x4 DUP6 ADD SWAP3 SWAP2 SWAP1 SWAP2 ADD SWAP1 PUSH2 0xFC9 JUMP JUMPDEST POP POP POP PUSH1 0x1 ADD PUSH2 0x7BD JUMP JUMPDEST POP PUSH1 0x40 MLOAD DUP8 DUP2 MSTORE PUSH32 0x991F8CDE6942AF8F254DC31551B21FF8620C4291CB7E6AAF802643ECDFD9A373 SWAP1 PUSH1 0x20 ADD PUSH1 0x40 MLOAD DUP1 SWAP2 SUB SWAP1 LOG1 POP POP POP POP POP POP POP POP JUMP JUMPDEST PUSH2 0x992 PUSH2 0xEFB JUMP JUMPDEST PUSH1 0x2 DUP1 SLOAD PUSH1 0x1 PUSH1 0x1 PUSH1 0xA0 SHL SUB NOT AND PUSH1 0x1 PUSH1 0x1 PUSH1 0xA0 SHL SUB DUP4 AND SWAP1 DUP2 OR SWAP1 SWAP2 SSTORE PUSH1 0x40 MLOAD PUSH32 0xB3B3F5F64AB192E4B5FEFDE1F51CE9733BBDCF831951543B325AEBD49CC27EC4 SWAP1 PUSH1 0x0 SWAP1 LOG2 POP JUMP JUMPDEST PUSH1 0x3 DUP2 DUP2 SLOAD DUP2 LT PUSH2 0x9EC JUMPI PUSH1 0x0 DUP1 REVERT JUMPDEST PUSH1 0x0 SWAP2 DUP3 MSTORE PUSH1 0x20 SWAP1 SWAP2 KECCAK256 PUSH1 0x5 SWAP1 SWAP2 MUL ADD DUP1 SLOAD PUSH1 0x1 DUP3 ADD SLOAD PUSH1 0x2 DUP4 ADD SLOAD PUSH1 0x3 SWAP1 SWAP4 ADD SLOAD SWAP2 SWAP4 POP SWAP2 SWAP1 DUP5 JUMP JUMPDEST PUSH1 0x1 SLOAD PUSH1 0x60 SWAP1 PUSH1 0x1 PUSH1 0x1 PUSH1 0xA0 SHL SUB AND CALLER EQ PUSH2 0xA43 JUMPI PUSH1 0x40 MLOAD PUSH3 0x82B429 PUSH1 0xE8 SHL DUP2 MSTORE PUSH1 0x4 ADD PUSH1 0x40 MLOAD DUP1 SWAP2 SUB SWAP1 REVERT JUMPDEST PUSH2 0xA4B PUSH2 0xD66 JUMP JUMPDEST PUSH2 0xA55 DUP6 DUP6 PUSH2 0xD82 JUMP JUMPDEST PUSH1 0x0 DUP6 PUSH1 0x1 PUSH1 0x1 PUSH1 0xA0 SHL SUB AND DUP6 DUP6 DUP6 PUSH1 0x40 MLOAD PUSH2 0xA72 SWAP3 SWAP2 SWAP1 PUSH2 0x13F0 JUMP JUMPDEST PUSH1 0x0 PUSH1 0x40 MLOAD DUP1 DUP4 SUB DUP2 DUP6 DUP8 GAS CALL SWAP3 POP POP POP RETURNDATASIZE DUP1 PUSH1 0x0 DUP2 EQ PUSH2 0xAAF JUMPI PUSH1 0x40 MLOAD SWAP2 POP PUSH1 0x1F NOT PUSH1 0x3F RETURNDATASIZE ADD AND DUP3 ADD PUSH1 0x40 MSTORE RETURNDATASIZE DUP3 MSTORE RETURNDATASIZE PUSH1 0x0 PUSH1 0x20 DUP5 ADD RETURNDATACOPY PUSH2 0xAB4 JUMP JUMPDEST PUSH1 0x60 SWAP2 POP JUMPDEST POP SWAP3 POP SWAP1 POP DUP1 PUSH2 0xADB JUMPI DUP6 DUP3 PUSH1 0x40 MLOAD PUSH4 0x6C544F33 PUSH1 0xE0 SHL DUP2 MSTORE PUSH1 0x4 ADD PUSH2 0x58A SWAP3 SWAP2 SWAP1 PUSH2 0x1400 JUMP JUMPDEST DUP5 PUSH1 0x5 PUSH1 0x0 DUP3 DUP3 SLOAD PUSH2 0xAED SWAP2 SWAP1 PUSH2 0x10AF JUMP JUMPDEST SWAP3 POP POP DUP2 SWAP1 SSTORE POP DUP6 PUSH1 0x1 PUSH1 0x1 PUSH1 0xA0 SHL SUB AND PUSH32 0xF14109828D5D815638DC9502C935E53577AD503B62F45AB30BC6FF401E954ACD DUP7 DUP7 DUP7 DUP7 PUSH1 0x40 MLOAD PUSH2 0xB33 SWAP5 SWAP4 SWAP3 SWAP2 SWAP1 PUSH2 0x1424 JUMP JUMPDEST PUSH1 0x40 MLOAD DUP1 SWAP2 SUB SWAP1 LOG2 POP PUSH2 0xB53 PUSH1 0x1 PUSH1 0x0 DUP1 MLOAD PUSH1 0x20 PUSH2 0x14D1 DUP4 CODECOPY DUP2 MLOAD SWAP2 MSTORE SSTORE JUMP JUMPDEST SWAP5 SWAP4 POP POP POP POP JUMP JUMPDEST PUSH2 0xB63 PUSH2 0xEFB JUMP JUMPDEST PUSH1 0x1 DUP1 SLOAD PUSH1 0x1 PUSH1 0x1 PUSH1 0xA0 SHL SUB NOT AND PUSH1 0x1 PUSH1 0x1 PUSH1 0xA0 SHL SUB DUP4 AND SWAP1 DUP2 OR SWAP1 SWAP2 SSTORE PUSH1 0x40 MLOAD PUSH32 0xE9F337C154E801E0F86B6BC993DF9A2CD349BB210385592C7A52E38EA726334F SWAP1 PUSH1 0x0 SWAP1 LOG2 POP JUMP JUMPDEST PUSH1 0x0 DUP1 PUSH1 0x3 DUP4 DUP2 SLOAD DUP2 LT PUSH2 0xBC3 JUMPI PUSH2 0xBC3 PUSH2 0x1373 JUMP JUMPDEST SWAP1 PUSH1 0x0 MSTORE PUSH1 0x20 PUSH1 0x0 KECCAK256 SWAP1 PUSH1 0x5 MUL ADD SWAP1 POP DUP1 PUSH1 0x0 ADD SLOAD DUP2 PUSH1 0x2 ADD SLOAD PUSH2 0xBE7 SWAP2 SWAP1 PUSH2 0x10AF JUMP JUMPDEST TIMESTAMP LT PUSH2 0xBF7 JUMPI PUSH1 0x1 ADD SLOAD SWAP3 SWAP2 POP POP JUMP JUMPDEST DUP1 PUSH1 0x3 ADD SLOAD DUP2 PUSH1 0x1 ADD SLOAD GT PUSH2 0xC0D JUMPI PUSH1 0x0 PUSH2 0xC21 JUMP JUMPDEST DUP1 PUSH1 0x3 ADD SLOAD DUP2 PUSH1 0x1 ADD SLOAD PUSH2 0xC21 SWAP2 SWAP1 PUSH2 0x14BD JUMP JUMPDEST SWAP4 SWAP3 POP POP POP JUMP JUMPDEST PUSH2 0xC30 PUSH2 0xEFB JUMP JUMPDEST PUSH1 0x1 PUSH1 0x1 PUSH1 0xA0 SHL SUB DUP2 AND PUSH2 0xC5A JUMPI PUSH1 0x40 MLOAD PUSH4 0x1E4FBDF7 PUSH1 0xE0 SHL DUP2 MSTORE PUSH1 0x0 PUSH1 0x4 DUP3 ADD MSTORE PUSH1 0x24 ADD PUSH2 0x58A JUMP JUMPDEST PUSH2 0xC63 DUP2 PUSH2 0xF28 JUMP JUMPDEST POP JUMP JUMPDEST PUSH2 0xC6E PUSH2 0xEFB JUMP JUMPDEST PUSH2 0xC76 PUSH2 0xD66 JUMP JUMPDEST PUSH1 0x0 DUP3 PUSH1 0x1 PUSH1 0x1 PUSH1 0xA0 SHL SUB AND DUP3 PUSH1 0x40 MLOAD PUSH1 0x0 PUSH1 0x40 MLOAD DUP1 DUP4 SUB DUP2 DUP6 DUP8 GAS CALL SWAP3 POP POP POP RETURNDATASIZE DUP1 PUSH1 0x0 DUP2 EQ PUSH2 0xCC3 JUMPI PUSH1 0x40 MLOAD SWAP2 POP PUSH1 0x1F NOT PUSH1 0x3F RETURNDATASIZE ADD AND DUP3 ADD PUSH1 0x40 MSTORE RETURNDATASIZE DUP3 MSTORE RETURNDATASIZE PUSH1 0x0 PUSH1 0x20 DUP5 ADD RETURNDATACOPY PUSH2 0xCC8 JUMP JUMPDEST PUSH1 0x60 SWAP2 POP JUMPDEST POP POP SWAP1 POP DUP1 PUSH2 0xD0B JUMPI PUSH1 0x40 MLOAD PUSH3 0x461BCD PUSH1 0xE5 SHL DUP2 MSTORE PUSH1 0x20 PUSH1 0x4 DUP3 ADD MSTORE PUSH1 0xF PUSH1 0x24 DUP3 ADD MSTORE PUSH15 0x151C985B9CD9995C8819985A5B1959 PUSH1 0x8A SHL PUSH1 0x44 DUP3 ADD MSTORE PUSH1 0x64 ADD PUSH2 0x58A JUMP JUMPDEST DUP3 PUSH1 0x1 PUSH1 0x1 PUSH1 0xA0 SHL SUB AND PUSH32 0xEAFF4B37086828766AD3268786972C0CD24259D4C87A80F9D3963A3C3D999B0D DUP4 PUSH1 0x40 MLOAD PUSH2 0xD46 SWAP2 DUP2 MSTORE PUSH1 0x20 ADD SWAP1 JUMP JUMPDEST PUSH1 0x40 MLOAD DUP1 SWAP2 SUB SWAP1 LOG2 POP PUSH2 0x6F6 PUSH1 0x1 PUSH1 0x0 DUP1 MLOAD PUSH1 0x20 PUSH2 0x14D1 DUP4 CODECOPY DUP2 MLOAD SWAP2 MSTORE SSTORE JUMP JUMPDEST PUSH2 0xD6E PUSH2 0xF78 JUMP JUMPDEST PUSH1 0x2 PUSH1 0x0 DUP1 MLOAD PUSH1 0x20 PUSH2 0x14D1 DUP4 CODECOPY DUP2 MLOAD SWAP2 MSTORE SSTORE JUMP JUMPDEST DUP1 PUSH1 0x0 SUB PUSH2 0xD8E JUMPI POP POP JUMP JUMPDEST PUSH1 0x0 JUMPDEST PUSH1 0x3 SLOAD DUP2 LT ISZERO PUSH2 0xECE JUMPI PUSH1 0x0 PUSH1 0x3 DUP3 DUP2 SLOAD DUP2 LT PUSH2 0xDB0 JUMPI PUSH2 0xDB0 PUSH2 0x1373 JUMP JUMPDEST SWAP1 PUSH1 0x0 MSTORE PUSH1 0x20 PUSH1 0x0 KECCAK256 SWAP1 PUSH1 0x5 MUL ADD SWAP1 POP PUSH1 0x0 DUP1 JUMPDEST PUSH1 0x4 DUP4 ADD SLOAD DUP2 LT ISZERO PUSH2 0xE1A JUMPI DUP6 PUSH1 0x1 PUSH1 0x1 PUSH1 0xA0 SHL SUB AND DUP4 PUSH1 0x4 ADD DUP3 DUP2 SLOAD DUP2 LT PUSH2 0xDEF JUMPI PUSH2 0xDEF PUSH2 0x1373 JUMP JUMPDEST PUSH1 0x0 SWAP2 DUP3 MSTORE PUSH1 0x20 SWAP1 SWAP2 KECCAK256 ADD SLOAD PUSH1 0x1 PUSH1 0x1 PUSH1 0xA0 SHL SUB AND SUB PUSH2 0xE12 JUMPI PUSH1 0x1 SWAP2 POP PUSH2 0xE1A JUMP JUMPDEST PUSH1 0x1 ADD PUSH2 0xDC4 JUMP JUMPDEST POP DUP1 PUSH2 0xE27 JUMPI POP POP PUSH2 0xEC6 JUMP JUMPDEST DUP2 SLOAD PUSH1 0x2 DUP4 ADD SLOAD PUSH2 0xE38 SWAP2 SWAP1 PUSH2 0x10AF JUMP JUMPDEST TIMESTAMP LT PUSH2 0xE4C JUMPI TIMESTAMP PUSH1 0x2 DUP4 ADD SSTORE PUSH1 0x0 PUSH1 0x3 DUP4 ADD SSTORE JUMPDEST PUSH1 0x0 DUP3 PUSH1 0x3 ADD SLOAD DUP4 PUSH1 0x1 ADD SLOAD GT PUSH2 0xE64 JUMPI PUSH1 0x0 PUSH2 0xE78 JUMP JUMPDEST DUP3 PUSH1 0x3 ADD SLOAD DUP4 PUSH1 0x1 ADD SLOAD PUSH2 0xE78 SWAP2 SWAP1 PUSH2 0x14BD JUMP JUMPDEST SWAP1 POP DUP1 DUP6 GT ISZERO PUSH2 0xEA5 JUMPI PUSH1 0x40 MLOAD PUSH4 0x29A8B5F PUSH1 0xE4 SHL DUP2 MSTORE PUSH1 0x4 DUP2 ADD DUP7 SWAP1 MSTORE PUSH1 0x24 DUP2 ADD DUP3 SWAP1 MSTORE PUSH1 0x44 ADD PUSH2 0x58A JUMP JUMPDEST DUP5 DUP4 PUSH1 0x3 ADD PUSH1 0x0 DUP3 DUP3 SLOAD PUSH2 0xEB9 SWAP2 SWAP1 PUSH2 0x10AF JUMP JUMPDEST SWAP1 SWAP2 SSTORE POP POP POP POP POP POP POP POP JUMP JUMPDEST PUSH1 0x1 ADD PUSH2 0xD91 JUMP JUMPDEST POP PUSH1 0x3 SLOAD ISZERO PUSH2 0x6F6 JUMPI PUSH1 0x40 MLOAD PUSH4 0x47CCABE7 PUSH1 0xE0 SHL DUP2 MSTORE PUSH1 0x1 PUSH1 0x1 PUSH1 0xA0 SHL SUB DUP4 AND PUSH1 0x4 DUP3 ADD MSTORE PUSH1 0x24 ADD PUSH2 0x58A JUMP JUMPDEST PUSH1 0x0 SLOAD PUSH1 0x1 PUSH1 0x1 PUSH1 0xA0 SHL SUB AND CALLER EQ PUSH2 0x70C JUMPI PUSH1 0x40 MLOAD PUSH4 0x118CDAA7 PUSH1 0xE0 SHL DUP2 MSTORE CALLER PUSH1 0x4 DUP3 ADD MSTORE PUSH1 0x24 ADD PUSH2 0x58A JUMP JUMPDEST PUSH1 0x0 DUP1 SLOAD PUSH1 0x1 PUSH1 0x1 PUSH1 0xA0 SHL SUB DUP4 DUP2 AND PUSH1 0x1 PUSH1 0x1 PUSH1 0xA0 SHL SUB NOT DUP4 AND DUP2 OR DUP5 SSTORE PUSH1 0x40 MLOAD SWAP2 SWAP1 SWAP3 AND SWAP3 DUP4 SWAP2 PUSH32 0x8BE0079C531659141344CD1FD0A4F28419497F9722A3DAAFE3B4186F6B6457E0 SWAP2 SWAP1 LOG3 POP POP JUMP JUMPDEST PUSH1 0x0 DUP1 MLOAD PUSH1 0x20 PUSH2 0x14D1 DUP4 CODECOPY DUP2 MLOAD SWAP2 MSTORE SLOAD PUSH1 0x2 SUB PUSH2 0x70C JUMPI PUSH1 0x40 MLOAD PUSH4 0x3EE5AEB5 PUSH1 0xE0 SHL DUP2 MSTORE PUSH1 0x4 ADD PUSH1 0x40 MLOAD DUP1 SWAP2 SUB SWAP1 REVERT JUMPDEST POP DUP1 SLOAD PUSH1 0x0 DUP3 SSTORE PUSH1 0x5 MUL SWAP1 PUSH1 0x0 MSTORE PUSH1 0x20 PUSH1 0x0 KECCAK256 SWAP1 DUP2 ADD SWAP1 PUSH2 0xC63 SWAP2 SWAP1 PUSH2 0x102E JUMP JUMPDEST DUP3 DUP1 SLOAD DUP3 DUP3 SSTORE SWAP1 PUSH1 0x0 MSTORE PUSH1 0x20 PUSH1 0x0 KECCAK256 SWAP1 DUP2 ADD SWAP3 DUP3 ISZERO PUSH2 0x101E JUMPI SWAP2 PUSH1 0x20 MUL DUP3 ADD JUMPDEST DUP3 DUP2 GT ISZERO PUSH2 0x101E JUMPI DUP3 MLOAD DUP3 SLOAD PUSH1 0x1 PUSH1 0x1 PUSH1 0xA0 SHL SUB NOT AND PUSH1 0x1 PUSH1 0x1 PUSH1 0xA0 SHL SUB SWAP1 SWAP2 AND OR DUP3 SSTORE PUSH1 0x20 SWAP1 SWAP3 ADD SWAP2 PUSH1 0x1 SWAP1 SWAP2 ADD SWAP1 PUSH2 0xFE9 JUMP JUMPDEST POP PUSH2 0x102A SWAP3 SWAP2 POP PUSH2 0x1066 JUMP JUMPDEST POP SWAP1 JUMP JUMPDEST DUP1 DUP3 GT ISZERO PUSH2 0x102A JUMPI PUSH1 0x0 DUP1 DUP3 SSTORE PUSH1 0x1 DUP3 ADD DUP2 SWAP1 SSTORE PUSH1 0x2 DUP3 ADD DUP2 SWAP1 SSTORE PUSH1 0x3 DUP3 ADD DUP2 SWAP1 SSTORE PUSH2 0x105D PUSH1 0x4 DUP4 ADD DUP3 PUSH2 0x107B JUMP JUMPDEST POP PUSH1 0x5 ADD PUSH2 0x102E JUMP JUMPDEST JUMPDEST DUP1 DUP3 GT ISZERO PUSH2 0x102A JUMPI PUSH1 0x0 DUP2 SSTORE PUSH1 0x1 ADD PUSH2 0x1067 JUMP JUMPDEST POP DUP1 SLOAD PUSH1 0x0 DUP3 SSTORE SWAP1 PUSH1 0x0 MSTORE PUSH1 0x20 PUSH1 0x0 KECCAK256 SWAP1 DUP2 ADD SWAP1 PUSH2 0xC63 SWAP2 SWAP1 PUSH2 0x1066 JUMP JUMPDEST PUSH4 0x4E487B71 PUSH1 0xE0 SHL PUSH1 0x0 MSTORE PUSH1 0x11 PUSH1 0x4 MSTORE PUSH1 0x24 PUSH1 0x0 REVERT JUMPDEST DUP1 DUP3 ADD DUP1 DUP3 GT ISZERO PUSH2 0x10C2 JUMPI PUSH2 0x10C2 PUSH2 0x1099 JUMP JUMPDEST SWAP3 SWAP2 POP POP JUMP JUMPDEST PUSH1 0x0 DUP1 DUP4 PUSH1 0x1F DUP5 ADD SLT PUSH2 0x10DA JUMPI PUSH1 0x0 DUP1 REVERT JUMPDEST POP DUP2 CALLDATALOAD PUSH8 0xFFFFFFFFFFFFFFFF DUP2 GT ISZERO PUSH2 0x10F2 JUMPI PUSH1 0x0 DUP1 REVERT JUMPDEST PUSH1 0x20 DUP4 ADD SWAP2 POP DUP4 PUSH1 0x20 DUP3 PUSH1 0x5 SHL DUP6 ADD ADD GT ISZERO PUSH2 0x110D JUMPI PUSH1 0x0 DUP1 REVERT JUMPDEST SWAP3 POP SWAP3 SWAP1 POP JUMP JUMPDEST PUSH1 0x0 DUP1 PUSH1 0x20 DUP4 DUP6 SUB SLT ISZERO PUSH2 0x1127 JUMPI PUSH1 0x0 DUP1 REVERT JUMPDEST DUP3 CALLDATALOAD PUSH8 0xFFFFFFFFFFFFFFFF DUP2 GT ISZERO PUSH2 0x113E JUMPI PUSH1 0x0 DUP1 REVERT JUMPDEST PUSH2 0x114A DUP6 DUP3 DUP7 ADD PUSH2 0x10C8 JUMP JUMPDEST SWAP1 SWAP7 SWAP1 SWAP6 POP SWAP4 POP POP POP POP JUMP JUMPDEST PUSH1 0x0 DUP1 PUSH1 0x0 DUP1 PUSH1 0x0 DUP1 PUSH1 0x0 DUP1 PUSH1 0x80 DUP10 DUP12 SUB SLT ISZERO PUSH2 0x1172 JUMPI PUSH1 0x0 DUP1 REVERT JUMPDEST DUP9 CALLDATALOAD PUSH8 0xFFFFFFFFFFFFFFFF DUP1 DUP3 GT ISZERO PUSH2 0x118A JUMPI PUSH1 0x0 DUP1 REVERT JUMPDEST PUSH2 0x1196 DUP13 DUP4 DUP14 ADD PUSH2 0x10C8 JUMP JUMPDEST SWAP1 SWAP11 POP SWAP9 POP PUSH1 0x20 DUP12 ADD CALLDATALOAD SWAP2 POP DUP1 DUP3 GT ISZERO PUSH2 0x11AF JUMPI PUSH1 0x0 DUP1 REVERT JUMPDEST PUSH2 0x11BB DUP13 DUP4 DUP14 ADD PUSH2 0x10C8 JUMP JUMPDEST SWAP1 SWAP9 POP SWAP7 POP PUSH1 0x40 DUP12 ADD CALLDATALOAD SWAP2 POP DUP1 DUP3 GT ISZERO PUSH2 0x11D4 JUMPI PUSH1 0x0 DUP1 REVERT JUMPDEST PUSH2 0x11E0 DUP13 DUP4 DUP14 ADD PUSH2 0x10C8 JUMP JUMPDEST SWAP1 SWAP7 POP SWAP5 POP PUSH1 0x60 DUP12 ADD CALLDATALOAD SWAP2 POP DUP1 DUP3 GT ISZERO PUSH2 0x11F9 JUMPI PUSH1 0x0 DUP1 REVERT JUMPDEST POP PUSH2 0x1206 DUP12 DUP3 DUP13 ADD PUSH2 0x10C8 JUMP JUMPDEST SWAP10 SWAP13 SWAP9 SWAP12 POP SWAP7 SWAP10 POP SWAP5 SWAP8 SWAP4 SWAP7 SWAP3 SWAP6 SWAP5 POP POP POP JUMP JUMPDEST PUSH1 0x1 PUSH1 0x1 PUSH1 0xA0 SHL SUB DUP2 AND DUP2 EQ PUSH2 0xC63 JUMPI PUSH1 0x0 DUP1 REVERT JUMPDEST PUSH1 0x0 PUSH1 0x20 DUP3 DUP5 SUB SLT ISZERO PUSH2 0x1241 JUMPI PUSH1 0x0 DUP1 REVERT JUMPDEST DUP2 CALLDATALOAD PUSH2 0xC21 DUP2 PUSH2 0x121A JUMP JUMPDEST PUSH1 0x0 PUSH1 0x20 DUP3 DUP5 SUB SLT ISZERO PUSH2 0x125E JUMPI PUSH1 0x0 DUP1 REVERT JUMPDEST POP CALLDATALOAD SWAP2 SWAP1 POP JUMP JUMPDEST PUSH1 0x0 DUP1 PUSH1 0x0 DUP1 PUSH1 0x60 DUP6 DUP8 SUB SLT ISZERO PUSH2 0x127B JUMPI PUSH1 0x0 DUP1 REVERT JUMPDEST DUP5 CALLDATALOAD PUSH2 0x1286 DUP2 PUSH2 0x121A JUMP JUMPDEST SWAP4 POP PUSH1 0x20 DUP6 ADD CALLDATALOAD SWAP3 POP PUSH1 0x40 DUP6 ADD CALLDATALOAD PUSH8 0xFFFFFFFFFFFFFFFF DUP1 DUP3 GT ISZERO PUSH2 0x12AA JUMPI PUSH1 0x0 DUP1 REVERT JUMPDEST DUP2 DUP8 ADD SWAP2 POP DUP8 PUSH1 0x1F DUP4 ADD SLT PUSH2 0x12BE JUMPI PUSH1 0x0 DUP1 REVERT JUMPDEST DUP2 CALLDATALOAD DUP2 DUP2 GT ISZERO PUSH2 0x12CD JUMPI PUSH1 0x0 DUP1 REVERT JUMPDEST DUP9 PUSH1 0x20 DUP3 DUP6 ADD ADD GT ISZERO PUSH2 0x12DF JUMPI PUSH1 0x0 DUP1 REVERT JUMPDEST SWAP6 SWAP9 SWAP5 SWAP8 POP POP PUSH1 0x20 ADD SWAP5 POP POP POP JUMP JUMPDEST PUSH1 0x0 DUP2 MLOAD DUP1 DUP5 MSTORE PUSH1 0x0 JUMPDEST DUP2 DUP2 LT ISZERO PUSH2 0x1314 JUMPI PUSH1 0x20 DUP2 DUP6 ADD DUP2 ADD MLOAD DUP7 DUP4 ADD DUP3 ADD MSTORE ADD PUSH2 0x12F8 JUMP JUMPDEST POP PUSH1 0x0 PUSH1 0x20 DUP3 DUP7 ADD ADD MSTORE PUSH1 0x20 PUSH1 0x1F NOT PUSH1 0x1F DUP4 ADD AND DUP6 ADD ADD SWAP2 POP POP SWAP3 SWAP2 POP POP JUMP JUMPDEST PUSH1 0x20 DUP2 MSTORE PUSH1 0x0 PUSH2 0xC21 PUSH1 0x20 DUP4 ADD DUP5 PUSH2 0x12EE JUMP JUMPDEST PUSH1 0x0 DUP1 PUSH1 0x40 DUP4 DUP6 SUB SLT ISZERO PUSH2 0x135A JUMPI PUSH1 0x0 DUP1 REVERT JUMPDEST DUP3 CALLDATALOAD PUSH2 0x1365 DUP2 PUSH2 0x121A JUMP JUMPDEST SWAP5 PUSH1 0x20 SWAP4 SWAP1 SWAP4 ADD CALLDATALOAD SWAP4 POP POP POP JUMP JUMPDEST PUSH4 0x4E487B71 PUSH1 0xE0 SHL PUSH1 0x0 MSTORE PUSH1 0x32 PUSH1 0x4 MSTORE PUSH1 0x24 PUSH1 0x0 REVERT JUMPDEST PUSH1 0x0 DUP3 CALLDATALOAD PUSH1 0x5E NOT DUP4 CALLDATASIZE SUB ADD DUP2 SLT PUSH2 0x139F JUMPI PUSH1 0x0 DUP1 REVERT JUMPDEST SWAP2 SWAP1 SWAP2 ADD SWAP3 SWAP2 POP POP JUMP JUMPDEST PUSH1 0x0 DUP1 DUP4 CALLDATALOAD PUSH1 0x1E NOT DUP5 CALLDATASIZE SUB ADD DUP2 SLT PUSH2 0x13C0 JUMPI PUSH1 0x0 DUP1 REVERT JUMPDEST DUP4 ADD DUP1 CALLDATALOAD SWAP2 POP PUSH8 0xFFFFFFFFFFFFFFFF DUP3 GT ISZERO PUSH2 0x13DB JUMPI PUSH1 0x0 DUP1 REVERT JUMPDEST PUSH1 0x20 ADD SWAP2 POP CALLDATASIZE DUP2 SWAP1 SUB DUP3 SGT ISZERO PUSH2 0x110D JUMPI PUSH1 0x0 DUP1 REVERT JUMPDEST DUP2 DUP4 DUP3 CALLDATACOPY PUSH1 0x0 SWAP2 ADD SWAP1 DUP2 MSTORE SWAP2 SWAP1 POP JUMP JUMPDEST PUSH1 0x1 PUSH1 0x1 PUSH1 0xA0 SHL SUB DUP4 AND DUP2 MSTORE PUSH1 0x40 PUSH1 0x20 DUP3 ADD DUP2 SWAP1 MSTORE PUSH1 0x0 SWAP1 PUSH2 0xB53 SWAP1 DUP4 ADD DUP5 PUSH2 0x12EE JUMP JUMPDEST DUP5 DUP2 MSTORE PUSH1 0x60 PUSH1 0x20 DUP3 ADD MSTORE DUP3 PUSH1 0x60 DUP3 ADD MSTORE DUP3 DUP5 PUSH1 0x80 DUP4 ADD CALLDATACOPY PUSH1 0x0 PUSH1 0x80 DUP5 DUP4 ADD ADD MSTORE PUSH1 0x0 PUSH1 0x1F NOT PUSH1 0x1F DUP6 ADD AND DUP3 ADD PUSH1 0x80 DUP4 DUP3 SUB ADD PUSH1 0x40 DUP5 ADD MSTORE PUSH2 0x1468 PUSH1 0x80 DUP3 ADD DUP6 PUSH2 0x12EE JUMP JUMPDEST SWAP8 SWAP7 POP POP POP POP POP POP POP JUMP JUMPDEST PUSH1 0x0 DUP1 DUP4 CALLDATALOAD PUSH1 0x1E NOT DUP5 CALLDATASIZE SUB ADD DUP2 SLT PUSH2 0x148A JUMPI PUSH1 0x0 DUP1 REVERT JUMPDEST DUP4 ADD DUP1 CALLDATALOAD SWAP2 POP PUSH8 0xFFFFFFFFFFFFFFFF DUP3 GT ISZERO PUSH2 0x14A5 JUMPI PUSH1 0x0 DUP1 REVERT JUMPDEST PUSH1 0x20 ADD SWAP2 POP PUSH1 0x5 DUP2 SWAP1 SHL CALLDATASIZE SUB DUP3 SGT ISZERO PUSH2 0x110D JUMPI PUSH1 0x0 DUP1 REVERT JUMPDEST DUP2 DUP2 SUB DUP2 DUP2 GT ISZERO PUSH2 0x10C2 JUMPI PUSH2 0x10C2 PUSH2 0x1099 JUMP INVALID SWAP12 PUSH24 0x9B17422D0DF92223018B32B4D1FA46E071723D6817E2486D STOP EXTCODESIZE 0xEC 0xC5 PUSH0 STOP LOG2 PUSH5 0x6970667358 0x22 SLT KECCAK256 NOT PUSH0 SUB PUSH7 0x449B1C36D0B230 KECCAK256 EXTCODEHASH ISZERO SDIV DUP13 ADD ISZERO 0xF8 PUSH31 0xFF7A0F73A52E015223D6450964736F6C634300081800330000000000000000 "},"methodIdentifiers":{"agent()":"f5ff5c76","configureSpendingRules(uint256[],uint256[],uint256[],address[][])":"718f8794","execute(address,uint256,bytes)":"b61d27f6","executeBatch((address,uint256,bytes)[])":"34fcd5be","getBalance()":"12065fe0","getRemainingBudget(uint256)":"efaa79b1","getRuleCount()":"5c3ca910","operator()":"570ca735","owner()":"8da5cb5b","renounceOwnership()":"715018a6","setAgent(address)":"bcf685ed","setOperator(address)":"b3ab15fb","spendingRules(uint256)":"b5b9a519","totalDeposited()":"ff50abdc","totalSpent()":"fb346eab","transferOwnership(address)":"f2fde38b","withdraw(address,uint256)":"f3fef3a3"}}}}}