{
  "_format": "hh-sol-artifact-1",
  "contractName": "SubscriptionPass",
  "sourceName": "contracts/SubscriptionPass.sol",
  "abi": [
    {
      "inputs": [
        {
          "internalType": "address",
          "name": "initialOwner",
          "type": "address"
        },
        {
          "internalType": "address",
          "name": "usdtAddress",
          "type": "address"
        }
      ],
      "stateMutability": "nonpayable",
      "type": "constructor"
    },
    {
      "inputs": [
        {
          "internalType": "address",
          "name": "sender",
          "type": "address"
        },
        {
          "internalType": "uint256",
          "name": "balance",
          "type": "uint256"
        },
        {
          "internalType": "uint256",
          "name": "needed",
          "type": "uint256"
        },
        {
          "internalType": "uint256",
          "name": "tokenId",
          "type": "uint256"
        }
      ],
      "name": "ERC1155InsufficientBalance",
      "type": "error"
    },
    {
      "inputs": [
        {
          "internalType": "address",
          "name": "approver",
          "type": "address"
        }
      ],
      "name": "ERC1155InvalidApprover",
      "type": "error"
    },
    {
      "inputs": [
        {
          "internalType": "uint256",
          "name": "idsLength",
          "type": "uint256"
        },
        {
          "internalType": "uint256",
          "name": "valuesLength",
          "type": "uint256"
        }
      ],
      "name": "ERC1155InvalidArrayLength",
      "type": "error"
    },
    {
      "inputs": [
        {
          "internalType": "address",
          "name": "operator",
          "type": "address"
        }
      ],
      "name": "ERC1155InvalidOperator",
      "type": "error"
    },
    {
      "inputs": [
        {
          "internalType": "address",
          "name": "receiver",
          "type": "address"
        }
      ],
      "name": "ERC1155InvalidReceiver",
      "type": "error"
    },
    {
      "inputs": [
        {
          "internalType": "address",
          "name": "sender",
          "type": "address"
        }
      ],
      "name": "ERC1155InvalidSender",
      "type": "error"
    },
    {
      "inputs": [
        {
          "internalType": "address",
          "name": "operator",
          "type": "address"
        },
        {
          "internalType": "address",
          "name": "owner",
          "type": "address"
        }
      ],
      "name": "ERC1155MissingApprovalForAll",
      "type": "error"
    },
    {
      "inputs": [
        {
          "internalType": "uint8",
          "name": "tier",
          "type": "uint8"
        }
      ],
      "name": "InvalidTier",
      "type": "error"
    },
    {
      "inputs": [
        {
          "internalType": "address",
          "name": "owner",
          "type": "address"
        }
      ],
      "name": "OwnableInvalidOwner",
      "type": "error"
    },
    {
      "inputs": [
        {
          "internalType": "address",
          "name": "account",
          "type": "address"
        }
      ],
      "name": "OwnableUnauthorizedAccount",
      "type": "error"
    },
    {
      "inputs": [],
      "name": "PaymentFailed",
      "type": "error"
    },
    {
      "inputs": [],
      "name": "ReentrancyGuardReentrantCall",
      "type": "error"
    },
    {
      "inputs": [],
      "name": "TransferNotAllowed",
      "type": "error"
    },
    {
      "anonymous": false,
      "inputs": [
        {
          "indexed": true,
          "internalType": "address",
          "name": "account",
          "type": "address"
        },
        {
          "indexed": true,
          "internalType": "address",
          "name": "operator",
          "type": "address"
        },
        {
          "indexed": false,
          "internalType": "bool",
          "name": "approved",
          "type": "bool"
        }
      ],
      "name": "ApprovalForAll",
      "type": "event"
    },
    {
      "anonymous": false,
      "inputs": [
        {
          "indexed": true,
          "internalType": "address",
          "name": "previousOwner",
          "type": "address"
        },
        {
          "indexed": true,
          "internalType": "address",
          "name": "newOwner",
          "type": "address"
        }
      ],
      "name": "OwnershipTransferred",
      "type": "event"
    },
    {
      "anonymous": false,
      "inputs": [
        {
          "indexed": true,
          "internalType": "address",
          "name": "subscriber",
          "type": "address"
        },
        {
          "indexed": false,
          "internalType": "uint8",
          "name": "tier",
          "type": "uint8"
        },
        {
          "indexed": false,
          "internalType": "uint256",
          "name": "expiresAt",
          "type": "uint256"
        },
        {
          "indexed": false,
          "internalType": "uint256",
          "name": "price",
          "type": "uint256"
        }
      ],
      "name": "PassPurchased",
      "type": "event"
    },
    {
      "anonymous": false,
      "inputs": [
        {
          "indexed": true,
          "internalType": "address",
          "name": "to",
          "type": "address"
        },
        {
          "indexed": false,
          "internalType": "uint256",
          "name": "amount",
          "type": "uint256"
        }
      ],
      "name": "RevenueWithdrawn",
      "type": "event"
    },
    {
      "anonymous": false,
      "inputs": [
        {
          "indexed": true,
          "internalType": "address",
          "name": "operator",
          "type": "address"
        },
        {
          "indexed": true,
          "internalType": "address",
          "name": "from",
          "type": "address"
        },
        {
          "indexed": true,
          "internalType": "address",
          "name": "to",
          "type": "address"
        },
        {
          "indexed": false,
          "internalType": "uint256[]",
          "name": "ids",
          "type": "uint256[]"
        },
        {
          "indexed": false,
          "internalType": "uint256[]",
          "name": "values",
          "type": "uint256[]"
        }
      ],
      "name": "TransferBatch",
      "type": "event"
    },
    {
      "anonymous": false,
      "inputs": [
        {
          "indexed": true,
          "internalType": "address",
          "name": "operator",
          "type": "address"
        },
        {
          "indexed": true,
          "internalType": "address",
          "name": "from",
          "type": "address"
        },
        {
          "indexed": true,
          "internalType": "address",
          "name": "to",
          "type": "address"
        },
        {
          "indexed": false,
          "internalType": "uint256",
          "name": "id",
          "type": "uint256"
        },
        {
          "indexed": false,
          "internalType": "uint256",
          "name": "value",
          "type": "uint256"
        }
      ],
      "name": "TransferSingle",
      "type": "event"
    },
    {
      "anonymous": false,
      "inputs": [
        {
          "indexed": false,
          "internalType": "string",
          "name": "value",
          "type": "string"
        },
        {
          "indexed": true,
          "internalType": "uint256",
          "name": "id",
          "type": "uint256"
        }
      ],
      "name": "URI",
      "type": "event"
    },
    {
      "inputs": [],
      "name": "DURATION_30D",
      "outputs": [
        {
          "internalType": "uint256",
          "name": "",
          "type": "uint256"
        }
      ],
      "stateMutability": "view",
      "type": "function"
    },
    {
      "inputs": [],
      "name": "DURATION_7D",
      "outputs": [
        {
          "internalType": "uint256",
          "name": "",
          "type": "uint256"
        }
      ],
      "stateMutability": "view",
      "type": "function"
    },
    {
      "inputs": [],
      "name": "PRICE_BASIC",
      "outputs": [
        {
          "internalType": "uint256",
          "name": "",
          "type": "uint256"
        }
      ],
      "stateMutability": "view",
      "type": "function"
    },
    {
      "inputs": [],
      "name": "PRICE_ELITE",
      "outputs": [
        {
          "internalType": "uint256",
          "name": "",
          "type": "uint256"
        }
      ],
      "stateMutability": "view",
      "type": "function"
    },
    {
      "inputs": [],
      "name": "PRICE_PRO",
      "outputs": [
        {
          "internalType": "uint256",
          "name": "",
          "type": "uint256"
        }
      ],
      "stateMutability": "view",
      "type": "function"
    },
    {
      "inputs": [],
      "name": "TIER_BASIC",
      "outputs": [
        {
          "internalType": "uint8",
          "name": "",
          "type": "uint8"
        }
      ],
      "stateMutability": "view",
      "type": "function"
    },
    {
      "inputs": [],
      "name": "TIER_ELITE",
      "outputs": [
        {
          "internalType": "uint8",
          "name": "",
          "type": "uint8"
        }
      ],
      "stateMutability": "view",
      "type": "function"
    },
    {
      "inputs": [],
      "name": "TIER_PRO",
      "outputs": [
        {
          "internalType": "uint8",
          "name": "",
          "type": "uint8"
        }
      ],
      "stateMutability": "view",
      "type": "function"
    },
    {
      "inputs": [
        {
          "internalType": "address",
          "name": "account",
          "type": "address"
        },
        {
          "internalType": "uint256",
          "name": "id",
          "type": "uint256"
        }
      ],
      "name": "balanceOf",
      "outputs": [
        {
          "internalType": "uint256",
          "name": "",
          "type": "uint256"
        }
      ],
      "stateMutability": "view",
      "type": "function"
    },
    {
      "inputs": [
        {
          "internalType": "address[]",
          "name": "accounts",
          "type": "address[]"
        },
        {
          "internalType": "uint256[]",
          "name": "ids",
          "type": "uint256[]"
        }
      ],
      "name": "balanceOfBatch",
      "outputs": [
        {
          "internalType": "uint256[]",
          "name": "",
          "type": "uint256[]"
        }
      ],
      "stateMutability": "view",
      "type": "function"
    },
    {
      "inputs": [
        {
          "internalType": "address",
          "name": "subscriber",
          "type": "address"
        }
      ],
      "name": "isActive",
      "outputs": [
        {
          "internalType": "bool",
          "name": "active",
          "type": "bool"
        },
        {
          "internalType": "uint8",
          "name": "tier",
          "type": "uint8"
        },
        {
          "internalType": "uint256",
          "name": "expiresAt",
          "type": "uint256"
        }
      ],
      "stateMutability": "view",
      "type": "function"
    },
    {
      "inputs": [
        {
          "internalType": "address",
          "name": "account",
          "type": "address"
        },
        {
          "internalType": "address",
          "name": "operator",
          "type": "address"
        }
      ],
      "name": "isApprovedForAll",
      "outputs": [
        {
          "internalType": "bool",
          "name": "",
          "type": "bool"
        }
      ],
      "stateMutability": "view",
      "type": "function"
    },
    {
      "inputs": [],
      "name": "owner",
      "outputs": [
        {
          "internalType": "address",
          "name": "",
          "type": "address"
        }
      ],
      "stateMutability": "view",
      "type": "function"
    },
    {
      "inputs": [
        {
          "internalType": "uint8",
          "name": "tier",
          "type": "uint8"
        }
      ],
      "name": "purchase",
      "outputs": [],
      "stateMutability": "nonpayable",
      "type": "function"
    },
    {
      "inputs": [],
      "name": "renounceOwnership",
      "outputs": [],
      "stateMutability": "nonpayable",
      "type": "function"
    },
    {
      "inputs": [
        {
          "internalType": "address",
          "name": "from",
          "type": "address"
        },
        {
          "internalType": "address",
          "name": "to",
          "type": "address"
        },
        {
          "internalType": "uint256[]",
          "name": "ids",
          "type": "uint256[]"
        },
        {
          "internalType": "uint256[]",
          "name": "values",
          "type": "uint256[]"
        },
        {
          "internalType": "bytes",
          "name": "data",
          "type": "bytes"
        }
      ],
      "name": "safeBatchTransferFrom",
      "outputs": [],
      "stateMutability": "nonpayable",
      "type": "function"
    },
    {
      "inputs": [
        {
          "internalType": "address",
          "name": "from",
          "type": "address"
        },
        {
          "internalType": "address",
          "name": "to",
          "type": "address"
        },
        {
          "internalType": "uint256",
          "name": "id",
          "type": "uint256"
        },
        {
          "internalType": "uint256",
          "name": "value",
          "type": "uint256"
        },
        {
          "internalType": "bytes",
          "name": "data",
          "type": "bytes"
        }
      ],
      "name": "safeTransferFrom",
      "outputs": [],
      "stateMutability": "nonpayable",
      "type": "function"
    },
    {
      "inputs": [
        {
          "internalType": "address",
          "name": "operator",
          "type": "address"
        },
        {
          "internalType": "bool",
          "name": "approved",
          "type": "bool"
        }
      ],
      "name": "setApprovalForAll",
      "outputs": [],
      "stateMutability": "nonpayable",
      "type": "function"
    },
    {
      "inputs": [
        {
          "internalType": "string",
          "name": "newURI",
          "type": "string"
        }
      ],
      "name": "setURI",
      "outputs": [],
      "stateMutability": "nonpayable",
      "type": "function"
    },
    {
      "inputs": [
        {
          "internalType": "bytes4",
          "name": "interfaceId",
          "type": "bytes4"
        }
      ],
      "name": "supportsInterface",
      "outputs": [
        {
          "internalType": "bool",
          "name": "",
          "type": "bool"
        }
      ],
      "stateMutability": "view",
      "type": "function"
    },
    {
      "inputs": [
        {
          "internalType": "uint8",
          "name": "tier",
          "type": "uint8"
        }
      ],
      "name": "tierConfig",
      "outputs": [
        {
          "internalType": "uint256",
          "name": "price",
          "type": "uint256"
        },
        {
          "internalType": "uint256",
          "name": "duration",
          "type": "uint256"
        },
        {
          "internalType": "string",
          "name": "name",
          "type": "string"
        }
      ],
      "stateMutability": "pure",
      "type": "function"
    },
    {
      "inputs": [],
      "name": "totalRevenue",
      "outputs": [
        {
          "internalType": "uint256",
          "name": "",
          "type": "uint256"
        }
      ],
      "stateMutability": "view",
      "type": "function"
    },
    {
      "inputs": [
        {
          "internalType": "address",
          "name": "newOwner",
          "type": "address"
        }
      ],
      "name": "transferOwnership",
      "outputs": [],
      "stateMutability": "nonpayable",
      "type": "function"
    },
    {
      "inputs": [
        {
          "internalType": "uint256",
          "name": "",
          "type": "uint256"
        }
      ],
      "name": "uri",
      "outputs": [
        {
          "internalType": "string",
          "name": "",
          "type": "string"
        }
      ],
      "stateMutability": "view",
      "type": "function"
    },
    {
      "inputs": [],
      "name": "usdt",
      "outputs": [
        {
          "internalType": "contract IERC20",
          "name": "",
          "type": "address"
        }
      ],
      "stateMutability": "view",
      "type": "function"
    },
    {
      "inputs": [
        {
          "internalType": "address",
          "name": "to",
          "type": "address"
        }
      ],
      "name": "withdrawRevenue",
      "outputs": [],
      "stateMutability": "nonpayable",
      "type": "function"
    }
  ],
  "bytecode": "0x60a060405234801562000010575f80fd5b506040516200201c3803806200201c83398101604081905262000033916200014a565b816040518060600160405280602d815260200162001fef602d91396200005981620000cb565b506001600160a01b0381166200008857604051631e4fbdf760e01b81525f600482015260240160405180910390fd5b6200009381620000dd565b5060017f9b779b17422d0df92223018b32b4d1fa46e071723d6817e2486d003becc55f00556001600160a01b031660805250620002ea565b6002620000d982826200021e565b5050565b600380546001600160a01b038381166001600160a01b0319831681179093556040519116919082907f8be0079c531659141344cd1fd0a4f28419497f9722a3daafe3b4186f6b6457e0905f90a35050565b80516001600160a01b038116811462000145575f80fd5b919050565b5f80604083850312156200015c575f80fd5b62000167836200012e565b915062000177602084016200012e565b90509250929050565b634e487b7160e01b5f52604160045260245ffd5b600181811c90821680620001a957607f821691505b602082108103620001c857634e487b7160e01b5f52602260045260245ffd5b50919050565b601f8211156200021957805f5260205f20601f840160051c81016020851015620001f55750805b601f840160051c820191505b8181101562000216575f815560010162000201565b50505b505050565b81516001600160401b038111156200023a576200023a62000180565b62000252816200024b845462000194565b84620001ce565b602080601f83116001811462000288575f8415620002705750858301515b5f19600386901b1c1916600185901b178555620002e2565b5f85815260208120601f198616915b82811015620002b85788860151825594840194600190910190840162000297565b5085821015620002d657878501515f19600388901b60f8161c191681555b505060018460011b0185555b505050505050565b608051611cd7620003185f395f818161023a01528181610574015281816108f801526109cf0152611cd75ff3fe608060405234801561000f575f80fd5b5060043610610186575f3560e01c8063715018a6116100d9578063b597393e11610093578063dcc42fc21161006e578063dcc42fc21461038c578063e985e9c514610394578063f242432a146103cf578063f2fde38b146103e2575f80fd5b8063b597393e1461036a578063bf2d9e0b14610379578063cb2c5e0014610382575f80fd5b8063715018a6146102f55780637771a9ca146102fd5780637c3bc86e146103055780638da5cb5b146103145780639f8a13d714610325578063a22cb46514610357575f80fd5b80632f48ab7d116101445780634e0db3c31161011f5780634e0db3c3146102a95780634e1273f4146102b85780635e420f4c146102d85780636bccc297146102eb575f80fd5b80632f48ab7d146102355780633298df7614610274578063468b542514610287575f80fd5b8062fdd58e1461018a57806301ffc9a7146101b057806302fe5305146101d357806303510c95146101e85780630e89341c146102025780632eb2c2d614610222575b5f80fd5b61019d6101983660046114c4565b6103f5565b6040519081526020015b60405180910390f35b6101c36101be366004611501565b61041c565b60405190151581526020016101a7565b6101e66101e13660046115bd565b61046b565b005b6101f0600281565b60405160ff90911681526020016101a7565b61021561021036600461160a565b61047f565b6040516101a79190611664565b6101e6610230366004611723565b610511565b61025c7f000000000000000000000000000000000000000000000000000000000000000081565b6040516001600160a01b0390911681526020016101a7565b6101e66102823660046117c6565b610530565b61029a6102953660046117c6565b61071e565b6040516101a7939291906117e6565b61019d67d02ab486cedc000081565b6102cb6102c636600461180d565b610806565b6040516101a79190611901565b6101e66102e6366004611913565b6108d1565b61019d62278d0081565b6101e6610ad7565b6101f0600381565b61019d670de0b6b3a764000081565b6003546001600160a01b031661025c565b610338610333366004611913565b610aea565b60408051931515845260ff9092166020840152908201526060016101a7565b6101e6610365366004611939565b610b48565b61019d674563918244f4000081565b61019d60065481565b61019d62093a8081565b6101f0600181565b6101c36103a236600461196e565b6001600160a01b039182165f90815260016020908152604080832093909416825291909152205460ff1690565b6101e66103dd36600461199f565b610b57565b6101e66103f0366004611913565b610b6d565b5f818152602081815260408083206001600160a01b03861684529091529020545b92915050565b5f6001600160e01b03198216636cdb3d1360e11b148061044c57506001600160e01b031982166303a24d0760e21b145b8061041657506301ffc9a760e01b6001600160e01b0319831614610416565b610473610ba7565b61047c81610bd4565b50565b60606002805461048e906119ff565b80601f01602080910402602001604051908101604052809291908181526020018280546104ba906119ff565b80156105055780601f106104dc57610100808354040283529160200191610505565b820191905f5260205f20905b8154815290600101906020018083116104e857829003601f168201915b50505050509050919050565b61051c335b86610be0565b6105298585858585610c58565b5050505050565b610538610cb8565b5f8061054383610cd3565b6040516323b872dd60e01b81523360048201523060248201526044810183905291935091505f906001600160a01b037f000000000000000000000000000000000000000000000000000000000000000016906323b872dd906064016020604051808303815f875af11580156105ba573d5f803e3d5ffd5b505050506040513d601f19601f820116820180604052508101906105de9190611a37565b9050806105fe576040516307a4ced160e51b815260040160405180910390fd5b8260065f82825461060f9190611a52565b9091555050335f90815260046020526040812054904282116106315742610633565b815b90505f6106408583611a52565b335f9081526005602052604090205490915060ff16801580159061066357504284115b1561067757610677338260ff166001610d55565b335f81815260046020908152604080832086905560058252808320805460ff191660ff8e1690811790915581519283019091529181526106bb929190600190610dbc565b6040805160ff8a1681526020810184905290810188905233907fe22f6162e37aefcf9885664da3531d4d930134f651867c98b45878ae59f233e19060600160405180910390a25050505050505061047c60015f80516020611c8283398151915255565b5f8060605f1960ff851601610760575050604080518082019091526005815264426173696360d81b6020820152670de0b6b3a7640000915062093a80906107ff565b60011960ff85160161079d57505060408051808201909152600381526250726f60e81b6020820152674563918244f40000915062093a80906107ff565b60021960ff8516016107dc575050604080518082019091526005815264456c69746560d81b602082015267d02ab486cedc0000915062278d00906107ff565b604051635e50d4ab60e11b815260ff851660048201526024015b60405180910390fd5b9193909250565b606081518351146108375781518351604051635b05999160e01b8152600481019290925260248201526044016107f6565b5f835167ffffffffffffffff81111561085257610852611523565b60405190808252806020026020018201604052801561087b578160200160208202803683370190505b5090505f5b84518110156108c9576020808202860101516108a4906020808402870101516103f5565b8282815181106108b6576108b6611a71565b6020908102919091010152600101610880565b509392505050565b6108d9610ba7565b6108e1610cb8565b6040516370a0823160e01b81523060048201525f907f00000000000000000000000000000000000000000000000000000000000000006001600160a01b0316906370a0823190602401602060405180830381865afa158015610945573d5f803e3d5ffd5b505050506040513d601f19601f820116820180604052508101906109699190611a85565b90505f81116109a75760405162461bcd60e51b815260206004820152600a6024820152694e6f2062616c616e636560b01b60448201526064016107f6565b60405163a9059cbb60e01b81526001600160a01b038381166004830152602482018390525f917f00000000000000000000000000000000000000000000000000000000000000009091169063a9059cbb906044016020604051808303815f875af1158015610a17573d5f803e3d5ffd5b505050506040513d601f19601f82011682018060405250810190610a3b9190611a37565b905080610a7c5760405162461bcd60e51b815260206004820152600f60248201526e151c985b9cd9995c8819985a5b1959608a1b60448201526064016107f6565b826001600160a01b03167f86a5cc8fe9af9ae68fb50f62885307a7755a30cbd290131644377f0bd94a718183604051610ab791815260200190565b60405180910390a2505061047c60015f80516020611c8283398151915255565b610adf610ba7565b610ae85f610e20565b565b6001600160a01b0381165f90815260056020908152604080832054600490925282205460ff90911690428111838315801590610b3157505f610b2f878660ff166103f5565b115b9050818015610b3d5750805b945050509193909250565b610b53338383610e71565b5050565b610b6033610516565b6105298585858585610f2e565b610b75610ba7565b6001600160a01b038116610b9e57604051631e4fbdf760e01b81525f60048201526024016107f6565b61047c81610e20565b6003546001600160a01b03163314610ae85760405163118cdaa760e01b81523360048201526024016107f6565b6002610b538282611ae5565b816001600160a01b0316816001600160a01b031614158015610c2757506001600160a01b038082165f9081526001602090815260408083209386168352929052205460ff16155b15610b535760405163711bec9160e11b81526001600160a01b038084166004830152821660248201526044016107f6565b6001600160a01b038416610c8157604051632bfa23e760e11b81525f60048201526024016107f6565b6001600160a01b038516610ca957604051626a0d4560e21b81525f60048201526024016107f6565b61052985858585856001610fbb565b610cc0611013565b60025f80516020611c8283398151915255565b5f805f1960ff841601610cf55750670de0b6b3a76400009262093a8092509050565b60011960ff841601610d165750674563918244f400009262093a8092509050565b60021960ff841601610d37575067d02ab486cedc00009262278d0092509050565b604051635e50d4ab60e11b815260ff841660048201526024016107f6565b6001600160a01b038316610d7d57604051626a0d4560e21b81525f60048201526024016107f6565b604080516001808252602082018590528183019081526060820184905260a082019092525f608082018181529192916105299187918590859083610fbb565b6001600160a01b038416610de557604051632bfa23e760e11b81525f60048201526024016107f6565b60408051600180825260208201869052818301908152606082018590526080820190925290610e185f8784848784610fbb565b505050505050565b600380546001600160a01b038381166001600160a01b0319831681179093556040519116919082907f8be0079c531659141344cd1fd0a4f28419497f9722a3daafe3b4186f6b6457e0905f90a35050565b6001600160a01b038316610e9a57604051631f18c42760e11b81525f60048201526024016107f6565b6001600160a01b038216610ec25760405162ced3e160e81b81525f60048201526024016107f6565b6001600160a01b038381165f81815260016020908152604080832094871680845294825291829020805460ff191686151590811790915591519182527f17307eab39ab6107e8899845ad3d59bd9653f200f220920489ca2b5937696c31910160405180910390a3505050565b6001600160a01b038416610f5757604051632bfa23e760e11b81525f60048201526024016107f6565b6001600160a01b038516610f7f57604051626a0d4560e21b81525f60048201526024016107f6565b60408051600180825260208201869052818301908152606082018590526080820190925290610fb287878484875f610fbb565b50505050505050565b610fc786868686611042565b6001600160a01b03851615610e1857338115610ff057610feb818888888888611092565b610fb2565b60208581015190850151611008838a8a85858a6111b3565b505050505050505050565b5f80516020611c8283398151915254600203610ae857604051633ee5aeb560e01b815260040160405180910390fd5b6001600160a01b0384161580159061106257506001600160a01b03831615155b1561108057604051638cd22d1960e01b815260040160405180910390fd5b61108c8484848461129a565b50505050565b6001600160a01b0384163b15610e185760405163bc197c8160e01b81526001600160a01b0385169063bc197c81906110d69089908990889088908890600401611ba1565b6020604051808303815f875af1925050508015611110575060408051601f3d908101601f1916820190925261110d91810190611bfe565b60015b611177573d80801561113d576040519150601f19603f3d011682016040523d82523d5f602084013e611142565b606091505b5080515f0361116f57604051632bfa23e760e11b81526001600160a01b03861660048201526024016107f6565b805160208201fd5b6001600160e01b0319811663bc197c8160e01b14610fb257604051632bfa23e760e11b81526001600160a01b03861660048201526024016107f6565b6001600160a01b0384163b15610e185760405163f23a6e6160e01b81526001600160a01b0385169063f23a6e61906111f79089908990889088908890600401611c19565b6020604051808303815f875af1925050508015611231575060408051601f3d908101601f1916820190925261122e91810190611bfe565b60015b61125e573d80801561113d576040519150601f19603f3d011682016040523d82523d5f602084013e611142565b6001600160e01b0319811663f23a6e6160e01b14610fb257604051632bfa23e760e11b81526001600160a01b03861660048201526024016107f6565b80518251146112c95781518151604051635b05999160e01b8152600481019290925260248201526044016107f6565b335f5b83518110156113cb576020818102858101820151908501909101516001600160a01b0388161561137d575f828152602081815260408083206001600160a01b038c16845290915290205481811015611357576040516303dee4c560e01b81526001600160a01b038a1660048201526024810182905260448101839052606481018490526084016107f6565b5f838152602081815260408083206001600160a01b038d16845290915290209082900390555b6001600160a01b038716156113c1575f828152602081815260408083206001600160a01b038b168452909152812080548392906113bb908490611a52565b90915550505b50506001016112cc565b50825160010361144b5760208301515f906020840151909150856001600160a01b0316876001600160a01b0316846001600160a01b03167fc3d58168c5ae7397731d063d5bbf3d657854427343f4c083240f7aacaa2d0f62858560405161143c929190918252602082015260400190565b60405180910390a45050610529565b836001600160a01b0316856001600160a01b0316826001600160a01b03167f4a39dc06d4c0dbc64b70af90fd698a233a518aa5d07e595d983b8c0526c8f7fb868660405161149a929190611c5d565b60405180910390a45050505050565b80356001600160a01b03811681146114bf575f80fd5b919050565b5f80604083850312156114d5575f80fd5b6114de836114a9565b946020939093013593505050565b6001600160e01b03198116811461047c575f80fd5b5f60208284031215611511575f80fd5b813561151c816114ec565b9392505050565b634e487b7160e01b5f52604160045260245ffd5b604051601f8201601f1916810167ffffffffffffffff8111828210171561156057611560611523565b604052919050565b5f67ffffffffffffffff83111561158157611581611523565b611594601f8401601f1916602001611537565b90508281528383830111156115a7575f80fd5b828260208301375f602084830101529392505050565b5f602082840312156115cd575f80fd5b813567ffffffffffffffff8111156115e3575f80fd5b8201601f810184136115f3575f80fd5b61160284823560208401611568565b949350505050565b5f6020828403121561161a575f80fd5b5035919050565b5f81518084525f5b8181101561164557602081850181015186830182015201611629565b505f602082860101526020601f19601f83011685010191505092915050565b602081525f61151c6020830184611621565b5f67ffffffffffffffff82111561168f5761168f611523565b5060051b60200190565b5f82601f8301126116a8575f80fd5b813560206116bd6116b883611676565b611537565b8083825260208201915060208460051b8701019350868411156116de575f80fd5b602086015b848110156116fa57803583529183019183016116e3565b509695505050505050565b5f82601f830112611714575f80fd5b61151c83833560208501611568565b5f805f805f60a08688031215611737575f80fd5b611740866114a9565b945061174e602087016114a9565b9350604086013567ffffffffffffffff8082111561176a575f80fd5b61177689838a01611699565b9450606088013591508082111561178b575f80fd5b61179789838a01611699565b935060808801359150808211156117ac575f80fd5b506117b988828901611705565b9150509295509295909350565b5f602082840312156117d6575f80fd5b813560ff8116811461151c575f80fd5b838152826020820152606060408201525f6118046060830184611621565b95945050505050565b5f806040838503121561181e575f80fd5b823567ffffffffffffffff80821115611835575f80fd5b818501915085601f830112611848575f80fd5b813560206118586116b883611676565b82815260059290921b84018101918181019089841115611876575f80fd5b948201945b8386101561189b5761188c866114a9565b8252948201949082019061187b565b965050860135925050808211156118b0575f80fd5b506118bd85828601611699565b9150509250929050565b5f815180845260208085019450602084015f5b838110156118f6578151875295820195908201906001016118da565b509495945050505050565b602081525f61151c60208301846118c7565b5f60208284031215611923575f80fd5b61151c826114a9565b801515811461047c575f80fd5b5f806040838503121561194a575f80fd5b611953836114a9565b915060208301356119638161192c565b809150509250929050565b5f806040838503121561197f575f80fd5b611988836114a9565b9150611996602084016114a9565b90509250929050565b5f805f805f60a086880312156119b3575f80fd5b6119bc866114a9565b94506119ca602087016114a9565b93506040860135925060608601359150608086013567ffffffffffffffff8111156119f3575f80fd5b6117b988828901611705565b600181811c90821680611a1357607f821691505b602082108103611a3157634e487b7160e01b5f52602260045260245ffd5b50919050565b5f60208284031215611a47575f80fd5b815161151c8161192c565b8082018082111561041657634e487b7160e01b5f52601160045260245ffd5b634e487b7160e01b5f52603260045260245ffd5b5f60208284031215611a95575f80fd5b5051919050565b601f821115611ae057805f5260205f20601f840160051c81016020851015611ac15750805b601f840160051c820191505b81811015610529575f8155600101611acd565b505050565b815167ffffffffffffffff811115611aff57611aff611523565b611b1381611b0d84546119ff565b84611a9c565b602080601f831160018114611b46575f8415611b2f5750858301515b5f19600386901b1c1916600185901b178555610e18565b5f85815260208120601f198616915b82811015611b7457888601518255948401946001909101908401611b55565b5085821015611b9157878501515f19600388901b60f8161c191681555b5050505050600190811b01905550565b6001600160a01b0386811682528516602082015260a0604082018190525f90611bcc908301866118c7565b8281036060840152611bde81866118c7565b90508281036080840152611bf28185611621565b98975050505050505050565b5f60208284031215611c0e575f80fd5b815161151c816114ec565b6001600160a01b03868116825285166020820152604081018490526060810183905260a0608082018190525f90611c5290830184611621565b979650505050505050565b604081525f611c6f60408301856118c7565b828103602084015261180481856118c756fe9b779b17422d0df92223018b32b4d1fa46e071723d6817e2486d003becc55f00a2646970667358221220040774c24932af0f1dd8fb78323daca3ec474e3207c9733cf64dec2c5d40aa0f64736f6c6343000818003368747470733a2f2f6b6974652d7369676e616c2e696f2f6170692f6d657461646174612f7b69647d2e6a736f6e",
  "linkReferences": {},
  "deployedLinkReferences": {}
}