{
  "_format": "hh-sol-artifact-1",
  "contractName": "SubscriptionPass",
  "sourceName": "contracts/SubscriptionPass.sol",
  "abi": [
    {
      "inputs": [
        {
          "internalType": "address",
          "name": "initialOwner",
          "type": "address"
        },
        {
          "internalType": "address",
          "name": "usdtAddress",
          "type": "address"
        }
      ],
      "stateMutability": "nonpayable",
      "type": "constructor"
    },
    {
      "inputs": [
        {
          "internalType": "address",
          "name": "sender",
          "type": "address"
        },
        {
          "internalType": "uint256",
          "name": "balance",
          "type": "uint256"
        },
        {
          "internalType": "uint256",
          "name": "needed",
          "type": "uint256"
        },
        {
          "internalType": "uint256",
          "name": "tokenId",
          "type": "uint256"
        }
      ],
      "name": "ERC1155InsufficientBalance",
      "type": "error"
    },
    {
      "inputs": [
        {
          "internalType": "address",
          "name": "approver",
          "type": "address"
        }
      ],
      "name": "ERC1155InvalidApprover",
      "type": "error"
    },
    {
      "inputs": [
        {
          "internalType": "uint256",
          "name": "idsLength",
          "type": "uint256"
        },
        {
          "internalType": "uint256",
          "name": "valuesLength",
          "type": "uint256"
        }
      ],
      "name": "ERC1155InvalidArrayLength",
      "type": "error"
    },
    {
      "inputs": [
        {
          "internalType": "address",
          "name": "operator",
          "type": "address"
        }
      ],
      "name": "ERC1155InvalidOperator",
      "type": "error"
    },
    {
      "inputs": [
        {
          "internalType": "address",
          "name": "receiver",
          "type": "address"
        }
      ],
      "name": "ERC1155InvalidReceiver",
      "type": "error"
    },
    {
      "inputs": [
        {
          "internalType": "address",
          "name": "sender",
          "type": "address"
        }
      ],
      "name": "ERC1155InvalidSender",
      "type": "error"
    },
    {
      "inputs": [
        {
          "internalType": "address",
          "name": "operator",
          "type": "address"
        },
        {
          "internalType": "address",
          "name": "owner",
          "type": "address"
        }
      ],
      "name": "ERC1155MissingApprovalForAll",
      "type": "error"
    },
    {
      "inputs": [
        {
          "internalType": "uint8",
          "name": "tier",
          "type": "uint8"
        }
      ],
      "name": "InvalidTier",
      "type": "error"
    },
    {
      "inputs": [
        {
          "internalType": "address",
          "name": "owner",
          "type": "address"
        }
      ],
      "name": "OwnableInvalidOwner",
      "type": "error"
    },
    {
      "inputs": [
        {
          "internalType": "address",
          "name": "account",
          "type": "address"
        }
      ],
      "name": "OwnableUnauthorizedAccount",
      "type": "error"
    },
    {
      "inputs": [],
      "name": "PaymentFailed",
      "type": "error"
    },
    {
      "inputs": [],
      "name": "ReentrancyGuardReentrantCall",
      "type": "error"
    },
    {
      "anonymous": false,
      "inputs": [
        {
          "indexed": true,
          "internalType": "address",
          "name": "account",
          "type": "address"
        },
        {
          "indexed": true,
          "internalType": "address",
          "name": "operator",
          "type": "address"
        },
        {
          "indexed": false,
          "internalType": "bool",
          "name": "approved",
          "type": "bool"
        }
      ],
      "name": "ApprovalForAll",
      "type": "event"
    },
    {
      "anonymous": false,
      "inputs": [
        {
          "indexed": true,
          "internalType": "address",
          "name": "previousOwner",
          "type": "address"
        },
        {
          "indexed": true,
          "internalType": "address",
          "name": "newOwner",
          "type": "address"
        }
      ],
      "name": "OwnershipTransferred",
      "type": "event"
    },
    {
      "anonymous": false,
      "inputs": [
        {
          "indexed": true,
          "internalType": "address",
          "name": "subscriber",
          "type": "address"
        },
        {
          "indexed": false,
          "internalType": "uint8",
          "name": "tier",
          "type": "uint8"
        },
        {
          "indexed": false,
          "internalType": "uint256",
          "name": "expiresAt",
          "type": "uint256"
        },
        {
          "indexed": false,
          "internalType": "uint256",
          "name": "price",
          "type": "uint256"
        }
      ],
      "name": "PassPurchased",
      "type": "event"
    },
    {
      "anonymous": false,
      "inputs": [
        {
          "indexed": true,
          "internalType": "address",
          "name": "to",
          "type": "address"
        },
        {
          "indexed": false,
          "internalType": "uint256",
          "name": "amount",
          "type": "uint256"
        }
      ],
      "name": "RevenueWithdrawn",
      "type": "event"
    },
    {
      "anonymous": false,
      "inputs": [
        {
          "indexed": true,
          "internalType": "address",
          "name": "operator",
          "type": "address"
        },
        {
          "indexed": true,
          "internalType": "address",
          "name": "from",
          "type": "address"
        },
        {
          "indexed": true,
          "internalType": "address",
          "name": "to",
          "type": "address"
        },
        {
          "indexed": false,
          "internalType": "uint256[]",
          "name": "ids",
          "type": "uint256[]"
        },
        {
          "indexed": false,
          "internalType": "uint256[]",
          "name": "values",
          "type": "uint256[]"
        }
      ],
      "name": "TransferBatch",
      "type": "event"
    },
    {
      "anonymous": false,
      "inputs": [
        {
          "indexed": true,
          "internalType": "address",
          "name": "operator",
          "type": "address"
        },
        {
          "indexed": true,
          "internalType": "address",
          "name": "from",
          "type": "address"
        },
        {
          "indexed": true,
          "internalType": "address",
          "name": "to",
          "type": "address"
        },
        {
          "indexed": false,
          "internalType": "uint256",
          "name": "id",
          "type": "uint256"
        },
        {
          "indexed": false,
          "internalType": "uint256",
          "name": "value",
          "type": "uint256"
        }
      ],
      "name": "TransferSingle",
      "type": "event"
    },
    {
      "anonymous": false,
      "inputs": [
        {
          "indexed": false,
          "internalType": "string",
          "name": "value",
          "type": "string"
        },
        {
          "indexed": true,
          "internalType": "uint256",
          "name": "id",
          "type": "uint256"
        }
      ],
      "name": "URI",
      "type": "event"
    },
    {
      "inputs": [],
      "name": "DURATION_30D",
      "outputs": [
        {
          "internalType": "uint256",
          "name": "",
          "type": "uint256"
        }
      ],
      "stateMutability": "view",
      "type": "function"
    },
    {
      "inputs": [],
      "name": "DURATION_7D",
      "outputs": [
        {
          "internalType": "uint256",
          "name": "",
          "type": "uint256"
        }
      ],
      "stateMutability": "view",
      "type": "function"
    },
    {
      "inputs": [],
      "name": "PRICE_BASIC",
      "outputs": [
        {
          "internalType": "uint256",
          "name": "",
          "type": "uint256"
        }
      ],
      "stateMutability": "view",
      "type": "function"
    },
    {
      "inputs": [],
      "name": "PRICE_ELITE",
      "outputs": [
        {
          "internalType": "uint256",
          "name": "",
          "type": "uint256"
        }
      ],
      "stateMutability": "view",
      "type": "function"
    },
    {
      "inputs": [],
      "name": "PRICE_PRO",
      "outputs": [
        {
          "internalType": "uint256",
          "name": "",
          "type": "uint256"
        }
      ],
      "stateMutability": "view",
      "type": "function"
    },
    {
      "inputs": [],
      "name": "TIER_BASIC",
      "outputs": [
        {
          "internalType": "uint8",
          "name": "",
          "type": "uint8"
        }
      ],
      "stateMutability": "view",
      "type": "function"
    },
    {
      "inputs": [],
      "name": "TIER_ELITE",
      "outputs": [
        {
          "internalType": "uint8",
          "name": "",
          "type": "uint8"
        }
      ],
      "stateMutability": "view",
      "type": "function"
    },
    {
      "inputs": [],
      "name": "TIER_PRO",
      "outputs": [
        {
          "internalType": "uint8",
          "name": "",
          "type": "uint8"
        }
      ],
      "stateMutability": "view",
      "type": "function"
    },
    {
      "inputs": [
        {
          "internalType": "address",
          "name": "account",
          "type": "address"
        },
        {
          "internalType": "uint256",
          "name": "id",
          "type": "uint256"
        }
      ],
      "name": "balanceOf",
      "outputs": [
        {
          "internalType": "uint256",
          "name": "",
          "type": "uint256"
        }
      ],
      "stateMutability": "view",
      "type": "function"
    },
    {
      "inputs": [
        {
          "internalType": "address[]",
          "name": "accounts",
          "type": "address[]"
        },
        {
          "internalType": "uint256[]",
          "name": "ids",
          "type": "uint256[]"
        }
      ],
      "name": "balanceOfBatch",
      "outputs": [
        {
          "internalType": "uint256[]",
          "name": "",
          "type": "uint256[]"
        }
      ],
      "stateMutability": "view",
      "type": "function"
    },
    {
      "inputs": [
        {
          "internalType": "address",
          "name": "subscriber",
          "type": "address"
        }
      ],
      "name": "isActive",
      "outputs": [
        {
          "internalType": "bool",
          "name": "active",
          "type": "bool"
        },
        {
          "internalType": "uint8",
          "name": "tier",
          "type": "uint8"
        },
        {
          "internalType": "uint256",
          "name": "expiresAt",
          "type": "uint256"
        }
      ],
      "stateMutability": "view",
      "type": "function"
    },
    {
      "inputs": [
        {
          "internalType": "address",
          "name": "account",
          "type": "address"
        },
        {
          "internalType": "address",
          "name": "operator",
          "type": "address"
        }
      ],
      "name": "isApprovedForAll",
      "outputs": [
        {
          "internalType": "bool",
          "name": "",
          "type": "bool"
        }
      ],
      "stateMutability": "view",
      "type": "function"
    },
    {
      "inputs": [],
      "name": "owner",
      "outputs": [
        {
          "internalType": "address",
          "name": "",
          "type": "address"
        }
      ],
      "stateMutability": "view",
      "type": "function"
    },
    {
      "inputs": [
        {
          "internalType": "uint8",
          "name": "tier",
          "type": "uint8"
        }
      ],
      "name": "purchase",
      "outputs": [],
      "stateMutability": "nonpayable",
      "type": "function"
    },
    {
      "inputs": [],
      "name": "renounceOwnership",
      "outputs": [],
      "stateMutability": "nonpayable",
      "type": "function"
    },
    {
      "inputs": [
        {
          "internalType": "address",
          "name": "from",
          "type": "address"
        },
        {
          "internalType": "address",
          "name": "to",
          "type": "address"
        },
        {
          "internalType": "uint256[]",
          "name": "ids",
          "type": "uint256[]"
        },
        {
          "internalType": "uint256[]",
          "name": "values",
          "type": "uint256[]"
        },
        {
          "internalType": "bytes",
          "name": "data",
          "type": "bytes"
        }
      ],
      "name": "safeBatchTransferFrom",
      "outputs": [],
      "stateMutability": "nonpayable",
      "type": "function"
    },
    {
      "inputs": [
        {
          "internalType": "address",
          "name": "from",
          "type": "address"
        },
        {
          "internalType": "address",
          "name": "to",
          "type": "address"
        },
        {
          "internalType": "uint256",
          "name": "id",
          "type": "uint256"
        },
        {
          "internalType": "uint256",
          "name": "value",
          "type": "uint256"
        },
        {
          "internalType": "bytes",
          "name": "data",
          "type": "bytes"
        }
      ],
      "name": "safeTransferFrom",
      "outputs": [],
      "stateMutability": "nonpayable",
      "type": "function"
    },
    {
      "inputs": [
        {
          "internalType": "address",
          "name": "operator",
          "type": "address"
        },
        {
          "internalType": "bool",
          "name": "approved",
          "type": "bool"
        }
      ],
      "name": "setApprovalForAll",
      "outputs": [],
      "stateMutability": "nonpayable",
      "type": "function"
    },
    {
      "inputs": [
        {
          "internalType": "string",
          "name": "newURI",
          "type": "string"
        }
      ],
      "name": "setURI",
      "outputs": [],
      "stateMutability": "nonpayable",
      "type": "function"
    },
    {
      "inputs": [
        {
          "internalType": "bytes4",
          "name": "interfaceId",
          "type": "bytes4"
        }
      ],
      "name": "supportsInterface",
      "outputs": [
        {
          "internalType": "bool",
          "name": "",
          "type": "bool"
        }
      ],
      "stateMutability": "view",
      "type": "function"
    },
    {
      "inputs": [
        {
          "internalType": "uint8",
          "name": "tier",
          "type": "uint8"
        }
      ],
      "name": "tierConfig",
      "outputs": [
        {
          "internalType": "uint256",
          "name": "price",
          "type": "uint256"
        },
        {
          "internalType": "uint256",
          "name": "duration",
          "type": "uint256"
        },
        {
          "internalType": "string",
          "name": "name",
          "type": "string"
        }
      ],
      "stateMutability": "pure",
      "type": "function"
    },
    {
      "inputs": [],
      "name": "totalRevenue",
      "outputs": [
        {
          "internalType": "uint256",
          "name": "",
          "type": "uint256"
        }
      ],
      "stateMutability": "view",
      "type": "function"
    },
    {
      "inputs": [
        {
          "internalType": "address",
          "name": "newOwner",
          "type": "address"
        }
      ],
      "name": "transferOwnership",
      "outputs": [],
      "stateMutability": "nonpayable",
      "type": "function"
    },
    {
      "inputs": [
        {
          "internalType": "uint256",
          "name": "",
          "type": "uint256"
        }
      ],
      "name": "uri",
      "outputs": [
        {
          "internalType": "string",
          "name": "",
          "type": "string"
        }
      ],
      "stateMutability": "view",
      "type": "function"
    },
    {
      "inputs": [],
      "name": "usdt",
      "outputs": [
        {
          "internalType": "contract IERC20",
          "name": "",
          "type": "address"
        }
      ],
      "stateMutability": "view",
      "type": "function"
    },
    {
      "inputs": [
        {
          "internalType": "address",
          "name": "to",
          "type": "address"
        }
      ],
      "name": "withdrawRevenue",
      "outputs": [],
      "stateMutability": "nonpayable",
      "type": "function"
    }
  ],
  "bytecode": "0x60a060405234801562000010575f80fd5b5060405162001f9938038062001f9983398101604081905262000033916200014a565b816040518060600160405280602d815260200162001f6c602d91396200005981620000cb565b506001600160a01b0381166200008857604051631e4fbdf760e01b81525f600482015260240160405180910390fd5b6200009381620000dd565b5060017f9b779b17422d0df92223018b32b4d1fa46e071723d6817e2486d003becc55f00556001600160a01b031660805250620002ea565b6002620000d982826200021e565b5050565b600380546001600160a01b038381166001600160a01b0319831681179093556040519116919082907f8be0079c531659141344cd1fd0a4f28419497f9722a3daafe3b4186f6b6457e0905f90a35050565b80516001600160a01b038116811462000145575f80fd5b919050565b5f80604083850312156200015c575f80fd5b62000167836200012e565b915062000177602084016200012e565b90509250929050565b634e487b7160e01b5f52604160045260245ffd5b600181811c90821680620001a957607f821691505b602082108103620001c857634e487b7160e01b5f52602260045260245ffd5b50919050565b601f8211156200021957805f5260205f20601f840160051c81016020851015620001f55750805b601f840160051c820191505b8181101562000216575f815560010162000201565b50505b505050565b81516001600160401b038111156200023a576200023a62000180565b62000252816200024b845462000194565b84620001ce565b602080601f83116001811462000288575f8415620002705750858301515b5f19600386901b1c1916600185901b178555620002e2565b5f85815260208120601f198616915b82811015620002b85788860151825594840194600190910190840162000297565b5085821015620002d657878501515f19600388901b60f8161c191681555b505060018460011b0185555b505050505050565b608051611c54620003185f395f818161023a0152818161059f0152818161092301526109fa0152611c545ff3fe608060405234801561000f575f80fd5b5060043610610186575f3560e01c8063715018a6116100d9578063b597393e11610093578063dcc42fc21161006e578063dcc42fc2146103b7578063e985e9c5146103bf578063f242432a146103fa578063f2fde38b1461040d575f80fd5b8063b597393e14610395578063bf2d9e0b146103a4578063cb2c5e00146103ad575f80fd5b8063715018a6146102f55780637771a9ca146102fd5780637c3bc86e146103055780638da5cb5b146103145780639f8a13d714610325578063a22cb46514610382575f80fd5b80632f48ab7d116101445780634e0db3c31161011f5780634e0db3c3146102a95780634e1273f4146102b85780635e420f4c146102d85780636bccc297146102eb575f80fd5b80632f48ab7d146102355780633298df7614610274578063468b542514610287575f80fd5b8062fdd58e1461018a57806301ffc9a7146101b057806302fe5305146101d357806303510c95146101e85780630e89341c146102025780632eb2c2d614610222575b5f80fd5b61019d610198366004611441565b610420565b6040519081526020015b60405180910390f35b6101c36101be36600461147e565b610447565b60405190151581526020016101a7565b6101e66101e136600461153a565b610496565b005b6101f0600281565b60405160ff90911681526020016101a7565b610215610210366004611587565b6104aa565b6040516101a791906115e1565b6101e66102303660046116a0565b61053c565b61025c7f000000000000000000000000000000000000000000000000000000000000000081565b6040516001600160a01b0390911681526020016101a7565b6101e6610282366004611743565b61055b565b61029a610295366004611743565b610749565b6040516101a793929190611763565b61019d67d02ab486cedc000081565b6102cb6102c636600461178a565b610831565b6040516101a7919061187e565b6101e66102e6366004611890565b6108fc565b61019d62278d0081565b6101e6610b02565b6101f0600381565b61019d670de0b6b3a764000081565b6003546001600160a01b031661025c565b610363610333366004611890565b6001600160a01b03165f908152600460209081526040808320546005909252909120544282119260ff9091169190565b60408051931515845260ff9092166020840152908201526060016101a7565b6101e66103903660046118b6565b610b15565b61019d674563918244f4000081565b61019d60065481565b61019d62093a8081565b6101f0600181565b6101c36103cd3660046118eb565b6001600160a01b039182165f90815260016020908152604080832093909416825291909152205460ff1690565b6101e661040836600461191c565b610b24565b6101e661041b366004611890565b610b3a565b5f818152602081815260408083206001600160a01b03861684529091529020545b92915050565b5f6001600160e01b03198216636cdb3d1360e11b148061047757506001600160e01b031982166303a24d0760e21b145b8061044157506301ffc9a760e01b6001600160e01b0319831614610441565b61049e610b74565b6104a781610ba1565b50565b6060600280546104b99061197c565b80601f01602080910402602001604051908101604052809291908181526020018280546104e59061197c565b80156105305780601f1061050757610100808354040283529160200191610530565b820191905f5260205f20905b81548152906001019060200180831161051357829003601f168201915b50505050509050919050565b610547335b86610bad565b6105548585858585610c25565b5050505050565b610563610c85565b5f8061056e83610ca0565b6040516323b872dd60e01b81523360048201523060248201526044810183905291935091505f906001600160a01b037f000000000000000000000000000000000000000000000000000000000000000016906323b872dd906064016020604051808303815f875af11580156105e5573d5f803e3d5ffd5b505050506040513d601f19601f8201168201806040525081019061060991906119b4565b905080610629576040516307a4ced160e51b815260040160405180910390fd5b8260065f82825461063a91906119cf565b9091555050335f908152600460205260408120549042821161065c574261065e565b815b90505f61066b85836119cf565b335f9081526005602052604090205490915060ff16801580159061068e57504284115b156106a2576106a2338260ff166001610d22565b335f81815260046020908152604080832086905560058252808320805460ff191660ff8e1690811790915581519283019091529181526106e6929190600190610d89565b6040805160ff8a1681526020810184905290810188905233907fe22f6162e37aefcf9885664da3531d4d930134f651867c98b45878ae59f233e19060600160405180910390a2505050505050506104a760015f80516020611bff83398151915255565b5f8060605f1960ff85160161078b575050604080518082019091526005815264426173696360d81b6020820152670de0b6b3a7640000915062093a809061082a565b60011960ff8516016107c857505060408051808201909152600381526250726f60e81b6020820152674563918244f40000915062093a809061082a565b60021960ff851601610807575050604080518082019091526005815264456c69746560d81b602082015267d02ab486cedc0000915062278d009061082a565b604051635e50d4ab60e11b815260ff851660048201526024015b60405180910390fd5b9193909250565b606081518351146108625781518351604051635b05999160e01b815260048101929092526024820152604401610821565b5f835167ffffffffffffffff81111561087d5761087d6114a0565b6040519080825280602002602001820160405280156108a6578160200160208202803683370190505b5090505f5b84518110156108f4576020808202860101516108cf90602080840287010151610420565b8282815181106108e1576108e16119ee565b60209081029190910101526001016108ab565b509392505050565b610904610b74565b61090c610c85565b6040516370a0823160e01b81523060048201525f907f00000000000000000000000000000000000000000000000000000000000000006001600160a01b0316906370a0823190602401602060405180830381865afa158015610970573d5f803e3d5ffd5b505050506040513d601f19601f820116820180604052508101906109949190611a02565b90505f81116109d25760405162461bcd60e51b815260206004820152600a6024820152694e6f2062616c616e636560b01b6044820152606401610821565b60405163a9059cbb60e01b81526001600160a01b038381166004830152602482018390525f917f00000000000000000000000000000000000000000000000000000000000000009091169063a9059cbb906044016020604051808303815f875af1158015610a42573d5f803e3d5ffd5b505050506040513d601f19601f82011682018060405250810190610a6691906119b4565b905080610aa75760405162461bcd60e51b815260206004820152600f60248201526e151c985b9cd9995c8819985a5b1959608a1b6044820152606401610821565b826001600160a01b03167f86a5cc8fe9af9ae68fb50f62885307a7755a30cbd290131644377f0bd94a718183604051610ae291815260200190565b60405180910390a250506104a760015f80516020611bff83398151915255565b610b0a610b74565b610b135f610ded565b565b610b20338383610e3e565b5050565b610b2d33610541565b6105548585858585610efb565b610b42610b74565b6001600160a01b038116610b6b57604051631e4fbdf760e01b81525f6004820152602401610821565b6104a781610ded565b6003546001600160a01b03163314610b135760405163118cdaa760e01b8152336004820152602401610821565b6002610b208282611a62565b816001600160a01b0316816001600160a01b031614158015610bf457506001600160a01b038082165f9081526001602090815260408083209386168352929052205460ff16155b15610b205760405163711bec9160e11b81526001600160a01b03808416600483015282166024820152604401610821565b6001600160a01b038416610c4e57604051632bfa23e760e11b81525f6004820152602401610821565b6001600160a01b038516610c7657604051626a0d4560e21b81525f6004820152602401610821565b61055485858585856001610f88565b610c8d610fe0565b60025f80516020611bff83398151915255565b5f805f1960ff841601610cc25750670de0b6b3a76400009262093a8092509050565b60011960ff841601610ce35750674563918244f400009262093a8092509050565b60021960ff841601610d04575067d02ab486cedc00009262278d0092509050565b604051635e50d4ab60e11b815260ff84166004820152602401610821565b6001600160a01b038316610d4a57604051626a0d4560e21b81525f6004820152602401610821565b604080516001808252602082018590528183019081526060820184905260a082019092525f608082018181529192916105549187918590859083610f88565b6001600160a01b038416610db257604051632bfa23e760e11b81525f6004820152602401610821565b60408051600180825260208201869052818301908152606082018590526080820190925290610de55f8784848784610f88565b505050505050565b600380546001600160a01b038381166001600160a01b0319831681179093556040519116919082907f8be0079c531659141344cd1fd0a4f28419497f9722a3daafe3b4186f6b6457e0905f90a35050565b6001600160a01b038316610e6757604051631f18c42760e11b81525f6004820152602401610821565b6001600160a01b038216610e8f5760405162ced3e160e81b81525f6004820152602401610821565b6001600160a01b038381165f81815260016020908152604080832094871680845294825291829020805460ff191686151590811790915591519182527f17307eab39ab6107e8899845ad3d59bd9653f200f220920489ca2b5937696c31910160405180910390a3505050565b6001600160a01b038416610f2457604051632bfa23e760e11b81525f6004820152602401610821565b6001600160a01b038516610f4c57604051626a0d4560e21b81525f6004820152602401610821565b60408051600180825260208201869052818301908152606082018590526080820190925290610f7f87878484875f610f88565b50505050505050565b610f948686868661100f565b6001600160a01b03851615610de557338115610fbd57610fb881888888888861121e565b610f7f565b60208581015190850151610fd5838a8a85858a61133f565b505050505050505050565b5f80516020611bff83398151915254600203610b1357604051633ee5aeb560e01b815260040160405180910390fd5b805182511461103e5781518151604051635b05999160e01b815260048101929092526024820152604401610821565b335f5b8351811015611140576020818102858101820151908501909101516001600160a01b038816156110f2575f828152602081815260408083206001600160a01b038c168452909152902054818110156110cc576040516303dee4c560e01b81526001600160a01b038a166004820152602481018290526044810183905260648101849052608401610821565b5f838152602081815260408083206001600160a01b038d16845290915290209082900390555b6001600160a01b03871615611136575f828152602081815260408083206001600160a01b038b168452909152812080548392906111309084906119cf565b90915550505b5050600101611041565b5082516001036111c05760208301515f906020840151909150856001600160a01b0316876001600160a01b0316846001600160a01b03167fc3d58168c5ae7397731d063d5bbf3d657854427343f4c083240f7aacaa2d0f6285856040516111b1929190918252602082015260400190565b60405180910390a45050610554565b836001600160a01b0316856001600160a01b0316826001600160a01b03167f4a39dc06d4c0dbc64b70af90fd698a233a518aa5d07e595d983b8c0526c8f7fb868660405161120f929190611b1e565b60405180910390a45050505050565b6001600160a01b0384163b15610de55760405163bc197c8160e01b81526001600160a01b0385169063bc197c81906112629089908990889088908890600401611b42565b6020604051808303815f875af192505050801561129c575060408051601f3d908101601f1916820190925261129991810190611b9f565b60015b611303573d8080156112c9576040519150601f19603f3d011682016040523d82523d5f602084013e6112ce565b606091505b5080515f036112fb57604051632bfa23e760e11b81526001600160a01b0386166004820152602401610821565b805160208201fd5b6001600160e01b0319811663bc197c8160e01b14610f7f57604051632bfa23e760e11b81526001600160a01b0386166004820152602401610821565b6001600160a01b0384163b15610de55760405163f23a6e6160e01b81526001600160a01b0385169063f23a6e61906113839089908990889088908890600401611bba565b6020604051808303815f875af19250505080156113bd575060408051601f3d908101601f191682019092526113ba91810190611b9f565b60015b6113ea573d8080156112c9576040519150601f19603f3d011682016040523d82523d5f602084013e6112ce565b6001600160e01b0319811663f23a6e6160e01b14610f7f57604051632bfa23e760e11b81526001600160a01b0386166004820152602401610821565b80356001600160a01b038116811461143c575f80fd5b919050565b5f8060408385031215611452575f80fd5b61145b83611426565b946020939093013593505050565b6001600160e01b0319811681146104a7575f80fd5b5f6020828403121561148e575f80fd5b813561149981611469565b9392505050565b634e487b7160e01b5f52604160045260245ffd5b604051601f8201601f1916810167ffffffffffffffff811182821017156114dd576114dd6114a0565b604052919050565b5f67ffffffffffffffff8311156114fe576114fe6114a0565b611511601f8401601f19166020016114b4565b9050828152838383011115611524575f80fd5b828260208301375f602084830101529392505050565b5f6020828403121561154a575f80fd5b813567ffffffffffffffff811115611560575f80fd5b8201601f81018413611570575f80fd5b61157f848235602084016114e5565b949350505050565b5f60208284031215611597575f80fd5b5035919050565b5f81518084525f5b818110156115c2576020818501810151868301820152016115a6565b505f602082860101526020601f19601f83011685010191505092915050565b602081525f611499602083018461159e565b5f67ffffffffffffffff82111561160c5761160c6114a0565b5060051b60200190565b5f82601f830112611625575f80fd5b8135602061163a611635836115f3565b6114b4565b8083825260208201915060208460051b87010193508684111561165b575f80fd5b602086015b848110156116775780358352918301918301611660565b509695505050505050565b5f82601f830112611691575f80fd5b611499838335602085016114e5565b5f805f805f60a086880312156116b4575f80fd5b6116bd86611426565b94506116cb60208701611426565b9350604086013567ffffffffffffffff808211156116e7575f80fd5b6116f389838a01611616565b94506060880135915080821115611708575f80fd5b61171489838a01611616565b93506080880135915080821115611729575f80fd5b5061173688828901611682565b9150509295509295909350565b5f60208284031215611753575f80fd5b813560ff81168114611499575f80fd5b838152826020820152606060408201525f611781606083018461159e565b95945050505050565b5f806040838503121561179b575f80fd5b823567ffffffffffffffff808211156117b2575f80fd5b818501915085601f8301126117c5575f80fd5b813560206117d5611635836115f3565b82815260059290921b840181019181810190898411156117f3575f80fd5b948201945b838610156118185761180986611426565b825294820194908201906117f8565b9650508601359250508082111561182d575f80fd5b5061183a85828601611616565b9150509250929050565b5f815180845260208085019450602084015f5b8381101561187357815187529582019590820190600101611857565b509495945050505050565b602081525f6114996020830184611844565b5f602082840312156118a0575f80fd5b61149982611426565b80151581146104a7575f80fd5b5f80604083850312156118c7575f80fd5b6118d083611426565b915060208301356118e0816118a9565b809150509250929050565b5f80604083850312156118fc575f80fd5b61190583611426565b915061191360208401611426565b90509250929050565b5f805f805f60a08688031215611930575f80fd5b61193986611426565b945061194760208701611426565b93506040860135925060608601359150608086013567ffffffffffffffff811115611970575f80fd5b61173688828901611682565b600181811c9082168061199057607f821691505b6020821081036119ae57634e487b7160e01b5f52602260045260245ffd5b50919050565b5f602082840312156119c4575f80fd5b8151611499816118a9565b8082018082111561044157634e487b7160e01b5f52601160045260245ffd5b634e487b7160e01b5f52603260045260245ffd5b5f60208284031215611a12575f80fd5b5051919050565b601f821115611a5d57805f5260205f20601f840160051c81016020851015611a3e5750805b601f840160051c820191505b81811015610554575f8155600101611a4a565b505050565b815167ffffffffffffffff811115611a7c57611a7c6114a0565b611a9081611a8a845461197c565b84611a19565b602080601f831160018114611ac3575f8415611aac5750858301515b5f19600386901b1c1916600185901b178555610de5565b5f85815260208120601f198616915b82811015611af157888601518255948401946001909101908401611ad2565b5085821015611b0e57878501515f19600388901b60f8161c191681555b5050505050600190811b01905550565b604081525f611b306040830185611844565b82810360208401526117818185611844565b6001600160a01b0386811682528516602082015260a0604082018190525f90611b6d90830186611844565b8281036060840152611b7f8186611844565b90508281036080840152611b93818561159e565b98975050505050505050565b5f60208284031215611baf575f80fd5b815161149981611469565b6001600160a01b03868116825285166020820152604081018490526060810183905260a0608082018190525f90611bf39083018461159e565b97965050505050505056fe9b779b17422d0df92223018b32b4d1fa46e071723d6817e2486d003becc55f00a2646970667358221220e31f9b0f928ccf03e442921ff68f224495efdda28604be61fd931ba8fef160f364736f6c6343000818003368747470733a2f2f6b6974652d7369676e616c2e696f2f6170692f6d657461646174612f7b69647d2e6a736f6e",
  "linkReferences": {},
  "deployedLinkReferences": {}
}